{
	"contracts/Test.sol": {
		"Test": {
			"abi": [
				{
					"inputs": [
						{
							"internalType": "uint8",
							"name": "a",
							"type": "uint8"
						},
						{
							"internalType": "uint8",
							"name": "b",
							"type": "uint8"
						}
					],
					"name": "add",
					"outputs": [
						{
							"internalType": "uint8",
							"name": "",
							"type": "uint8"
						}
					],
					"stateMutability": "pure",
					"type": "function"
				},
				{
					"inputs": [],
					"name": "getBalance",
					"outputs": [
						{
							"internalType": "uint256",
							"name": "",
							"type": "uint256"
						}
					],
					"stateMutability": "view",
					"type": "function"
				}
			],
			"devdoc": {
				"kind": "dev",
				"methods": {},
				"version": 1
			},
			"evm": {
				"assembly": "    /* \"contracts/Test.sol\":65:278  contract Test {\r... */\n  mstore(0x40, 0x80)\n  callvalue\n  dup1\n  iszero\n  tag_1\n  jumpi\n  0x00\n  dup1\n  revert\ntag_1:\n  pop\n  dataSize(sub_0)\n  dup1\n  dataOffset(sub_0)\n  0x00\n  codecopy\n  0x00\n  return\nstop\n\nsub_0: assembly {\n        /* \"contracts/Test.sol\":65:278  contract Test {\r... */\n      mstore(0x40, 0x80)\n      callvalue\n      dup1\n      iszero\n      tag_1\n      jumpi\n      0x00\n      dup1\n      revert\n    tag_1:\n      pop\n      jumpi(tag_2, lt(calldatasize, 0x04))\n      shr(0xe0, calldataload(0x00))\n      dup1\n      0x12065fe0\n      eq\n      tag_3\n      jumpi\n      dup1\n      0xbb4e3f4d\n      eq\n      tag_4\n      jumpi\n    tag_2:\n      0x00\n      dup1\n      revert\n        /* \"contracts/Test.sol\":183:275  function getBalance() public view returns (uint){\r... */\n    tag_3:\n      tag_5\n      tag_6\n      jump\t// in\n    tag_5:\n      mload(0x40)\n      tag_7\n      swap2\n      swap1\n      tag_8\n      jump\t// in\n    tag_7:\n      mload(0x40)\n      dup1\n      swap2\n      sub\n      swap1\n      return\n        /* \"contracts/Test.sol\":86:175  function add(uint8 a, uint8 b) public pure returns (uint8){\r... */\n    tag_4:\n      tag_9\n      0x04\n      dup1\n      calldatasize\n      sub\n      dup2\n      add\n      swap1\n      tag_10\n      swap2\n      swap1\n      tag_11\n      jump\t// in\n    tag_10:\n      tag_12\n      jump\t// in\n    tag_9:\n      mload(0x40)\n      tag_13\n      swap2\n      swap1\n      tag_14\n      jump\t// in\n    tag_13:\n      mload(0x40)\n      dup1\n      swap2\n      sub\n      swap1\n      return\n        /* \"contracts/Test.sol\":183:275  function getBalance() public view returns (uint){\r... */\n    tag_6:\n        /* \"contracts/Test.sol\":226:230  uint */\n      0x00\n        /* \"contracts/Test.sol\":249:259  msg.sender */\n      caller\n        /* \"contracts/Test.sol\":249:267  msg.sender.balance */\n      0xffffffffffffffffffffffffffffffffffffffff\n      and\n      balance\n        /* \"contracts/Test.sol\":242:267  return msg.sender.balance */\n      swap1\n      pop\n        /* \"contracts/Test.sol\":183:275  function getBalance() public view returns (uint){\r... */\n      swap1\n      jump\t// out\n        /* \"contracts/Test.sol\":86:175  function add(uint8 a, uint8 b) public pure returns (uint8){\r... */\n    tag_12:\n        /* \"contracts/Test.sol\":138:143  uint8 */\n      0x00\n        /* \"contracts/Test.sol\":166:167  b */\n      dup2\n        /* \"contracts/Test.sol\":162:163  a */\n      dup4\n        /* \"contracts/Test.sol\":162:167  a + b */\n      tag_17\n      swap2\n      swap1\n      tag_18\n      jump\t// in\n    tag_17:\n        /* \"contracts/Test.sol\":155:167  return a + b */\n      swap1\n      pop\n        /* \"contracts/Test.sol\":86:175  function add(uint8 a, uint8 b) public pure returns (uint8){\r... */\n      swap3\n      swap2\n      pop\n      pop\n      jump\t// out\n        /* \"#utility.yul\":7:142   */\n    tag_20:\n        /* \"#utility.yul\":51:56   */\n      0x00\n        /* \"#utility.yul\":89:95   */\n      dup2\n        /* \"#utility.yul\":76:96   */\n      calldataload\n        /* \"#utility.yul\":67:96   */\n      swap1\n      pop\n        /* \"#utility.yul\":105:136   */\n      tag_22\n        /* \"#utility.yul\":130:135   */\n      dup2\n        /* \"#utility.yul\":105:136   */\n      tag_23\n      jump\t// in\n    tag_22:\n        /* \"#utility.yul\":7:142   */\n      swap3\n      swap2\n      pop\n      pop\n      jump\t// out\n        /* \"#utility.yul\":148:614   */\n    tag_11:\n        /* \"#utility.yul\":212:218   */\n      0x00\n        /* \"#utility.yul\":220:226   */\n      dup1\n        /* \"#utility.yul\":269:271   */\n      0x40\n        /* \"#utility.yul\":257:266   */\n      dup4\n        /* \"#utility.yul\":248:255   */\n      dup6\n        /* \"#utility.yul\":244:267   */\n      sub\n        /* \"#utility.yul\":240:272   */\n      slt\n        /* \"#utility.yul\":237:356   */\n      iszero\n      tag_25\n      jumpi\n        /* \"#utility.yul\":275:354   */\n      tag_26\n      tag_27\n      jump\t// in\n    tag_26:\n        /* \"#utility.yul\":237:356   */\n    tag_25:\n        /* \"#utility.yul\":395:396   */\n      0x00\n        /* \"#utility.yul\":420:471   */\n      tag_28\n        /* \"#utility.yul\":463:470   */\n      dup6\n        /* \"#utility.yul\":454:460   */\n      dup3\n        /* \"#utility.yul\":443:452   */\n      dup7\n        /* \"#utility.yul\":439:461   */\n      add\n        /* \"#utility.yul\":420:471   */\n      tag_20\n      jump\t// in\n    tag_28:\n        /* \"#utility.yul\":410:471   */\n      swap3\n      pop\n        /* \"#utility.yul\":366:481   */\n      pop\n        /* \"#utility.yul\":520:522   */\n      0x20\n        /* \"#utility.yul\":546:597   */\n      tag_29\n        /* \"#utility.yul\":589:596   */\n      dup6\n        /* \"#utility.yul\":580:586   */\n      dup3\n        /* \"#utility.yul\":569:578   */\n      dup7\n        /* \"#utility.yul\":565:587   */\n      add\n        /* \"#utility.yul\":546:597   */\n      tag_20\n      jump\t// in\n    tag_29:\n        /* \"#utility.yul\":536:597   */\n      swap2\n      pop\n        /* \"#utility.yul\":491:607   */\n      pop\n        /* \"#utility.yul\":148:614   */\n      swap3\n      pop\n      swap3\n      swap1\n      pop\n      jump\t// out\n        /* \"#utility.yul\":620:738   */\n    tag_30:\n        /* \"#utility.yul\":707:731   */\n      tag_32\n        /* \"#utility.yul\":725:730   */\n      dup2\n        /* \"#utility.yul\":707:731   */\n      tag_33\n      jump\t// in\n    tag_32:\n        /* \"#utility.yul\":702:705   */\n      dup3\n        /* \"#utility.yul\":695:732   */\n      mstore\n        /* \"#utility.yul\":620:738   */\n      pop\n      pop\n      jump\t// out\n        /* \"#utility.yul\":744:856   */\n    tag_34:\n        /* \"#utility.yul\":827:849   */\n      tag_36\n        /* \"#utility.yul\":843:848   */\n      dup2\n        /* \"#utility.yul\":827:849   */\n      tag_37\n      jump\t// in\n    tag_36:\n        /* \"#utility.yul\":822:825   */\n      dup3\n        /* \"#utility.yul\":815:850   */\n      mstore\n        /* \"#utility.yul\":744:856   */\n      pop\n      pop\n      jump\t// out\n        /* \"#utility.yul\":862:1084   */\n    tag_8:\n        /* \"#utility.yul\":955:959   */\n      0x00\n        /* \"#utility.yul\":993:995   */\n      0x20\n        /* \"#utility.yul\":982:991   */\n      dup3\n        /* \"#utility.yul\":978:996   */\n      add\n        /* \"#utility.yul\":970:996   */\n      swap1\n      pop\n        /* \"#utility.yul\":1006:1077   */\n      tag_39\n        /* \"#utility.yul\":1074:1075   */\n      0x00\n        /* \"#utility.yul\":1063:1072   */\n      dup4\n        /* \"#utility.yul\":1059:1076   */\n      add\n        /* \"#utility.yul\":1050:1056   */\n      dup5\n        /* \"#utility.yul\":1006:1077   */\n      tag_30\n      jump\t// in\n    tag_39:\n        /* \"#utility.yul\":862:1084   */\n      swap3\n      swap2\n      pop\n      pop\n      jump\t// out\n        /* \"#utility.yul\":1090:1304   */\n    tag_14:\n        /* \"#utility.yul\":1179:1183   */\n      0x00\n        /* \"#utility.yul\":1217:1219   */\n      0x20\n        /* \"#utility.yul\":1206:1215   */\n      dup3\n        /* \"#utility.yul\":1202:1220   */\n      add\n        /* \"#utility.yul\":1194:1220   */\n      swap1\n      pop\n        /* \"#utility.yul\":1230:1297   */\n      tag_41\n        /* \"#utility.yul\":1294:1295   */\n      0x00\n        /* \"#utility.yul\":1283:1292   */\n      dup4\n        /* \"#utility.yul\":1279:1296   */\n      add\n        /* \"#utility.yul\":1270:1276   */\n      dup5\n        /* \"#utility.yul\":1230:1297   */\n      tag_34\n      jump\t// in\n    tag_41:\n        /* \"#utility.yul\":1090:1304   */\n      swap3\n      swap2\n      pop\n      pop\n      jump\t// out\n        /* \"#utility.yul\":1391:1628   */\n    tag_18:\n        /* \"#utility.yul\":1429:1432   */\n      0x00\n        /* \"#utility.yul\":1448:1466   */\n      tag_45\n        /* \"#utility.yul\":1464:1465   */\n      dup3\n        /* \"#utility.yul\":1448:1466   */\n      tag_37\n      jump\t// in\n    tag_45:\n        /* \"#utility.yul\":1443:1466   */\n      swap2\n      pop\n        /* \"#utility.yul\":1480:1498   */\n      tag_46\n        /* \"#utility.yul\":1496:1497   */\n      dup4\n        /* \"#utility.yul\":1480:1498   */\n      tag_37\n      jump\t// in\n    tag_46:\n        /* \"#utility.yul\":1475:1498   */\n      swap3\n      pop\n        /* \"#utility.yul\":1570:1571   */\n      dup3\n        /* \"#utility.yul\":1564:1568   */\n      0xff\n        /* \"#utility.yul\":1560:1572   */\n      sub\n        /* \"#utility.yul\":1557:1558   */\n      dup3\n        /* \"#utility.yul\":1554:1573   */\n      gt\n        /* \"#utility.yul\":1551:1596   */\n      iszero\n      tag_47\n      jumpi\n        /* \"#utility.yul\":1576:1594   */\n      tag_48\n      tag_49\n      jump\t// in\n    tag_48:\n        /* \"#utility.yul\":1551:1596   */\n    tag_47:\n        /* \"#utility.yul\":1620:1621   */\n      dup3\n        /* \"#utility.yul\":1617:1618   */\n      dup3\n        /* \"#utility.yul\":1613:1622   */\n      add\n        /* \"#utility.yul\":1606:1622   */\n      swap1\n      pop\n        /* \"#utility.yul\":1391:1628   */\n      swap3\n      swap2\n      pop\n      pop\n      jump\t// out\n        /* \"#utility.yul\":1634:1711   */\n    tag_33:\n        /* \"#utility.yul\":1671:1678   */\n      0x00\n        /* \"#utility.yul\":1700:1705   */\n      dup2\n        /* \"#utility.yul\":1689:1705   */\n      swap1\n      pop\n        /* \"#utility.yul\":1634:1711   */\n      swap2\n      swap1\n      pop\n      jump\t// out\n        /* \"#utility.yul\":1717:1803   */\n    tag_37:\n        /* \"#utility.yul\":1752:1759   */\n      0x00\n        /* \"#utility.yul\":1792:1796   */\n      0xff\n        /* \"#utility.yul\":1785:1790   */\n      dup3\n        /* \"#utility.yul\":1781:1797   */\n      and\n        /* \"#utility.yul\":1770:1797   */\n      swap1\n      pop\n        /* \"#utility.yul\":1717:1803   */\n      swap2\n      swap1\n      pop\n      jump\t// out\n        /* \"#utility.yul\":1809:1989   */\n    tag_49:\n        /* \"#utility.yul\":1857:1934   */\n      0x4e487b7100000000000000000000000000000000000000000000000000000000\n        /* \"#utility.yul\":1854:1855   */\n      0x00\n        /* \"#utility.yul\":1847:1935   */\n      mstore\n        /* \"#utility.yul\":1954:1958   */\n      0x11\n        /* \"#utility.yul\":1951:1952   */\n      0x04\n        /* \"#utility.yul\":1944:1959   */\n      mstore\n        /* \"#utility.yul\":1978:1982   */\n      0x24\n        /* \"#utility.yul\":1975:1976   */\n      0x00\n        /* \"#utility.yul\":1968:1983   */\n      revert\n        /* \"#utility.yul\":2118:2235   */\n    tag_27:\n        /* \"#utility.yul\":2227:2228   */\n      0x00\n        /* \"#utility.yul\":2224:2225   */\n      dup1\n        /* \"#utility.yul\":2217:2229   */\n      revert\n        /* \"#utility.yul\":2241:2359   */\n    tag_23:\n        /* \"#utility.yul\":2312:2334   */\n      tag_57\n        /* \"#utility.yul\":2328:2333   */\n      dup2\n        /* \"#utility.yul\":2312:2334   */\n      tag_37\n      jump\t// in\n    tag_57:\n        /* \"#utility.yul\":2305:2310   */\n      dup2\n        /* \"#utility.yul\":2302:2335   */\n      eq\n        /* \"#utility.yul\":2292:2353   */\n      tag_58\n      jumpi\n        /* \"#utility.yul\":2349:2350   */\n      0x00\n        /* \"#utility.yul\":2346:2347   */\n      dup1\n        /* \"#utility.yul\":2339:2351   */\n      revert\n        /* \"#utility.yul\":2292:2353   */\n    tag_58:\n        /* \"#utility.yul\":2241:2359   */\n      pop\n      jump\t// out\n\n    auxdata: 0xa264697066735822122011b20f19e15c9017edb4ba14d343bb145c4310be62e5dad5dd1b0084901022a664736f6c63430008070033\n}\n",
				"bytecode": {
					"linkReferences": {},
					"object": "608060405234801561001057600080fd5b50610236806100206000396000f3fe608060405234801561001057600080fd5b50600436106100365760003560e01c806312065fe01461003b578063bb4e3f4d14610059575b600080fd5b610043610089565b6040516100509190610131565b60405180910390f35b610073600480360381019061006e91906100d3565b6100a8565b604051610080919061014c565b60405180910390f35b60003373ffffffffffffffffffffffffffffffffffffffff1631905090565b600081836100b69190610167565b905092915050565b6000813590506100cd816101e9565b92915050565b600080604083850312156100ea576100e96101e4565b5b60006100f8858286016100be565b9250506020610109858286016100be565b9150509250929050565b61011c8161019e565b82525050565b61012b816101a8565b82525050565b60006020820190506101466000830184610113565b92915050565b60006020820190506101616000830184610122565b92915050565b6000610172826101a8565b915061017d836101a8565b92508260ff03821115610193576101926101b5565b5b828201905092915050565b6000819050919050565b600060ff82169050919050565b7f4e487b7100000000000000000000000000000000000000000000000000000000600052601160045260246000fd5b600080fd5b6101f2816101a8565b81146101fd57600080fd5b5056fea264697066735822122011b20f19e15c9017edb4ba14d343bb145c4310be62e5dad5dd1b0084901022a664736f6c63430008070033",
					"opcodes": "PUSH1 0x80 PUSH1 0x40 MSTORE CALLVALUE DUP1 ISZERO PUSH2 0x10 JUMPI PUSH1 0x0 DUP1 REVERT JUMPDEST POP PUSH2 0x236 DUP1 PUSH2 0x20 PUSH1 0x0 CODECOPY PUSH1 0x0 RETURN INVALID PUSH1 0x80 PUSH1 0x40 MSTORE CALLVALUE DUP1 ISZERO PUSH2 0x10 JUMPI PUSH1 0x0 DUP1 REVERT JUMPDEST POP PUSH1 0x4 CALLDATASIZE LT PUSH2 0x36 JUMPI PUSH1 0x0 CALLDATALOAD PUSH1 0xE0 SHR DUP1 PUSH4 0x12065FE0 EQ PUSH2 0x3B JUMPI DUP1 PUSH4 0xBB4E3F4D EQ PUSH2 0x59 JUMPI JUMPDEST PUSH1 0x0 DUP1 REVERT JUMPDEST PUSH2 0x43 PUSH2 0x89 JUMP JUMPDEST PUSH1 0x40 MLOAD PUSH2 0x50 SWAP2 SWAP1 PUSH2 0x131 JUMP JUMPDEST PUSH1 0x40 MLOAD DUP1 SWAP2 SUB SWAP1 RETURN JUMPDEST PUSH2 0x73 PUSH1 0x4 DUP1 CALLDATASIZE SUB DUP2 ADD SWAP1 PUSH2 0x6E SWAP2 SWAP1 PUSH2 0xD3 JUMP JUMPDEST PUSH2 0xA8 JUMP JUMPDEST PUSH1 0x40 MLOAD PUSH2 0x80 SWAP2 SWAP1 PUSH2 0x14C JUMP JUMPDEST PUSH1 0x40 MLOAD DUP1 SWAP2 SUB SWAP1 RETURN JUMPDEST PUSH1 0x0 CALLER PUSH20 0xFFFFFFFFFFFFFFFFFFFFFFFFFFFFFFFFFFFFFFFF AND BALANCE SWAP1 POP SWAP1 JUMP JUMPDEST PUSH1 0x0 DUP2 DUP4 PUSH2 0xB6 SWAP2 SWAP1 PUSH2 0x167 JUMP JUMPDEST SWAP1 POP SWAP3 SWAP2 POP POP JUMP JUMPDEST PUSH1 0x0 DUP2 CALLDATALOAD SWAP1 POP PUSH2 0xCD DUP2 PUSH2 0x1E9 JUMP JUMPDEST SWAP3 SWAP2 POP POP JUMP JUMPDEST PUSH1 0x0 DUP1 PUSH1 0x40 DUP4 DUP6 SUB SLT ISZERO PUSH2 0xEA JUMPI PUSH2 0xE9 PUSH2 0x1E4 JUMP JUMPDEST JUMPDEST PUSH1 0x0 PUSH2 0xF8 DUP6 DUP3 DUP7 ADD PUSH2 0xBE JUMP JUMPDEST SWAP3 POP POP PUSH1 0x20 PUSH2 0x109 DUP6 DUP3 DUP7 ADD PUSH2 0xBE JUMP JUMPDEST SWAP2 POP POP SWAP3 POP SWAP3 SWAP1 POP JUMP JUMPDEST PUSH2 0x11C DUP2 PUSH2 0x19E JUMP JUMPDEST DUP3 MSTORE POP POP JUMP JUMPDEST PUSH2 0x12B DUP2 PUSH2 0x1A8 JUMP JUMPDEST DUP3 MSTORE POP POP JUMP JUMPDEST PUSH1 0x0 PUSH1 0x20 DUP3 ADD SWAP1 POP PUSH2 0x146 PUSH1 0x0 DUP4 ADD DUP5 PUSH2 0x113 JUMP JUMPDEST SWAP3 SWAP2 POP POP JUMP JUMPDEST PUSH1 0x0 PUSH1 0x20 DUP3 ADD SWAP1 POP PUSH2 0x161 PUSH1 0x0 DUP4 ADD DUP5 PUSH2 0x122 JUMP JUMPDEST SWAP3 SWAP2 POP POP JUMP JUMPDEST PUSH1 0x0 PUSH2 0x172 DUP3 PUSH2 0x1A8 JUMP JUMPDEST SWAP2 POP PUSH2 0x17D DUP4 PUSH2 0x1A8 JUMP JUMPDEST SWAP3 POP DUP3 PUSH1 0xFF SUB DUP3 GT ISZERO PUSH2 0x193 JUMPI PUSH2 0x192 PUSH2 0x1B5 JUMP JUMPDEST JUMPDEST DUP3 DUP3 ADD SWAP1 POP SWAP3 SWAP2 POP POP JUMP JUMPDEST PUSH1 0x0 DUP2 SWAP1 POP SWAP2 SWAP1 POP JUMP JUMPDEST PUSH1 0x0 PUSH1 0xFF DUP3 AND SWAP1 POP SWAP2 SWAP1 POP JUMP JUMPDEST PUSH32 0x4E487B7100000000000000000000000000000000000000000000000000000000 PUSH1 0x0 MSTORE PUSH1 0x11 PUSH1 0x4 MSTORE PUSH1 0x24 PUSH1 0x0 REVERT JUMPDEST PUSH1 0x0 DUP1 REVERT JUMPDEST PUSH2 0x1F2 DUP2 PUSH2 0x1A8 JUMP JUMPDEST DUP2 EQ PUSH2 0x1FD JUMPI PUSH1 0x0 DUP1 REVERT JUMPDEST POP JUMP INVALID LOG2 PUSH5 0x6970667358 0x22 SLT KECCAK256 GT 0xB2 0xF NOT 0xE1 0x5C SWAP1 OR 0xED 0xB4 0xBA EQ 0xD3 NUMBER 0xBB EQ 0x5C NUMBER LT 0xBE PUSH3 0xE5DAD5 0xDD SHL STOP DUP5 SWAP1 LT 0x22 0xA6 PUSH5 0x736F6C6343 STOP ADDMOD SMOD STOP CALLER "
				},
				"gasEstimates": {
					"creation": {
						"codeDepositCost": "113200",
						"executionCost": "159",
						"totalCost": "113359"
					},
					"external": {
						"add(uint8,uint8)": "infinite",
						"getBalance()": "2920"
					}
				},
				"methodIdentifiers": {
					"add(uint8,uint8)": "bb4e3f4d",
					"getBalance()": "12065fe0"
				}
			},
			"storageLayout": {
				"storage": [],
				"types": null
			},
			"userdoc": {
				"kind": "user",
				"methods": {},
				"version": 1
			}
		}
	}
}