{
	"contracts/Test.sol": {
		"Test": {
			"abi": [
				{
					"inputs": [
						{
							"internalType": "uint8",
							"name": "a",
							"type": "uint8"
						},
						{
							"internalType": "uint8",
							"name": "b",
							"type": "uint8"
						}
					],
					"name": "add",
					"outputs": [
						{
							"internalType": "uint8",
							"name": "",
							"type": "uint8"
						}
					],
					"stateMutability": "pure",
					"type": "function"
				},
				{
					"inputs": [],
					"name": "getBalance",
					"outputs": [
						{
							"internalType": "uint256",
							"name": "",
							"type": "uint256"
						}
					],
					"stateMutability": "view",
					"type": "function"
				},
				{
					"inputs": [],
					"name": "test",
					"outputs": [
						{
							"internalType": "uint256",
							"name": "",
							"type": "uint256"
						}
					],
					"stateMutability": "nonpayable",
					"type": "function"
				},
				{
					"inputs": [
						{
							"internalType": "address payable",
							"name": "_receive",
							"type": "address"
						},
						{
							"internalType": "uint256",
							"name": "amount",
							"type": "uint256"
						}
					],
					"name": "transfer",
					"outputs": [],
					"stateMutability": "payable",
					"type": "function"
				}
			],
			"devdoc": {
				"kind": "dev",
				"methods": {},
				"version": 1
			},
			"evm": {
				"assembly": "    /* \"contracts/Test.sol\":98:703  contract Test {\r... */\n  mstore(0x40, 0x80)\n  callvalue\n  dup1\n  iszero\n  tag_1\n  jumpi\n  0x00\n  dup1\n  revert\ntag_1:\n  pop\n  dataSize(sub_0)\n  dup1\n  dataOffset(sub_0)\n  0x00\n  codecopy\n  0x00\n  return\nstop\n\nsub_0: assembly {\n        /* \"contracts/Test.sol\":98:703  contract Test {\r... */\n      mstore(0x40, 0x80)\n      jumpi(tag_1, lt(calldatasize, 0x04))\n      shr(0xe0, calldataload(0x00))\n      dup1\n      0x12065fe0\n      eq\n      tag_2\n      jumpi\n      dup1\n      0xa9059cbb\n      eq\n      tag_3\n      jumpi\n      dup1\n      0xbb4e3f4d\n      eq\n      tag_4\n      jumpi\n      dup1\n      0xf8a8fd6d\n      eq\n      tag_5\n      jumpi\n    tag_1:\n      0x00\n      dup1\n      revert\n        /* \"contracts/Test.sol\":216:308  function getBalance() public view returns (uint){\r... */\n    tag_2:\n      callvalue\n      dup1\n      iszero\n      tag_6\n      jumpi\n      0x00\n      dup1\n      revert\n    tag_6:\n      pop\n      tag_7\n      tag_8\n      jump\t// in\n    tag_7:\n      mload(0x40)\n      tag_9\n      swap2\n      swap1\n      tag_10\n      jump\t// in\n    tag_9:\n      mload(0x40)\n      dup1\n      swap2\n      sub\n      swap1\n      return\n        /* \"contracts/Test.sol\":316:481  function transfer(address payable _receive, uint amount) public payable {\r... */\n    tag_3:\n      tag_11\n      0x04\n      dup1\n      calldatasize\n      sub\n      dup2\n      add\n      swap1\n      tag_12\n      swap2\n      swap1\n      tag_13\n      jump\t// in\n    tag_12:\n      tag_14\n      jump\t// in\n    tag_11:\n      stop\n        /* \"contracts/Test.sol\":119:208  function add(uint8 a, uint8 b) public pure returns (uint8){\r... */\n    tag_4:\n      callvalue\n      dup1\n      iszero\n      tag_15\n      jumpi\n      0x00\n      dup1\n      revert\n    tag_15:\n      pop\n      tag_16\n      0x04\n      dup1\n      calldatasize\n      sub\n      dup2\n      add\n      swap1\n      tag_17\n      swap2\n      swap1\n      tag_18\n      jump\t// in\n    tag_17:\n      tag_19\n      jump\t// in\n    tag_16:\n      mload(0x40)\n      tag_20\n      swap2\n      swap1\n      tag_21\n      jump\t// in\n    tag_20:\n      mload(0x40)\n      dup1\n      swap2\n      sub\n      swap1\n      return\n        /* \"contracts/Test.sol\":489:700  function test() public returns (uint){\r... */\n    tag_5:\n      callvalue\n      dup1\n      iszero\n      tag_22\n      jumpi\n      0x00\n      dup1\n      revert\n    tag_22:\n      pop\n      tag_23\n      tag_24\n      jump\t// in\n    tag_23:\n      mload(0x40)\n      tag_25\n      swap2\n      swap1\n      tag_10\n      jump\t// in\n    tag_25:\n      mload(0x40)\n      dup1\n      swap2\n      sub\n      swap1\n      return\n        /* \"contracts/Test.sol\":216:308  function getBalance() public view returns (uint){\r... */\n    tag_8:\n        /* \"contracts/Test.sol\":259:263  uint */\n      0x00\n        /* \"contracts/Test.sol\":282:292  msg.sender */\n      caller\n        /* \"contracts/Test.sol\":282:300  msg.sender.balance */\n      0xffffffffffffffffffffffffffffffffffffffff\n      and\n      balance\n        /* \"contracts/Test.sol\":275:300  return msg.sender.balance */\n      swap1\n      pop\n        /* \"contracts/Test.sol\":216:308  function getBalance() public view returns (uint){\r... */\n      swap1\n      jump\t// out\n        /* \"contracts/Test.sol\":316:481  function transfer(address payable _receive, uint amount) public payable {\r... */\n    tag_14:\n        /* \"contracts/Test.sol\":399:430  console.log(msg.sender.balance) */\n      tag_28\n        /* \"contracts/Test.sol\":411:421  msg.sender */\n      caller\n        /* \"contracts/Test.sol\":411:429  msg.sender.balance */\n      0xffffffffffffffffffffffffffffffffffffffff\n      and\n      balance\n        /* \"contracts/Test.sol\":399:410  console.log */\n      tag_29\n        /* \"contracts/Test.sol\":399:430  console.log(msg.sender.balance) */\n      jump\t// in\n    tag_28:\n        /* \"contracts/Test.sol\":448:456  _receive */\n      dup2\n        /* \"contracts/Test.sol\":448:465  _receive.transfer */\n      0xffffffffffffffffffffffffffffffffffffffff\n      and\n        /* \"contracts/Test.sol\":448:473  _receive.transfer(amount) */\n      0x08fc\n        /* \"contracts/Test.sol\":466:472  amount */\n      dup3\n        /* \"contracts/Test.sol\":448:473  _receive.transfer(amount) */\n      swap1\n      dup2\n      iszero\n      mul\n      swap1\n      mload(0x40)\n      0x00\n      mload(0x40)\n      dup1\n      dup4\n      sub\n      dup2\n      dup6\n      dup9\n      dup9\n      call\n      swap4\n      pop\n      pop\n      pop\n      pop\n      iszero\n      dup1\n      iszero\n      tag_31\n      jumpi\n      returndatasize\n      0x00\n      dup1\n      returndatacopy\n      revert(0x00, returndatasize)\n    tag_31:\n      pop\n        /* \"contracts/Test.sol\":316:481  function transfer(address payable _receive, uint amount) public payable {\r... */\n      pop\n      pop\n      jump\t// out\n        /* \"contracts/Test.sol\":119:208  function add(uint8 a, uint8 b) public pure returns (uint8){\r... */\n    tag_19:\n        /* \"contracts/Test.sol\":171:176  uint8 */\n      0x00\n        /* \"contracts/Test.sol\":199:200  b */\n      dup2\n        /* \"contracts/Test.sol\":195:196  a */\n      dup4\n        /* \"contracts/Test.sol\":195:200  a + b */\n      tag_33\n      swap2\n      swap1\n      tag_34\n      jump\t// in\n    tag_33:\n        /* \"contracts/Test.sol\":188:200  return a + b */\n      swap1\n      pop\n        /* \"contracts/Test.sol\":119:208  function add(uint8 a, uint8 b) public pure returns (uint8){\r... */\n      swap3\n      swap2\n      pop\n      pop\n      jump\t// out\n        /* \"contracts/Test.sol\":489:700  function test() public returns (uint){\r... */\n    tag_24:\n        /* \"contracts/Test.sol\":521:525  uint */\n      0x00\n        /* \"contracts/Test.sol\":537:552  uint[] memory a */\n      dup1\n        /* \"contracts/Test.sol\":566:567  1 */\n      0x01\n        /* \"contracts/Test.sol\":555:568  new uint[](1) */\n      0xffffffffffffffff\n      dup2\n      gt\n      iszero\n      tag_36\n      jumpi\n      tag_37\n      tag_38\n      jump\t// in\n    tag_37:\n    tag_36:\n      mload(0x40)\n      swap1\n      dup1\n      dup3\n      mstore\n      dup1\n      0x20\n      mul\n      0x20\n      add\n      dup3\n      add\n      0x40\n      mstore\n      dup1\n      iszero\n      tag_39\n      jumpi\n      dup2\n      0x20\n      add\n      0x20\n      dup3\n      mul\n      dup1\n      calldatasize\n      dup4\n      calldatacopy\n      dup1\n      dup3\n      add\n      swap2\n      pop\n      pop\n      swap1\n      pop\n    tag_39:\n      pop\n        /* \"contracts/Test.sol\":537:568  uint[] memory a = new uint[](1) */\n      swap1\n      pop\n        /* \"contracts/Test.sol\":586:587  1 */\n      0x01\n        /* \"contracts/Test.sol\":579:580  a */\n      dup2\n        /* \"contracts/Test.sol\":581:582  0 */\n      0x00\n        /* \"contracts/Test.sol\":579:583  a[0] */\n      dup2\n      mload\n      dup2\n      lt\n      tag_40\n      jumpi\n      tag_41\n      tag_42\n      jump\t// in\n    tag_41:\n    tag_40:\n      0x20\n      mul\n      0x20\n      add\n      add\n        /* \"contracts/Test.sol\":579:587  a[0] = 1 */\n      dup2\n      dup2\n      mstore\n      pop\n      pop\n        /* \"contracts/Test.sol\":598:613  uint[] memory b */\n      0x00\n        /* \"contracts/Test.sol\":616:617  a */\n      dup2\n        /* \"contracts/Test.sol\":598:617  uint[] memory b = a */\n      swap1\n      pop\n        /* \"contracts/Test.sol\":635:636  2 */\n      0x02\n        /* \"contracts/Test.sol\":628:629  b */\n      dup2\n        /* \"contracts/Test.sol\":630:631  0 */\n      0x00\n        /* \"contracts/Test.sol\":628:632  b[0] */\n      dup2\n      mload\n      dup2\n      lt\n      tag_43\n      jumpi\n      tag_44\n      tag_42\n      jump\t// in\n    tag_44:\n    tag_43:\n      0x20\n      mul\n      0x20\n      add\n      add\n        /* \"contracts/Test.sol\":628:636  b[0] = 2 */\n      dup2\n      dup2\n      mstore\n      pop\n      pop\n        /* \"contracts/Test.sol\":647:664  console.log(a[0]) */\n      tag_45\n        /* \"contracts/Test.sol\":659:660  a */\n      dup3\n        /* \"contracts/Test.sol\":661:662  0 */\n      0x00\n        /* \"contracts/Test.sol\":659:663  a[0] */\n      dup2\n      mload\n      dup2\n      lt\n      tag_46\n      jumpi\n      tag_47\n      tag_42\n      jump\t// in\n    tag_47:\n    tag_46:\n      0x20\n      mul\n      0x20\n      add\n      add\n      mload\n        /* \"contracts/Test.sol\":647:658  console.log */\n      tag_29\n        /* \"contracts/Test.sol\":647:664  console.log(a[0]) */\n      jump\t// in\n    tag_45:\n        /* \"contracts/Test.sol\":675:692  console.log(b[0]) */\n      tag_48\n        /* \"contracts/Test.sol\":687:688  b */\n      dup2\n        /* \"contracts/Test.sol\":689:690  0 */\n      0x00\n        /* \"contracts/Test.sol\":687:691  b[0] */\n      dup2\n      mload\n      dup2\n      lt\n      tag_49\n      jumpi\n      tag_50\n      tag_42\n      jump\t// in\n    tag_50:\n    tag_49:\n      0x20\n      mul\n      0x20\n      add\n      add\n      mload\n        /* \"contracts/Test.sol\":675:686  console.log */\n      tag_29\n        /* \"contracts/Test.sol\":675:692  console.log(b[0]) */\n      jump\t// in\n    tag_48:\n        /* \"contracts/Test.sol\":526:700  {\r... */\n      pop\n      pop\n        /* \"contracts/Test.sol\":489:700  function test() public returns (uint){\r... */\n      swap1\n      jump\t// out\n        /* \"hardhat/console.sol\":4950:5051  function log(uint p0) internal view {... */\n    tag_29:\n        /* \"hardhat/console.sol\":4990:5047  _sendLogPayload(abi.encodeWithSignature(\"log(uint)\", p0)) */\n      tag_52\n        /* \"hardhat/console.sol\":5043:5045  p0 */\n      dup2\n        /* \"hardhat/console.sol\":5006:5046  abi.encodeWithSignature(\"log(uint)\", p0) */\n      add(0x24, mload(0x40))\n      tag_53\n      swap2\n      swap1\n      tag_10\n      jump\t// in\n    tag_53:\n      mload(0x40)\n      0x20\n      dup2\n      dup4\n      sub\n      sub\n      dup2\n      mstore\n      swap1\n      0x40\n      mstore\n      and(not(0xffffffffffffffffffffffffffffffffffffffffffffffffffffffff), 0xf5b1bba900000000000000000000000000000000000000000000000000000000)\n      0x20\n      dup3\n      add\n      dup1\n      mload\n      0xffffffffffffffffffffffffffffffffffffffffffffffffffffffff\n      dup4\n      dup2\n      dup4\n      and\n      or\n      dup4\n      mstore\n      pop\n      pop\n      pop\n      pop\n        /* \"hardhat/console.sol\":4990:5005  _sendLogPayload */\n      tag_54\n        /* \"hardhat/console.sol\":4990:5047  _sendLogPayload(abi.encodeWithSignature(\"log(uint)\", p0)) */\n      jump\t// in\n    tag_52:\n        /* \"hardhat/console.sol\":4950:5051  function log(uint p0) internal view {... */\n      pop\n      jump\t// out\n        /* \"hardhat/console.sol\":176:464  function _sendLogPayload(bytes memory payload) private view {... */\n    tag_54:\n        /* \"hardhat/console.sol\":240:261  uint256 payloadLength */\n      0x00\n        /* \"hardhat/console.sol\":264:271  payload */\n      dup2\n        /* \"hardhat/console.sol\":264:278  payload.length */\n      mload\n        /* \"hardhat/console.sol\":240:278  uint256 payloadLength = payload.length */\n      swap1\n      pop\n        /* \"hardhat/console.sol\":282:304  address consoleAddress */\n      0x00\n        /* \"hardhat/console.sol\":129:171  0x000000000000000000636F6e736F6c652e6c6f67 */\n      0x636f6e736f6c652e6c6f67\n        /* \"hardhat/console.sol\":282:322  address consoleAddress = CONSOLE_ADDRESS */\n      swap1\n      pop\n        /* \"hardhat/console.sol\":373:375  32 */\n      0x20\n        /* \"hardhat/console.sol\":364:371  payload */\n      dup4\n        /* \"hardhat/console.sol\":360:376  add(payload, 32) */\n      add\n        /* \"hardhat/console.sol\":455:456  0 */\n      0x00\n        /* \"hardhat/console.sol\":452:453  0 */\n      dup1\n        /* \"hardhat/console.sol\":437:450  payloadLength */\n      dup5\n        /* \"hardhat/console.sol\":423:435  payloadStart */\n      dup4\n        /* \"hardhat/console.sol\":407:421  consoleAddress */\n      dup6\n        /* \"hardhat/console.sol\":400:405  gas() */\n      gas\n        /* \"hardhat/console.sol\":389:457  staticcall(gas(), consoleAddress, payloadStart, payloadLength, 0, 0) */\n      staticcall\n        /* \"hardhat/console.sol\":335:461  {... */\n      pop\n      pop\n      pop\n      pop\n        /* \"hardhat/console.sol\":176:464  function _sendLogPayload(bytes memory payload) private view {... */\n      pop\n      jump\t// out\n        /* \"#utility.yul\":7:162   */\n    tag_57:\n        /* \"#utility.yul\":61:66   */\n      0x00\n        /* \"#utility.yul\":99:105   */\n      dup2\n        /* \"#utility.yul\":86:106   */\n      calldataload\n        /* \"#utility.yul\":77:106   */\n      swap1\n      pop\n        /* \"#utility.yul\":115:156   */\n      tag_59\n        /* \"#utility.yul\":150:155   */\n      dup2\n        /* \"#utility.yul\":115:156   */\n      tag_60\n      jump\t// in\n    tag_59:\n        /* \"#utility.yul\":7:162   */\n      swap3\n      swap2\n      pop\n      pop\n      jump\t// out\n        /* \"#utility.yul\":168:307   */\n    tag_61:\n        /* \"#utility.yul\":214:219   */\n      0x00\n        /* \"#utility.yul\":252:258   */\n      dup2\n        /* \"#utility.yul\":239:259   */\n      calldataload\n        /* \"#utility.yul\":230:259   */\n      swap1\n      pop\n        /* \"#utility.yul\":268:301   */\n      tag_63\n        /* \"#utility.yul\":295:300   */\n      dup2\n        /* \"#utility.yul\":268:301   */\n      tag_64\n      jump\t// in\n    tag_63:\n        /* \"#utility.yul\":168:307   */\n      swap3\n      swap2\n      pop\n      pop\n      jump\t// out\n        /* \"#utility.yul\":313:448   */\n    tag_65:\n        /* \"#utility.yul\":357:362   */\n      0x00\n        /* \"#utility.yul\":395:401   */\n      dup2\n        /* \"#utility.yul\":382:402   */\n      calldataload\n        /* \"#utility.yul\":373:402   */\n      swap1\n      pop\n        /* \"#utility.yul\":411:442   */\n      tag_67\n        /* \"#utility.yul\":436:441   */\n      dup2\n        /* \"#utility.yul\":411:442   */\n      tag_68\n      jump\t// in\n    tag_67:\n        /* \"#utility.yul\":313:448   */\n      swap3\n      swap2\n      pop\n      pop\n      jump\t// out\n        /* \"#utility.yul\":454:944   */\n    tag_13:\n        /* \"#utility.yul\":530:536   */\n      0x00\n        /* \"#utility.yul\":538:544   */\n      dup1\n        /* \"#utility.yul\":587:589   */\n      0x40\n        /* \"#utility.yul\":575:584   */\n      dup4\n        /* \"#utility.yul\":566:573   */\n      dup6\n        /* \"#utility.yul\":562:585   */\n      sub\n        /* \"#utility.yul\":558:590   */\n      slt\n        /* \"#utility.yul\":555:674   */\n      iszero\n      tag_70\n      jumpi\n        /* \"#utility.yul\":593:672   */\n      tag_71\n      tag_72\n      jump\t// in\n    tag_71:\n        /* \"#utility.yul\":555:674   */\n    tag_70:\n        /* \"#utility.yul\":713:714   */\n      0x00\n        /* \"#utility.yul\":738:799   */\n      tag_73\n        /* \"#utility.yul\":791:798   */\n      dup6\n        /* \"#utility.yul\":782:788   */\n      dup3\n        /* \"#utility.yul\":771:780   */\n      dup7\n        /* \"#utility.yul\":767:789   */\n      add\n        /* \"#utility.yul\":738:799   */\n      tag_57\n      jump\t// in\n    tag_73:\n        /* \"#utility.yul\":728:799   */\n      swap3\n      pop\n        /* \"#utility.yul\":684:809   */\n      pop\n        /* \"#utility.yul\":848:850   */\n      0x20\n        /* \"#utility.yul\":874:927   */\n      tag_74\n        /* \"#utility.yul\":919:926   */\n      dup6\n        /* \"#utility.yul\":910:916   */\n      dup3\n        /* \"#utility.yul\":899:908   */\n      dup7\n        /* \"#utility.yul\":895:917   */\n      add\n        /* \"#utility.yul\":874:927   */\n      tag_61\n      jump\t// in\n    tag_74:\n        /* \"#utility.yul\":864:927   */\n      swap2\n      pop\n        /* \"#utility.yul\":819:937   */\n      pop\n        /* \"#utility.yul\":454:944   */\n      swap3\n      pop\n      swap3\n      swap1\n      pop\n      jump\t// out\n        /* \"#utility.yul\":950:1416   */\n    tag_18:\n        /* \"#utility.yul\":1014:1020   */\n      0x00\n        /* \"#utility.yul\":1022:1028   */\n      dup1\n        /* \"#utility.yul\":1071:1073   */\n      0x40\n        /* \"#utility.yul\":1059:1068   */\n      dup4\n        /* \"#utility.yul\":1050:1057   */\n      dup6\n        /* \"#utility.yul\":1046:1069   */\n      sub\n        /* \"#utility.yul\":1042:1074   */\n      slt\n        /* \"#utility.yul\":1039:1158   */\n      iszero\n      tag_76\n      jumpi\n        /* \"#utility.yul\":1077:1156   */\n      tag_77\n      tag_72\n      jump\t// in\n    tag_77:\n        /* \"#utility.yul\":1039:1158   */\n    tag_76:\n        /* \"#utility.yul\":1197:1198   */\n      0x00\n        /* \"#utility.yul\":1222:1273   */\n      tag_78\n        /* \"#utility.yul\":1265:1272   */\n      dup6\n        /* \"#utility.yul\":1256:1262   */\n      dup3\n        /* \"#utility.yul\":1245:1254   */\n      dup7\n        /* \"#utility.yul\":1241:1263   */\n      add\n        /* \"#utility.yul\":1222:1273   */\n      tag_65\n      jump\t// in\n    tag_78:\n        /* \"#utility.yul\":1212:1273   */\n      swap3\n      pop\n        /* \"#utility.yul\":1168:1283   */\n      pop\n        /* \"#utility.yul\":1322:1324   */\n      0x20\n        /* \"#utility.yul\":1348:1399   */\n      tag_79\n        /* \"#utility.yul\":1391:1398   */\n      dup6\n        /* \"#utility.yul\":1382:1388   */\n      dup3\n        /* \"#utility.yul\":1371:1380   */\n      dup7\n        /* \"#utility.yul\":1367:1389   */\n      add\n        /* \"#utility.yul\":1348:1399   */\n      tag_65\n      jump\t// in\n    tag_79:\n        /* \"#utility.yul\":1338:1399   */\n      swap2\n      pop\n        /* \"#utility.yul\":1293:1409   */\n      pop\n        /* \"#utility.yul\":950:1416   */\n      swap3\n      pop\n      swap3\n      swap1\n      pop\n      jump\t// out\n        /* \"#utility.yul\":1422:1540   */\n    tag_80:\n        /* \"#utility.yul\":1509:1533   */\n      tag_82\n        /* \"#utility.yul\":1527:1532   */\n      dup2\n        /* \"#utility.yul\":1509:1533   */\n      tag_83\n      jump\t// in\n    tag_82:\n        /* \"#utility.yul\":1504:1507   */\n      dup3\n        /* \"#utility.yul\":1497:1534   */\n      mstore\n        /* \"#utility.yul\":1422:1540   */\n      pop\n      pop\n      jump\t// out\n        /* \"#utility.yul\":1546:1658   */\n    tag_84:\n        /* \"#utility.yul\":1629:1651   */\n      tag_86\n        /* \"#utility.yul\":1645:1650   */\n      dup2\n        /* \"#utility.yul\":1629:1651   */\n      tag_87\n      jump\t// in\n    tag_86:\n        /* \"#utility.yul\":1624:1627   */\n      dup3\n        /* \"#utility.yul\":1617:1652   */\n      mstore\n        /* \"#utility.yul\":1546:1658   */\n      pop\n      pop\n      jump\t// out\n        /* \"#utility.yul\":1664:1886   */\n    tag_10:\n        /* \"#utility.yul\":1757:1761   */\n      0x00\n        /* \"#utility.yul\":1795:1797   */\n      0x20\n        /* \"#utility.yul\":1784:1793   */\n      dup3\n        /* \"#utility.yul\":1780:1798   */\n      add\n        /* \"#utility.yul\":1772:1798   */\n      swap1\n      pop\n        /* \"#utility.yul\":1808:1879   */\n      tag_89\n        /* \"#utility.yul\":1876:1877   */\n      0x00\n        /* \"#utility.yul\":1865:1874   */\n      dup4\n        /* \"#utility.yul\":1861:1878   */\n      add\n        /* \"#utility.yul\":1852:1858   */\n      dup5\n        /* \"#utility.yul\":1808:1879   */\n      tag_80\n      jump\t// in\n    tag_89:\n        /* \"#utility.yul\":1664:1886   */\n      swap3\n      swap2\n      pop\n      pop\n      jump\t// out\n        /* \"#utility.yul\":1892:2106   */\n    tag_21:\n        /* \"#utility.yul\":1981:1985   */\n      0x00\n        /* \"#utility.yul\":2019:2021   */\n      0x20\n        /* \"#utility.yul\":2008:2017   */\n      dup3\n        /* \"#utility.yul\":2004:2022   */\n      add\n        /* \"#utility.yul\":1996:2022   */\n      swap1\n      pop\n        /* \"#utility.yul\":2032:2099   */\n      tag_91\n        /* \"#utility.yul\":2096:2097   */\n      0x00\n        /* \"#utility.yul\":2085:2094   */\n      dup4\n        /* \"#utility.yul\":2081:2098   */\n      add\n        /* \"#utility.yul\":2072:2078   */\n      dup5\n        /* \"#utility.yul\":2032:2099   */\n      tag_84\n      jump\t// in\n    tag_91:\n        /* \"#utility.yul\":1892:2106   */\n      swap3\n      swap2\n      pop\n      pop\n      jump\t// out\n        /* \"#utility.yul\":2193:2430   */\n    tag_34:\n        /* \"#utility.yul\":2231:2234   */\n      0x00\n        /* \"#utility.yul\":2250:2268   */\n      tag_95\n        /* \"#utility.yul\":2266:2267   */\n      dup3\n        /* \"#utility.yul\":2250:2268   */\n      tag_87\n      jump\t// in\n    tag_95:\n        /* \"#utility.yul\":2245:2268   */\n      swap2\n      pop\n        /* \"#utility.yul\":2282:2300   */\n      tag_96\n        /* \"#utility.yul\":2298:2299   */\n      dup4\n        /* \"#utility.yul\":2282:2300   */\n      tag_87\n      jump\t// in\n    tag_96:\n        /* \"#utility.yul\":2277:2300   */\n      swap3\n      pop\n        /* \"#utility.yul\":2372:2373   */\n      dup3\n        /* \"#utility.yul\":2366:2370   */\n      0xff\n        /* \"#utility.yul\":2362:2374   */\n      sub\n        /* \"#utility.yul\":2359:2360   */\n      dup3\n        /* \"#utility.yul\":2356:2375   */\n      gt\n        /* \"#utility.yul\":2353:2398   */\n      iszero\n      tag_97\n      jumpi\n        /* \"#utility.yul\":2378:2396   */\n      tag_98\n      tag_99\n      jump\t// in\n    tag_98:\n        /* \"#utility.yul\":2353:2398   */\n    tag_97:\n        /* \"#utility.yul\":2422:2423   */\n      dup3\n        /* \"#utility.yul\":2419:2420   */\n      dup3\n        /* \"#utility.yul\":2415:2424   */\n      add\n        /* \"#utility.yul\":2408:2424   */\n      swap1\n      pop\n        /* \"#utility.yul\":2193:2430   */\n      swap3\n      swap2\n      pop\n      pop\n      jump\t// out\n        /* \"#utility.yul\":2436:2540   */\n    tag_100:\n        /* \"#utility.yul\":2481:2488   */\n      0x00\n        /* \"#utility.yul\":2510:2534   */\n      tag_102\n        /* \"#utility.yul\":2528:2533   */\n      dup3\n        /* \"#utility.yul\":2510:2534   */\n      tag_103\n      jump\t// in\n    tag_102:\n        /* \"#utility.yul\":2499:2534   */\n      swap1\n      pop\n        /* \"#utility.yul\":2436:2540   */\n      swap2\n      swap1\n      pop\n      jump\t// out\n        /* \"#utility.yul\":2546:2672   */\n    tag_103:\n        /* \"#utility.yul\":2583:2590   */\n      0x00\n        /* \"#utility.yul\":2623:2665   */\n      0xffffffffffffffffffffffffffffffffffffffff\n        /* \"#utility.yul\":2616:2621   */\n      dup3\n        /* \"#utility.yul\":2612:2666   */\n      and\n        /* \"#utility.yul\":2601:2666   */\n      swap1\n      pop\n        /* \"#utility.yul\":2546:2672   */\n      swap2\n      swap1\n      pop\n      jump\t// out\n        /* \"#utility.yul\":2678:2755   */\n    tag_83:\n        /* \"#utility.yul\":2715:2722   */\n      0x00\n        /* \"#utility.yul\":2744:2749   */\n      dup2\n        /* \"#utility.yul\":2733:2749   */\n      swap1\n      pop\n        /* \"#utility.yul\":2678:2755   */\n      swap2\n      swap1\n      pop\n      jump\t// out\n        /* \"#utility.yul\":2761:2847   */\n    tag_87:\n        /* \"#utility.yul\":2796:2803   */\n      0x00\n        /* \"#utility.yul\":2836:2840   */\n      0xff\n        /* \"#utility.yul\":2829:2834   */\n      dup3\n        /* \"#utility.yul\":2825:2841   */\n      and\n        /* \"#utility.yul\":2814:2841   */\n      swap1\n      pop\n        /* \"#utility.yul\":2761:2847   */\n      swap2\n      swap1\n      pop\n      jump\t// out\n        /* \"#utility.yul\":2853:3033   */\n    tag_99:\n        /* \"#utility.yul\":2901:2978   */\n      0x4e487b7100000000000000000000000000000000000000000000000000000000\n        /* \"#utility.yul\":2898:2899   */\n      0x00\n        /* \"#utility.yul\":2891:2979   */\n      mstore\n        /* \"#utility.yul\":2998:3002   */\n      0x11\n        /* \"#utility.yul\":2995:2996   */\n      0x04\n        /* \"#utility.yul\":2988:3003   */\n      mstore\n        /* \"#utility.yul\":3022:3026   */\n      0x24\n        /* \"#utility.yul\":3019:3020   */\n      0x00\n        /* \"#utility.yul\":3012:3027   */\n      revert\n        /* \"#utility.yul\":3039:3219   */\n    tag_42:\n        /* \"#utility.yul\":3087:3164   */\n      0x4e487b7100000000000000000000000000000000000000000000000000000000\n        /* \"#utility.yul\":3084:3085   */\n      0x00\n        /* \"#utility.yul\":3077:3165   */\n      mstore\n        /* \"#utility.yul\":3184:3188   */\n      0x32\n        /* \"#utility.yul\":3181:3182   */\n      0x04\n        /* \"#utility.yul\":3174:3189   */\n      mstore\n        /* \"#utility.yul\":3208:3212   */\n      0x24\n        /* \"#utility.yul\":3205:3206   */\n      0x00\n        /* \"#utility.yul\":3198:3213   */\n      revert\n        /* \"#utility.yul\":3225:3405   */\n    tag_38:\n        /* \"#utility.yul\":3273:3350   */\n      0x4e487b7100000000000000000000000000000000000000000000000000000000\n        /* \"#utility.yul\":3270:3271   */\n      0x00\n        /* \"#utility.yul\":3263:3351   */\n      mstore\n        /* \"#utility.yul\":3370:3374   */\n      0x41\n        /* \"#utility.yul\":3367:3368   */\n      0x04\n        /* \"#utility.yul\":3360:3375   */\n      mstore\n        /* \"#utility.yul\":3394:3398   */\n      0x24\n        /* \"#utility.yul\":3391:3392   */\n      0x00\n        /* \"#utility.yul\":3384:3399   */\n      revert\n        /* \"#utility.yul\":3534:3651   */\n    tag_72:\n        /* \"#utility.yul\":3643:3644   */\n      0x00\n        /* \"#utility.yul\":3640:3641   */\n      dup1\n        /* \"#utility.yul\":3633:3645   */\n      revert\n        /* \"#utility.yul\":3657:3795   */\n    tag_60:\n        /* \"#utility.yul\":3738:3770   */\n      tag_114\n        /* \"#utility.yul\":3764:3769   */\n      dup2\n        /* \"#utility.yul\":3738:3770   */\n      tag_100\n      jump\t// in\n    tag_114:\n        /* \"#utility.yul\":3731:3736   */\n      dup2\n        /* \"#utility.yul\":3728:3771   */\n      eq\n        /* \"#utility.yul\":3718:3789   */\n      tag_115\n      jumpi\n        /* \"#utility.yul\":3785:3786   */\n      0x00\n        /* \"#utility.yul\":3782:3783   */\n      dup1\n        /* \"#utility.yul\":3775:3787   */\n      revert\n        /* \"#utility.yul\":3718:3789   */\n    tag_115:\n        /* \"#utility.yul\":3657:3795   */\n      pop\n      jump\t// out\n        /* \"#utility.yul\":3801:3923   */\n    tag_64:\n        /* \"#utility.yul\":3874:3898   */\n      tag_117\n        /* \"#utility.yul\":3892:3897   */\n      dup2\n        /* \"#utility.yul\":3874:3898   */\n      tag_83\n      jump\t// in\n    tag_117:\n        /* \"#utility.yul\":3867:3872   */\n      dup2\n        /* \"#utility.yul\":3864:3899   */\n      eq\n        /* \"#utility.yul\":3854:3917   */\n      tag_118\n      jumpi\n        /* \"#utility.yul\":3913:3914   */\n      0x00\n        /* \"#utility.yul\":3910:3911   */\n      dup1\n        /* \"#utility.yul\":3903:3915   */\n      revert\n        /* \"#utility.yul\":3854:3917   */\n    tag_118:\n        /* \"#utility.yul\":3801:3923   */\n      pop\n      jump\t// out\n        /* \"#utility.yul\":3929:4047   */\n    tag_68:\n        /* \"#utility.yul\":4000:4022   */\n      tag_120\n        /* \"#utility.yul\":4016:4021   */\n      dup2\n        /* \"#utility.yul\":4000:4022   */\n      tag_87\n      jump\t// in\n    tag_120:\n        /* \"#utility.yul\":3993:3998   */\n      dup2\n        /* \"#utility.yul\":3990:4023   */\n      eq\n        /* \"#utility.yul\":3980:4041   */\n      tag_121\n      jumpi\n        /* \"#utility.yul\":4037:4038   */\n      0x00\n        /* \"#utility.yul\":4034:4035   */\n      dup1\n        /* \"#utility.yul\":4027:4039   */\n      revert\n        /* \"#utility.yul\":3980:4041   */\n    tag_121:\n        /* \"#utility.yul\":3929:4047   */\n      pop\n      jump\t// out\n\n    auxdata: 0xa26469706673582212203a855da07cbe98e75f6ed986322a9cf4d31d608a6a6a7f4aa07fb0a4617aa58c64736f6c63430008070033\n}\n",
				"bytecode": {
					"linkReferences": {},
					"object": "608060405234801561001057600080fd5b506105da806100206000396000f3fe60806040526004361061003f5760003560e01c806312065fe014610044578063a9059cbb1461006f578063bb4e3f4d1461008b578063f8a8fd6d146100c8575b600080fd5b34801561005057600080fd5b506100596100f3565b6040516100669190610417565b60405180910390f35b61008960048036038101906100849190610379565b610112565b005b34801561009757600080fd5b506100b260048036038101906100ad91906103b9565b61017d565b6040516100bf9190610432565b60405180910390f35b3480156100d457600080fd5b506100dd610193565b6040516100ea9190610417565b60405180910390f35b60003373ffffffffffffffffffffffffffffffffffffffff1631905090565b6101323373ffffffffffffffffffffffffffffffffffffffff1631610278565b8173ffffffffffffffffffffffffffffffffffffffff166108fc829081150290604051600060405180830381858888f19350505050158015610178573d6000803e3d6000fd5b505050565b6000818361018b919061044d565b905092915050565b600080600167ffffffffffffffff8111156101b1576101b061052b565b5b6040519080825280602002602001820160405280156101df5781602001602082028036833780820191505090505b5090506001816000815181106101f8576101f76104fc565b5b602002602001018181525050600081905060028160008151811061021f5761021e6104fc565b5b60200260200101818152505061024f82600081518110610242576102416104fc565b5b6020026020010151610278565b61027381600081518110610266576102656104fc565b5b6020026020010151610278565b505090565b61030e8160405160240161028c9190610417565b6040516020818303038152906040527ff5b1bba9000000000000000000000000000000000000000000000000000000007bffffffffffffffffffffffffffffffffffffffffffffffffffffffff19166020820180517bffffffffffffffffffffffffffffffffffffffffffffffffffffffff8381831617835250505050610311565b50565b60008151905060006a636f6e736f6c652e6c6f679050602083016000808483855afa5050505050565b6000813590506103498161055f565b92915050565b60008135905061035e81610576565b92915050565b6000813590506103738161058d565b92915050565b600080604083850312156103905761038f61055a565b5b600061039e8582860161033a565b92505060206103af8582860161034f565b9150509250929050565b600080604083850312156103d0576103cf61055a565b5b60006103de85828601610364565b92505060206103ef85828601610364565b9150509250929050565b610402816104b6565b82525050565b610411816104c0565b82525050565b600060208201905061042c60008301846103f9565b92915050565b60006020820190506104476000830184610408565b92915050565b6000610458826104c0565b9150610463836104c0565b92508260ff03821115610479576104786104cd565b5b828201905092915050565b600061048f82610496565b9050919050565b600073ffffffffffffffffffffffffffffffffffffffff82169050919050565b6000819050919050565b600060ff82169050919050565b7f4e487b7100000000000000000000000000000000000000000000000000000000600052601160045260246000fd5b7f4e487b7100000000000000000000000000000000000000000000000000000000600052603260045260246000fd5b7f4e487b7100000000000000000000000000000000000000000000000000000000600052604160045260246000fd5b600080fd5b61056881610484565b811461057357600080fd5b50565b61057f816104b6565b811461058a57600080fd5b50565b610596816104c0565b81146105a157600080fd5b5056fea26469706673582212203a855da07cbe98e75f6ed986322a9cf4d31d608a6a6a7f4aa07fb0a4617aa58c64736f6c63430008070033",
					"opcodes": "PUSH1 0x80 PUSH1 0x40 MSTORE CALLVALUE DUP1 ISZERO PUSH2 0x10 JUMPI PUSH1 0x0 DUP1 REVERT JUMPDEST POP PUSH2 0x5DA DUP1 PUSH2 0x20 PUSH1 0x0 CODECOPY PUSH1 0x0 RETURN INVALID PUSH1 0x80 PUSH1 0x40 MSTORE PUSH1 0x4 CALLDATASIZE LT PUSH2 0x3F JUMPI PUSH1 0x0 CALLDATALOAD PUSH1 0xE0 SHR DUP1 PUSH4 0x12065FE0 EQ PUSH2 0x44 JUMPI DUP1 PUSH4 0xA9059CBB EQ PUSH2 0x6F JUMPI DUP1 PUSH4 0xBB4E3F4D EQ PUSH2 0x8B JUMPI DUP1 PUSH4 0xF8A8FD6D EQ PUSH2 0xC8 JUMPI JUMPDEST PUSH1 0x0 DUP1 REVERT JUMPDEST CALLVALUE DUP1 ISZERO PUSH2 0x50 JUMPI PUSH1 0x0 DUP1 REVERT JUMPDEST POP PUSH2 0x59 PUSH2 0xF3 JUMP JUMPDEST PUSH1 0x40 MLOAD PUSH2 0x66 SWAP2 SWAP1 PUSH2 0x417 JUMP JUMPDEST PUSH1 0x40 MLOAD DUP1 SWAP2 SUB SWAP1 RETURN JUMPDEST PUSH2 0x89 PUSH1 0x4 DUP1 CALLDATASIZE SUB DUP2 ADD SWAP1 PUSH2 0x84 SWAP2 SWAP1 PUSH2 0x379 JUMP JUMPDEST PUSH2 0x112 JUMP JUMPDEST STOP JUMPDEST CALLVALUE DUP1 ISZERO PUSH2 0x97 JUMPI PUSH1 0x0 DUP1 REVERT JUMPDEST POP PUSH2 0xB2 PUSH1 0x4 DUP1 CALLDATASIZE SUB DUP2 ADD SWAP1 PUSH2 0xAD SWAP2 SWAP1 PUSH2 0x3B9 JUMP JUMPDEST PUSH2 0x17D JUMP JUMPDEST PUSH1 0x40 MLOAD PUSH2 0xBF SWAP2 SWAP1 PUSH2 0x432 JUMP JUMPDEST PUSH1 0x40 MLOAD DUP1 SWAP2 SUB SWAP1 RETURN JUMPDEST CALLVALUE DUP1 ISZERO PUSH2 0xD4 JUMPI PUSH1 0x0 DUP1 REVERT JUMPDEST POP PUSH2 0xDD PUSH2 0x193 JUMP JUMPDEST PUSH1 0x40 MLOAD PUSH2 0xEA SWAP2 SWAP1 PUSH2 0x417 JUMP JUMPDEST PUSH1 0x40 MLOAD DUP1 SWAP2 SUB SWAP1 RETURN JUMPDEST PUSH1 0x0 CALLER PUSH20 0xFFFFFFFFFFFFFFFFFFFFFFFFFFFFFFFFFFFFFFFF AND BALANCE SWAP1 POP SWAP1 JUMP JUMPDEST PUSH2 0x132 CALLER PUSH20 0xFFFFFFFFFFFFFFFFFFFFFFFFFFFFFFFFFFFFFFFF AND BALANCE PUSH2 0x278 JUMP JUMPDEST DUP2 PUSH20 0xFFFFFFFFFFFFFFFFFFFFFFFFFFFFFFFFFFFFFFFF AND PUSH2 0x8FC DUP3 SWAP1 DUP2 ISZERO MUL SWAP1 PUSH1 0x40 MLOAD PUSH1 0x0 PUSH1 0x40 MLOAD DUP1 DUP4 SUB DUP2 DUP6 DUP9 DUP9 CALL SWAP4 POP POP POP POP ISZERO DUP1 ISZERO PUSH2 0x178 JUMPI RETURNDATASIZE PUSH1 0x0 DUP1 RETURNDATACOPY RETURNDATASIZE PUSH1 0x0 REVERT JUMPDEST POP POP POP JUMP JUMPDEST PUSH1 0x0 DUP2 DUP4 PUSH2 0x18B SWAP2 SWAP1 PUSH2 0x44D JUMP JUMPDEST SWAP1 POP SWAP3 SWAP2 POP POP JUMP JUMPDEST PUSH1 0x0 DUP1 PUSH1 0x1 PUSH8 0xFFFFFFFFFFFFFFFF DUP2 GT ISZERO PUSH2 0x1B1 JUMPI PUSH2 0x1B0 PUSH2 0x52B JUMP JUMPDEST JUMPDEST PUSH1 0x40 MLOAD SWAP1 DUP1 DUP3 MSTORE DUP1 PUSH1 0x20 MUL PUSH1 0x20 ADD DUP3 ADD PUSH1 0x40 MSTORE DUP1 ISZERO PUSH2 0x1DF JUMPI DUP2 PUSH1 0x20 ADD PUSH1 0x20 DUP3 MUL DUP1 CALLDATASIZE DUP4 CALLDATACOPY DUP1 DUP3 ADD SWAP2 POP POP SWAP1 POP JUMPDEST POP SWAP1 POP PUSH1 0x1 DUP2 PUSH1 0x0 DUP2 MLOAD DUP2 LT PUSH2 0x1F8 JUMPI PUSH2 0x1F7 PUSH2 0x4FC JUMP JUMPDEST JUMPDEST PUSH1 0x20 MUL PUSH1 0x20 ADD ADD DUP2 DUP2 MSTORE POP POP PUSH1 0x0 DUP2 SWAP1 POP PUSH1 0x2 DUP2 PUSH1 0x0 DUP2 MLOAD DUP2 LT PUSH2 0x21F JUMPI PUSH2 0x21E PUSH2 0x4FC JUMP JUMPDEST JUMPDEST PUSH1 0x20 MUL PUSH1 0x20 ADD ADD DUP2 DUP2 MSTORE POP POP PUSH2 0x24F DUP3 PUSH1 0x0 DUP2 MLOAD DUP2 LT PUSH2 0x242 JUMPI PUSH2 0x241 PUSH2 0x4FC JUMP JUMPDEST JUMPDEST PUSH1 0x20 MUL PUSH1 0x20 ADD ADD MLOAD PUSH2 0x278 JUMP JUMPDEST PUSH2 0x273 DUP2 PUSH1 0x0 DUP2 MLOAD DUP2 LT PUSH2 0x266 JUMPI PUSH2 0x265 PUSH2 0x4FC JUMP JUMPDEST JUMPDEST PUSH1 0x20 MUL PUSH1 0x20 ADD ADD MLOAD PUSH2 0x278 JUMP JUMPDEST POP POP SWAP1 JUMP JUMPDEST PUSH2 0x30E DUP2 PUSH1 0x40 MLOAD PUSH1 0x24 ADD PUSH2 0x28C SWAP2 SWAP1 PUSH2 0x417 JUMP JUMPDEST PUSH1 0x40 MLOAD PUSH1 0x20 DUP2 DUP4 SUB SUB DUP2 MSTORE SWAP1 PUSH1 0x40 MSTORE PUSH32 0xF5B1BBA900000000000000000000000000000000000000000000000000000000 PUSH28 0xFFFFFFFFFFFFFFFFFFFFFFFFFFFFFFFFFFFFFFFFFFFFFFFFFFFFFFFF NOT AND PUSH1 0x20 DUP3 ADD DUP1 MLOAD PUSH28 0xFFFFFFFFFFFFFFFFFFFFFFFFFFFFFFFFFFFFFFFFFFFFFFFFFFFFFFFF DUP4 DUP2 DUP4 AND OR DUP4 MSTORE POP POP POP POP PUSH2 0x311 JUMP JUMPDEST POP JUMP JUMPDEST PUSH1 0x0 DUP2 MLOAD SWAP1 POP PUSH1 0x0 PUSH11 0x636F6E736F6C652E6C6F67 SWAP1 POP PUSH1 0x20 DUP4 ADD PUSH1 0x0 DUP1 DUP5 DUP4 DUP6 GAS STATICCALL POP POP POP POP POP JUMP JUMPDEST PUSH1 0x0 DUP2 CALLDATALOAD SWAP1 POP PUSH2 0x349 DUP2 PUSH2 0x55F JUMP JUMPDEST SWAP3 SWAP2 POP POP JUMP JUMPDEST PUSH1 0x0 DUP2 CALLDATALOAD SWAP1 POP PUSH2 0x35E DUP2 PUSH2 0x576 JUMP JUMPDEST SWAP3 SWAP2 POP POP JUMP JUMPDEST PUSH1 0x0 DUP2 CALLDATALOAD SWAP1 POP PUSH2 0x373 DUP2 PUSH2 0x58D JUMP JUMPDEST SWAP3 SWAP2 POP POP JUMP JUMPDEST PUSH1 0x0 DUP1 PUSH1 0x40 DUP4 DUP6 SUB SLT ISZERO PUSH2 0x390 JUMPI PUSH2 0x38F PUSH2 0x55A JUMP JUMPDEST JUMPDEST PUSH1 0x0 PUSH2 0x39E DUP6 DUP3 DUP7 ADD PUSH2 0x33A JUMP JUMPDEST SWAP3 POP POP PUSH1 0x20 PUSH2 0x3AF DUP6 DUP3 DUP7 ADD PUSH2 0x34F JUMP JUMPDEST SWAP2 POP POP SWAP3 POP SWAP3 SWAP1 POP JUMP JUMPDEST PUSH1 0x0 DUP1 PUSH1 0x40 DUP4 DUP6 SUB SLT ISZERO PUSH2 0x3D0 JUMPI PUSH2 0x3CF PUSH2 0x55A JUMP JUMPDEST JUMPDEST PUSH1 0x0 PUSH2 0x3DE DUP6 DUP3 DUP7 ADD PUSH2 0x364 JUMP JUMPDEST SWAP3 POP POP PUSH1 0x20 PUSH2 0x3EF DUP6 DUP3 DUP7 ADD PUSH2 0x364 JUMP JUMPDEST SWAP2 POP POP SWAP3 POP SWAP3 SWAP1 POP JUMP JUMPDEST PUSH2 0x402 DUP2 PUSH2 0x4B6 JUMP JUMPDEST DUP3 MSTORE POP POP JUMP JUMPDEST PUSH2 0x411 DUP2 PUSH2 0x4C0 JUMP JUMPDEST DUP3 MSTORE POP POP JUMP JUMPDEST PUSH1 0x0 PUSH1 0x20 DUP3 ADD SWAP1 POP PUSH2 0x42C PUSH1 0x0 DUP4 ADD DUP5 PUSH2 0x3F9 JUMP JUMPDEST SWAP3 SWAP2 POP POP JUMP JUMPDEST PUSH1 0x0 PUSH1 0x20 DUP3 ADD SWAP1 POP PUSH2 0x447 PUSH1 0x0 DUP4 ADD DUP5 PUSH2 0x408 JUMP JUMPDEST SWAP3 SWAP2 POP POP JUMP JUMPDEST PUSH1 0x0 PUSH2 0x458 DUP3 PUSH2 0x4C0 JUMP JUMPDEST SWAP2 POP PUSH2 0x463 DUP4 PUSH2 0x4C0 JUMP JUMPDEST SWAP3 POP DUP3 PUSH1 0xFF SUB DUP3 GT ISZERO PUSH2 0x479 JUMPI PUSH2 0x478 PUSH2 0x4CD JUMP JUMPDEST JUMPDEST DUP3 DUP3 ADD SWAP1 POP SWAP3 SWAP2 POP POP JUMP JUMPDEST PUSH1 0x0 PUSH2 0x48F DUP3 PUSH2 0x496 JUMP JUMPDEST SWAP1 POP SWAP2 SWAP1 POP JUMP JUMPDEST PUSH1 0x0 PUSH20 0xFFFFFFFFFFFFFFFFFFFFFFFFFFFFFFFFFFFFFFFF DUP3 AND SWAP1 POP SWAP2 SWAP1 POP JUMP JUMPDEST PUSH1 0x0 DUP2 SWAP1 POP SWAP2 SWAP1 POP JUMP JUMPDEST PUSH1 0x0 PUSH1 0xFF DUP3 AND SWAP1 POP SWAP2 SWAP1 POP JUMP JUMPDEST PUSH32 0x4E487B7100000000000000000000000000000000000000000000000000000000 PUSH1 0x0 MSTORE PUSH1 0x11 PUSH1 0x4 MSTORE PUSH1 0x24 PUSH1 0x0 REVERT JUMPDEST PUSH32 0x4E487B7100000000000000000000000000000000000000000000000000000000 PUSH1 0x0 MSTORE PUSH1 0x32 PUSH1 0x4 MSTORE PUSH1 0x24 PUSH1 0x0 REVERT JUMPDEST PUSH32 0x4E487B7100000000000000000000000000000000000000000000000000000000 PUSH1 0x0 MSTORE PUSH1 0x41 PUSH1 0x4 MSTORE PUSH1 0x24 PUSH1 0x0 REVERT JUMPDEST PUSH1 0x0 DUP1 REVERT JUMPDEST PUSH2 0x568 DUP2 PUSH2 0x484 JUMP JUMPDEST DUP2 EQ PUSH2 0x573 JUMPI PUSH1 0x0 DUP1 REVERT JUMPDEST POP JUMP JUMPDEST PUSH2 0x57F DUP2 PUSH2 0x4B6 JUMP JUMPDEST DUP2 EQ PUSH2 0x58A JUMPI PUSH1 0x0 DUP1 REVERT JUMPDEST POP JUMP JUMPDEST PUSH2 0x596 DUP2 PUSH2 0x4C0 JUMP JUMPDEST DUP2 EQ PUSH2 0x5A1 JUMPI PUSH1 0x0 DUP1 REVERT JUMPDEST POP JUMP INVALID LOG2 PUSH5 0x6970667358 0x22 SLT KECCAK256 GASPRICE DUP6 0x5D LOG0 PUSH29 0xBE98E75F6ED986322A9CF4D31D608A6A6A7F4AA07FB0A4617AA58C6473 PUSH16 0x6C634300080700330000000000000000 "
				},
				"gasEstimates": {
					"creation": {
						"codeDepositCost": "299600",
						"executionCost": "337",
						"totalCost": "299937"
					},
					"external": {
						"add(uint8,uint8)": "infinite",
						"getBalance()": "2920",
						"test()": "infinite",
						"transfer(address,uint256)": "infinite"
					}
				},
				"methodIdentifiers": {
					"add(uint8,uint8)": "bb4e3f4d",
					"getBalance()": "12065fe0",
					"test()": "f8a8fd6d",
					"transfer(address,uint256)": "a9059cbb"
				}
			},
			"storageLayout": {
				"storage": [],
				"types": null
			},
			"userdoc": {
				"kind": "user",
				"methods": {},
				"version": 1
			}
		}
	}
}