{
	"contracts/Caller.sol": {
		"Caller": {
			"abi": [
				{
					"inputs": [
						{
							"internalType": "address",
							"name": "_callee",
							"type": "address"
						}
					],
					"stateMutability": "nonpayable",
					"type": "constructor"
				},
				{
					"inputs": [
						{
							"internalType": "uint256",
							"name": "_x",
							"type": "uint256"
						}
					],
					"name": "callX",
					"outputs": [],
					"stateMutability": "nonpayable",
					"type": "function"
				},
				{
					"inputs": [
						{
							"internalType": "uint256",
							"name": "_x",
							"type": "uint256"
						}
					],
					"name": "delegateCallX",
					"outputs": [],
					"stateMutability": "nonpayable",
					"type": "function"
				},
				{
					"inputs": [],
					"name": "x",
					"outputs": [
						{
							"internalType": "uint256",
							"name": "",
							"type": "uint256"
						}
					],
					"stateMutability": "view",
					"type": "function"
				}
			],
			"devdoc": {
				"kind": "dev",
				"methods": {},
				"version": 1
			},
			"evm": {
				"assembly": "    /* \"contracts/Caller.sol\":65:551  contract Caller {\r... */\n  mstore(0x40, 0x80)\n    /* \"contracts/Caller.sol\":131:194  constructor(address _callee){\r... */\n  callvalue\n  dup1\n  iszero\n  tag_1\n  jumpi\n  0x00\n  dup1\n  revert\ntag_1:\n  pop\n  mload(0x40)\n  sub(codesize, bytecodeSize)\n  dup1\n  bytecodeSize\n  dup4\n  codecopy\n  dup2\n  dup2\n  add\n  0x40\n  mstore\n  dup2\n  add\n  swap1\n  tag_2\n  swap2\n  swap1\n  tag_3\n  jump\t// in\ntag_2:\n    /* \"contracts/Caller.sol\":179:186  _callee */\n  dup1\n    /* \"contracts/Caller.sol\":170:176  callee */\n  0x01\n  0x00\n    /* \"contracts/Caller.sol\":170:186  callee = _callee */\n  0x0100\n  exp\n  dup2\n  sload\n  dup2\n  0xffffffffffffffffffffffffffffffffffffffff\n  mul\n  not\n  and\n  swap1\n  dup4\n  0xffffffffffffffffffffffffffffffffffffffff\n  and\n  mul\n  or\n  swap1\n  sstore\n  pop\n    /* \"contracts/Caller.sol\":131:194  constructor(address _callee){\r... */\n  pop\n    /* \"contracts/Caller.sol\":65:551  contract Caller {\r... */\n  jump(tag_6)\n    /* \"#utility.yul\":7:150   */\ntag_8:\n    /* \"#utility.yul\":64:69   */\n  0x00\n    /* \"#utility.yul\":95:101   */\n  dup2\n    /* \"#utility.yul\":89:102   */\n  mload\n    /* \"#utility.yul\":80:102   */\n  swap1\n  pop\n    /* \"#utility.yul\":111:144   */\n  tag_10\n    /* \"#utility.yul\":138:143   */\n  dup2\n    /* \"#utility.yul\":111:144   */\n  tag_11\n  jump\t// in\ntag_10:\n    /* \"#utility.yul\":7:150   */\n  swap3\n  swap2\n  pop\n  pop\n  jump\t// out\n    /* \"#utility.yul\":156:507   */\ntag_3:\n    /* \"#utility.yul\":226:232   */\n  0x00\n    /* \"#utility.yul\":275:277   */\n  0x20\n    /* \"#utility.yul\":263:272   */\n  dup3\n    /* \"#utility.yul\":254:261   */\n  dup5\n    /* \"#utility.yul\":250:273   */\n  sub\n    /* \"#utility.yul\":246:278   */\n  slt\n    /* \"#utility.yul\":243:362   */\n  iszero\n  tag_13\n  jumpi\n    /* \"#utility.yul\":281:360   */\n  tag_14\n  tag_15\n  jump\t// in\ntag_14:\n    /* \"#utility.yul\":243:362   */\ntag_13:\n    /* \"#utility.yul\":401:402   */\n  0x00\n    /* \"#utility.yul\":426:490   */\n  tag_16\n    /* \"#utility.yul\":482:489   */\n  dup5\n    /* \"#utility.yul\":473:479   */\n  dup3\n    /* \"#utility.yul\":462:471   */\n  dup6\n    /* \"#utility.yul\":458:480   */\n  add\n    /* \"#utility.yul\":426:490   */\n  tag_8\n  jump\t// in\ntag_16:\n    /* \"#utility.yul\":416:490   */\n  swap2\n  pop\n    /* \"#utility.yul\":372:500   */\n  pop\n    /* \"#utility.yul\":156:507   */\n  swap3\n  swap2\n  pop\n  pop\n  jump\t// out\n    /* \"#utility.yul\":594:690   */\ntag_19:\n    /* \"#utility.yul\":631:638   */\n  0x00\n    /* \"#utility.yul\":660:684   */\n  tag_21\n    /* \"#utility.yul\":678:683   */\n  dup3\n    /* \"#utility.yul\":660:684   */\n  tag_22\n  jump\t// in\ntag_21:\n    /* \"#utility.yul\":649:684   */\n  swap1\n  pop\n    /* \"#utility.yul\":594:690   */\n  swap2\n  swap1\n  pop\n  jump\t// out\n    /* \"#utility.yul\":696:822   */\ntag_22:\n    /* \"#utility.yul\":733:740   */\n  0x00\n    /* \"#utility.yul\":773:815   */\n  0xffffffffffffffffffffffffffffffffffffffff\n    /* \"#utility.yul\":766:771   */\n  dup3\n    /* \"#utility.yul\":762:816   */\n  and\n    /* \"#utility.yul\":751:816   */\n  swap1\n  pop\n    /* \"#utility.yul\":696:822   */\n  swap2\n  swap1\n  pop\n  jump\t// out\n    /* \"#utility.yul\":951:1068   */\ntag_15:\n    /* \"#utility.yul\":1060:1061   */\n  0x00\n    /* \"#utility.yul\":1057:1058   */\n  dup1\n    /* \"#utility.yul\":1050:1062   */\n  revert\n    /* \"#utility.yul\":1074:1196   */\ntag_11:\n    /* \"#utility.yul\":1147:1171   */\n  tag_28\n    /* \"#utility.yul\":1165:1170   */\n  dup2\n    /* \"#utility.yul\":1147:1171   */\n  tag_19\n  jump\t// in\ntag_28:\n    /* \"#utility.yul\":1140:1145   */\n  dup2\n    /* \"#utility.yul\":1137:1172   */\n  eq\n    /* \"#utility.yul\":1127:1190   */\n  tag_29\n  jumpi\n    /* \"#utility.yul\":1186:1187   */\n  0x00\n    /* \"#utility.yul\":1183:1184   */\n  dup1\n    /* \"#utility.yul\":1176:1188   */\n  revert\n    /* \"#utility.yul\":1127:1190   */\ntag_29:\n    /* \"#utility.yul\":1074:1196   */\n  pop\n  jump\t// out\n    /* \"contracts/Caller.sol\":65:551  contract Caller {\r... */\ntag_6:\n  dataSize(sub_0)\n  dup1\n  dataOffset(sub_0)\n  0x00\n  codecopy\n  0x00\n  return\nstop\n\nsub_0: assembly {\n        /* \"contracts/Caller.sol\":65:551  contract Caller {\r... */\n      mstore(0x40, 0x80)\n      callvalue\n      dup1\n      iszero\n      tag_1\n      jumpi\n      0x00\n      dup1\n      revert\n    tag_1:\n      pop\n      jumpi(tag_2, lt(calldatasize, 0x04))\n      shr(0xe0, calldataload(0x00))\n      dup1\n      0x0c55699c\n      eq\n      tag_3\n      jumpi\n      dup1\n      0xad6de9e6\n      eq\n      tag_4\n      jumpi\n      dup1\n      0xe6b346ef\n      eq\n      tag_5\n      jumpi\n    tag_2:\n      0x00\n      dup1\n      revert\n        /* \"contracts/Caller.sol\":88:101  uint public x */\n    tag_3:\n      tag_6\n      tag_7\n      jump\t// in\n    tag_6:\n      mload(0x40)\n      tag_8\n      swap2\n      swap1\n      tag_9\n      jump\t// in\n    tag_8:\n      mload(0x40)\n      dup1\n      swap2\n      sub\n      swap1\n      return\n        /* \"contracts/Caller.sol\":202:363  function callX(uint _x) public{\r... */\n    tag_4:\n      tag_10\n      0x04\n      dup1\n      calldatasize\n      sub\n      dup2\n      add\n      swap1\n      tag_11\n      swap2\n      swap1\n      tag_12\n      jump\t// in\n    tag_11:\n      tag_13\n      jump\t// in\n    tag_10:\n      stop\n        /* \"contracts/Caller.sol\":371:548  function delegateCallX(uint _x) public{\r... */\n    tag_5:\n      tag_14\n      0x04\n      dup1\n      calldatasize\n      sub\n      dup2\n      add\n      swap1\n      tag_15\n      swap2\n      swap1\n      tag_12\n      jump\t// in\n    tag_15:\n      tag_16\n      jump\t// in\n    tag_14:\n      stop\n        /* \"contracts/Caller.sol\":88:101  uint public x */\n    tag_7:\n      sload(0x00)\n      dup2\n      jump\t// out\n        /* \"contracts/Caller.sol\":202:363  function callX(uint _x) public{\r... */\n    tag_13:\n        /* \"contracts/Caller.sol\":244:256  bool success */\n      0x00\n        /* \"contracts/Caller.sol\":262:268  callee */\n      0x01\n      0x00\n      swap1\n      sload\n      swap1\n      0x0100\n      exp\n      swap1\n      div\n      0xffffffffffffffffffffffffffffffffffffffff\n      and\n        /* \"contracts/Caller.sol\":262:273  callee.call */\n      0xffffffffffffffffffffffffffffffffffffffff\n      and\n        /* \"contracts/Caller.sol\":315:317  _x */\n      dup3\n        /* \"contracts/Caller.sol\":274:318  abi.encodeWithSignature(\"setX(uint256)\", _x) */\n      add(0x24, mload(0x40))\n      tag_18\n      swap2\n      swap1\n      tag_9\n      jump\t// in\n    tag_18:\n      mload(0x40)\n      0x20\n      dup2\n      dup4\n      sub\n      sub\n      dup2\n      mstore\n      swap1\n      0x40\n      mstore\n      and(not(0xffffffffffffffffffffffffffffffffffffffffffffffffffffffff), 0x4018d9aa00000000000000000000000000000000000000000000000000000000)\n      0x20\n      dup3\n      add\n      dup1\n      mload\n      0xffffffffffffffffffffffffffffffffffffffffffffffffffffffff\n      dup4\n      dup2\n      dup4\n      and\n      or\n      dup4\n      mstore\n      pop\n      pop\n      pop\n      pop\n        /* \"contracts/Caller.sol\":262:319  callee.call(abi.encodeWithSignature(\"setX(uint256)\", _x)) */\n      mload(0x40)\n      tag_19\n      swap2\n      swap1\n      tag_20\n      jump\t// in\n    tag_19:\n      0x00\n      mload(0x40)\n      dup1\n      dup4\n      sub\n      dup2\n      0x00\n      dup7\n      gas\n      call\n      swap2\n      pop\n      pop\n      returndatasize\n      dup1\n      0x00\n      dup2\n      eq\n      tag_23\n      jumpi\n      mload(0x40)\n      swap2\n      pop\n      and(add(returndatasize, 0x3f), not(0x1f))\n      dup3\n      add\n      0x40\n      mstore\n      returndatasize\n      dup3\n      mstore\n      returndatasize\n      0x00\n      0x20\n      dup5\n      add\n      returndatacopy\n      jump(tag_22)\n    tag_23:\n      0x60\n      swap2\n      pop\n    tag_22:\n      pop\n        /* \"contracts/Caller.sol\":243:319  (bool success, ) = callee.call(abi.encodeWithSignature(\"setX(uint256)\", _x)) */\n      pop\n      swap1\n      pop\n        /* \"contracts/Caller.sol\":338:345  success */\n      dup1\n        /* \"contracts/Caller.sol\":330:355  require(success, \"Error\") */\n      tag_24\n      jumpi\n      mload(0x40)\n      0x08c379a000000000000000000000000000000000000000000000000000000000\n      dup2\n      mstore\n      0x04\n      add\n      tag_25\n      swap1\n      tag_26\n      jump\t// in\n    tag_25:\n      mload(0x40)\n      dup1\n      swap2\n      sub\n      swap1\n      revert\n    tag_24:\n        /* \"contracts/Caller.sol\":232:363  {\r... */\n      pop\n        /* \"contracts/Caller.sol\":202:363  function callX(uint _x) public{\r... */\n      pop\n      jump\t// out\n        /* \"contracts/Caller.sol\":371:548  function delegateCallX(uint _x) public{\r... */\n    tag_16:\n        /* \"contracts/Caller.sol\":421:433  bool success */\n      0x00\n        /* \"contracts/Caller.sol\":439:445  callee */\n      0x01\n      0x00\n      swap1\n      sload\n      swap1\n      0x0100\n      exp\n      swap1\n      div\n      0xffffffffffffffffffffffffffffffffffffffff\n      and\n        /* \"contracts/Caller.sol\":439:458  callee.delegatecall */\n      0xffffffffffffffffffffffffffffffffffffffff\n      and\n        /* \"contracts/Caller.sol\":500:502  _x */\n      dup3\n        /* \"contracts/Caller.sol\":459:503  abi.encodeWithSignature(\"setX(uint256)\", _x) */\n      add(0x24, mload(0x40))\n      tag_28\n      swap2\n      swap1\n      tag_9\n      jump\t// in\n    tag_28:\n      mload(0x40)\n      0x20\n      dup2\n      dup4\n      sub\n      sub\n      dup2\n      mstore\n      swap1\n      0x40\n      mstore\n      and(not(0xffffffffffffffffffffffffffffffffffffffffffffffffffffffff), 0x4018d9aa00000000000000000000000000000000000000000000000000000000)\n      0x20\n      dup3\n      add\n      dup1\n      mload\n      0xffffffffffffffffffffffffffffffffffffffffffffffffffffffff\n      dup4\n      dup2\n      dup4\n      and\n      or\n      dup4\n      mstore\n      pop\n      pop\n      pop\n      pop\n        /* \"contracts/Caller.sol\":439:504  callee.delegatecall(abi.encodeWithSignature(\"setX(uint256)\", _x)) */\n      mload(0x40)\n      tag_29\n      swap2\n      swap1\n      tag_20\n      jump\t// in\n    tag_29:\n      0x00\n      mload(0x40)\n      dup1\n      dup4\n      sub\n      dup2\n      dup6\n      gas\n      delegatecall\n      swap2\n      pop\n      pop\n      returndatasize\n      dup1\n      0x00\n      dup2\n      eq\n      tag_32\n      jumpi\n      mload(0x40)\n      swap2\n      pop\n      and(add(returndatasize, 0x3f), not(0x1f))\n      dup3\n      add\n      0x40\n      mstore\n      returndatasize\n      dup3\n      mstore\n      returndatasize\n      0x00\n      0x20\n      dup5\n      add\n      returndatacopy\n      jump(tag_31)\n    tag_32:\n      0x60\n      swap2\n      pop\n    tag_31:\n      pop\n        /* \"contracts/Caller.sol\":420:504  (bool success, ) = callee.delegatecall(abi.encodeWithSignature(\"setX(uint256)\", _x)) */\n      pop\n      swap1\n      pop\n        /* \"contracts/Caller.sol\":523:530  success */\n      dup1\n        /* \"contracts/Caller.sol\":515:540  require(success, \"Error\") */\n      tag_33\n      jumpi\n      mload(0x40)\n      0x08c379a000000000000000000000000000000000000000000000000000000000\n      dup2\n      mstore\n      0x04\n      add\n      tag_34\n      swap1\n      tag_26\n      jump\t// in\n    tag_34:\n      mload(0x40)\n      dup1\n      swap2\n      sub\n      swap1\n      revert\n    tag_33:\n        /* \"contracts/Caller.sol\":409:548  {\r... */\n      pop\n        /* \"contracts/Caller.sol\":371:548  function delegateCallX(uint _x) public{\r... */\n      pop\n      jump\t// out\n        /* \"#utility.yul\":7:146   */\n    tag_36:\n        /* \"#utility.yul\":53:58   */\n      0x00\n        /* \"#utility.yul\":91:97   */\n      dup2\n        /* \"#utility.yul\":78:98   */\n      calldataload\n        /* \"#utility.yul\":69:98   */\n      swap1\n      pop\n        /* \"#utility.yul\":107:140   */\n      tag_38\n        /* \"#utility.yul\":134:139   */\n      dup2\n        /* \"#utility.yul\":107:140   */\n      tag_39\n      jump\t// in\n    tag_38:\n        /* \"#utility.yul\":7:146   */\n      swap3\n      swap2\n      pop\n      pop\n      jump\t// out\n        /* \"#utility.yul\":152:481   */\n    tag_12:\n        /* \"#utility.yul\":211:217   */\n      0x00\n        /* \"#utility.yul\":260:262   */\n      0x20\n        /* \"#utility.yul\":248:257   */\n      dup3\n        /* \"#utility.yul\":239:246   */\n      dup5\n        /* \"#utility.yul\":235:258   */\n      sub\n        /* \"#utility.yul\":231:263   */\n      slt\n        /* \"#utility.yul\":228:347   */\n      iszero\n      tag_41\n      jumpi\n        /* \"#utility.yul\":266:345   */\n      tag_42\n      tag_43\n      jump\t// in\n    tag_42:\n        /* \"#utility.yul\":228:347   */\n    tag_41:\n        /* \"#utility.yul\":386:387   */\n      0x00\n        /* \"#utility.yul\":411:464   */\n      tag_44\n        /* \"#utility.yul\":456:463   */\n      dup5\n        /* \"#utility.yul\":447:453   */\n      dup3\n        /* \"#utility.yul\":436:445   */\n      dup6\n        /* \"#utility.yul\":432:454   */\n      add\n        /* \"#utility.yul\":411:464   */\n      tag_36\n      jump\t// in\n    tag_44:\n        /* \"#utility.yul\":401:464   */\n      swap2\n      pop\n        /* \"#utility.yul\":357:474   */\n      pop\n        /* \"#utility.yul\":152:481   */\n      swap3\n      swap2\n      pop\n      pop\n      jump\t// out\n        /* \"#utility.yul\":487:860   */\n    tag_45:\n        /* \"#utility.yul\":591:594   */\n      0x00\n        /* \"#utility.yul\":619:657   */\n      tag_47\n        /* \"#utility.yul\":651:656   */\n      dup3\n        /* \"#utility.yul\":619:657   */\n      tag_48\n      jump\t// in\n    tag_47:\n        /* \"#utility.yul\":673:761   */\n      tag_49\n        /* \"#utility.yul\":754:760   */\n      dup2\n        /* \"#utility.yul\":749:752   */\n      dup6\n        /* \"#utility.yul\":673:761   */\n      tag_50\n      jump\t// in\n    tag_49:\n        /* \"#utility.yul\":666:761   */\n      swap4\n      pop\n        /* \"#utility.yul\":770:822   */\n      tag_51\n        /* \"#utility.yul\":815:821   */\n      dup2\n        /* \"#utility.yul\":810:813   */\n      dup6\n        /* \"#utility.yul\":803:807   */\n      0x20\n        /* \"#utility.yul\":796:801   */\n      dup7\n        /* \"#utility.yul\":792:808   */\n      add\n        /* \"#utility.yul\":770:822   */\n      tag_52\n      jump\t// in\n    tag_51:\n        /* \"#utility.yul\":847:853   */\n      dup1\n        /* \"#utility.yul\":842:845   */\n      dup5\n        /* \"#utility.yul\":838:854   */\n      add\n        /* \"#utility.yul\":831:854   */\n      swap2\n      pop\n        /* \"#utility.yul\":595:860   */\n      pop\n        /* \"#utility.yul\":487:860   */\n      swap3\n      swap2\n      pop\n      pop\n      jump\t// out\n        /* \"#utility.yul\":866:1231   */\n    tag_53:\n        /* \"#utility.yul\":1008:1011   */\n      0x00\n        /* \"#utility.yul\":1029:1095   */\n      tag_55\n        /* \"#utility.yul\":1093:1094   */\n      0x05\n        /* \"#utility.yul\":1088:1091   */\n      dup4\n        /* \"#utility.yul\":1029:1095   */\n      tag_56\n      jump\t// in\n    tag_55:\n        /* \"#utility.yul\":1022:1095   */\n      swap2\n      pop\n        /* \"#utility.yul\":1104:1197   */\n      tag_57\n        /* \"#utility.yul\":1193:1196   */\n      dup3\n        /* \"#utility.yul\":1104:1197   */\n      tag_58\n      jump\t// in\n    tag_57:\n        /* \"#utility.yul\":1222:1224   */\n      0x20\n        /* \"#utility.yul\":1217:1220   */\n      dup3\n        /* \"#utility.yul\":1213:1225   */\n      add\n        /* \"#utility.yul\":1206:1225   */\n      swap1\n      pop\n        /* \"#utility.yul\":866:1231   */\n      swap2\n      swap1\n      pop\n      jump\t// out\n        /* \"#utility.yul\":1237:1355   */\n    tag_59:\n        /* \"#utility.yul\":1324:1348   */\n      tag_61\n        /* \"#utility.yul\":1342:1347   */\n      dup2\n        /* \"#utility.yul\":1324:1348   */\n      tag_62\n      jump\t// in\n    tag_61:\n        /* \"#utility.yul\":1319:1322   */\n      dup3\n        /* \"#utility.yul\":1312:1349   */\n      mstore\n        /* \"#utility.yul\":1237:1355   */\n      pop\n      pop\n      jump\t// out\n        /* \"#utility.yul\":1361:1632   */\n    tag_20:\n        /* \"#utility.yul\":1491:1494   */\n      0x00\n        /* \"#utility.yul\":1513:1606   */\n      tag_64\n        /* \"#utility.yul\":1602:1605   */\n      dup3\n        /* \"#utility.yul\":1593:1599   */\n      dup5\n        /* \"#utility.yul\":1513:1606   */\n      tag_45\n      jump\t// in\n    tag_64:\n        /* \"#utility.yul\":1506:1606   */\n      swap2\n      pop\n        /* \"#utility.yul\":1623:1626   */\n      dup2\n        /* \"#utility.yul\":1616:1626   */\n      swap1\n      pop\n        /* \"#utility.yul\":1361:1632   */\n      swap3\n      swap2\n      pop\n      pop\n      jump\t// out\n        /* \"#utility.yul\":1638:2057   */\n    tag_26:\n        /* \"#utility.yul\":1804:1808   */\n      0x00\n        /* \"#utility.yul\":1842:1844   */\n      0x20\n        /* \"#utility.yul\":1831:1840   */\n      dup3\n        /* \"#utility.yul\":1827:1845   */\n      add\n        /* \"#utility.yul\":1819:1845   */\n      swap1\n      pop\n        /* \"#utility.yul\":1891:1900   */\n      dup2\n        /* \"#utility.yul\":1885:1889   */\n      dup2\n        /* \"#utility.yul\":1881:1901   */\n      sub\n        /* \"#utility.yul\":1877:1878   */\n      0x00\n        /* \"#utility.yul\":1866:1875   */\n      dup4\n        /* \"#utility.yul\":1862:1879   */\n      add\n        /* \"#utility.yul\":1855:1902   */\n      mstore\n        /* \"#utility.yul\":1919:2050   */\n      tag_66\n        /* \"#utility.yul\":2045:2049   */\n      dup2\n        /* \"#utility.yul\":1919:2050   */\n      tag_53\n      jump\t// in\n    tag_66:\n        /* \"#utility.yul\":1911:2050   */\n      swap1\n      pop\n        /* \"#utility.yul\":1638:2057   */\n      swap2\n      swap1\n      pop\n      jump\t// out\n        /* \"#utility.yul\":2063:2285   */\n    tag_9:\n        /* \"#utility.yul\":2156:2160   */\n      0x00\n        /* \"#utility.yul\":2194:2196   */\n      0x20\n        /* \"#utility.yul\":2183:2192   */\n      dup3\n        /* \"#utility.yul\":2179:2197   */\n      add\n        /* \"#utility.yul\":2171:2197   */\n      swap1\n      pop\n        /* \"#utility.yul\":2207:2278   */\n      tag_68\n        /* \"#utility.yul\":2275:2276   */\n      0x00\n        /* \"#utility.yul\":2264:2273   */\n      dup4\n        /* \"#utility.yul\":2260:2277   */\n      add\n        /* \"#utility.yul\":2251:2257   */\n      dup5\n        /* \"#utility.yul\":2207:2278   */\n      tag_59\n      jump\t// in\n    tag_68:\n        /* \"#utility.yul\":2063:2285   */\n      swap3\n      swap2\n      pop\n      pop\n      jump\t// out\n        /* \"#utility.yul\":2372:2470   */\n    tag_48:\n        /* \"#utility.yul\":2423:2429   */\n      0x00\n        /* \"#utility.yul\":2457:2462   */\n      dup2\n        /* \"#utility.yul\":2451:2463   */\n      mload\n        /* \"#utility.yul\":2441:2463   */\n      swap1\n      pop\n        /* \"#utility.yul\":2372:2470   */\n      swap2\n      swap1\n      pop\n      jump\t// out\n        /* \"#utility.yul\":2476:2623   */\n    tag_50:\n        /* \"#utility.yul\":2577:2588   */\n      0x00\n        /* \"#utility.yul\":2614:2617   */\n      dup2\n        /* \"#utility.yul\":2599:2617   */\n      swap1\n      pop\n        /* \"#utility.yul\":2476:2623   */\n      swap3\n      swap2\n      pop\n      pop\n      jump\t// out\n        /* \"#utility.yul\":2629:2798   */\n    tag_56:\n        /* \"#utility.yul\":2713:2724   */\n      0x00\n        /* \"#utility.yul\":2747:2753   */\n      dup3\n        /* \"#utility.yul\":2742:2745   */\n      dup3\n        /* \"#utility.yul\":2735:2754   */\n      mstore\n        /* \"#utility.yul\":2787:2791   */\n      0x20\n        /* \"#utility.yul\":2782:2785   */\n      dup3\n        /* \"#utility.yul\":2778:2792   */\n      add\n        /* \"#utility.yul\":2763:2792   */\n      swap1\n      pop\n        /* \"#utility.yul\":2629:2798   */\n      swap3\n      swap2\n      pop\n      pop\n      jump\t// out\n        /* \"#utility.yul\":2804:2881   */\n    tag_62:\n        /* \"#utility.yul\":2841:2848   */\n      0x00\n        /* \"#utility.yul\":2870:2875   */\n      dup2\n        /* \"#utility.yul\":2859:2875   */\n      swap1\n      pop\n        /* \"#utility.yul\":2804:2881   */\n      swap2\n      swap1\n      pop\n      jump\t// out\n        /* \"#utility.yul\":2887:3194   */\n    tag_52:\n        /* \"#utility.yul\":2955:2956   */\n      0x00\n        /* \"#utility.yul\":2965:3078   */\n    tag_76:\n        /* \"#utility.yul\":2979:2985   */\n      dup4\n        /* \"#utility.yul\":2976:2977   */\n      dup2\n        /* \"#utility.yul\":2973:2986   */\n      lt\n        /* \"#utility.yul\":2965:3078   */\n      iszero\n      tag_78\n      jumpi\n        /* \"#utility.yul\":3064:3065   */\n      dup1\n        /* \"#utility.yul\":3059:3062   */\n      dup3\n        /* \"#utility.yul\":3055:3066   */\n      add\n        /* \"#utility.yul\":3049:3067   */\n      mload\n        /* \"#utility.yul\":3045:3046   */\n      dup2\n        /* \"#utility.yul\":3040:3043   */\n      dup5\n        /* \"#utility.yul\":3036:3047   */\n      add\n        /* \"#utility.yul\":3029:3068   */\n      mstore\n        /* \"#utility.yul\":3001:3003   */\n      0x20\n        /* \"#utility.yul\":2998:2999   */\n      dup2\n        /* \"#utility.yul\":2994:3004   */\n      add\n        /* \"#utility.yul\":2989:3004   */\n      swap1\n      pop\n        /* \"#utility.yul\":2965:3078   */\n      jump(tag_76)\n    tag_78:\n        /* \"#utility.yul\":3096:3102   */\n      dup4\n        /* \"#utility.yul\":3093:3094   */\n      dup2\n        /* \"#utility.yul\":3090:3103   */\n      gt\n        /* \"#utility.yul\":3087:3188   */\n      iszero\n      tag_79\n      jumpi\n        /* \"#utility.yul\":3176:3177   */\n      0x00\n        /* \"#utility.yul\":3167:3173   */\n      dup5\n        /* \"#utility.yul\":3162:3165   */\n      dup5\n        /* \"#utility.yul\":3158:3174   */\n      add\n        /* \"#utility.yul\":3151:3178   */\n      mstore\n        /* \"#utility.yul\":3087:3188   */\n    tag_79:\n        /* \"#utility.yul\":2936:3194   */\n      pop\n        /* \"#utility.yul\":2887:3194   */\n      pop\n      pop\n      pop\n      jump\t// out\n        /* \"#utility.yul\":3323:3440   */\n    tag_43:\n        /* \"#utility.yul\":3432:3433   */\n      0x00\n        /* \"#utility.yul\":3429:3430   */\n      dup1\n        /* \"#utility.yul\":3422:3434   */\n      revert\n        /* \"#utility.yul\":3446:3601   */\n    tag_58:\n        /* \"#utility.yul\":3586:3593   */\n      0x4572726f72000000000000000000000000000000000000000000000000000000\n        /* \"#utility.yul\":3582:3583   */\n      0x00\n        /* \"#utility.yul\":3574:3580   */\n      dup3\n        /* \"#utility.yul\":3570:3584   */\n      add\n        /* \"#utility.yul\":3563:3594   */\n      mstore\n        /* \"#utility.yul\":3446:3601   */\n      pop\n      jump\t// out\n        /* \"#utility.yul\":3607:3729   */\n    tag_39:\n        /* \"#utility.yul\":3680:3704   */\n      tag_85\n        /* \"#utility.yul\":3698:3703   */\n      dup2\n        /* \"#utility.yul\":3680:3704   */\n      tag_62\n      jump\t// in\n    tag_85:\n        /* \"#utility.yul\":3673:3678   */\n      dup2\n        /* \"#utility.yul\":3670:3705   */\n      eq\n        /* \"#utility.yul\":3660:3723   */\n      tag_86\n      jumpi\n        /* \"#utility.yul\":3719:3720   */\n      0x00\n        /* \"#utility.yul\":3716:3717   */\n      dup1\n        /* \"#utility.yul\":3709:3721   */\n      revert\n        /* \"#utility.yul\":3660:3723   */\n    tag_86:\n        /* \"#utility.yul\":3607:3729   */\n      pop\n      jump\t// out\n\n    auxdata: 0xa2646970667358221220bcc330af9f752c842ef33dd32f8a2e51b70aa07051def6741520497d3004d6df64736f6c63430008070033\n}\n",
				"bytecode": {
					"linkReferences": {},
					"object": "608060405234801561001057600080fd5b5060405161064e38038061064e8339818101604052810190610032919061008e565b80600160006101000a81548173ffffffffffffffffffffffffffffffffffffffff021916908373ffffffffffffffffffffffffffffffffffffffff16021790555050610109565b600081519050610088816100f2565b92915050565b6000602082840312156100a4576100a36100ed565b5b60006100b284828501610079565b91505092915050565b60006100c6826100cd565b9050919050565b600073ffffffffffffffffffffffffffffffffffffffff82169050919050565b600080fd5b6100fb816100bb565b811461010657600080fd5b50565b610536806101186000396000f3fe608060405234801561001057600080fd5b50600436106100415760003560e01c80630c55699c14610046578063ad6de9e614610064578063e6b346ef14610080575b600080fd5b61004e61009c565b60405161005b919061043c565b60405180910390f35b61007e60048036038101906100799190610375565b6100a2565b005b61009a60048036038101906100959190610375565b610202565b005b60005481565b6000600160009054906101000a900473ffffffffffffffffffffffffffffffffffffffff1673ffffffffffffffffffffffffffffffffffffffff16826040516024016100ee919061043c565b6040516020818303038152906040527f4018d9aa000000000000000000000000000000000000000000000000000000007bffffffffffffffffffffffffffffffffffffffffffffffffffffffff19166020820180517bffffffffffffffffffffffffffffffffffffffffffffffffffffffff83818316178352505050506040516101789190610405565b6000604051808303816000865af19150503d80600081146101b5576040519150601f19603f3d011682016040523d82523d6000602084013e6101ba565b606091505b50509050806101fe576040517f08c379a00000000000000000000000000000000000000000000000000000000081526004016101f59061041c565b60405180910390fd5b5050565b6000600160009054906101000a900473ffffffffffffffffffffffffffffffffffffffff1673ffffffffffffffffffffffffffffffffffffffff168260405160240161024e919061043c565b6040516020818303038152906040527f4018d9aa000000000000000000000000000000000000000000000000000000007bffffffffffffffffffffffffffffffffffffffffffffffffffffffff19166020820180517bffffffffffffffffffffffffffffffffffffffffffffffffffffffff83818316178352505050506040516102d89190610405565b600060405180830381855af49150503d8060008114610313576040519150601f19603f3d011682016040523d82523d6000602084013e610318565b606091505b505090508061035c576040517f08c379a00000000000000000000000000000000000000000000000000000000081526004016103539061041c565b60405180910390fd5b5050565b60008135905061036f816104e9565b92915050565b60006020828403121561038b5761038a6104bb565b5b600061039984828501610360565b91505092915050565b60006103ad82610457565b6103b78185610462565b93506103c7818560208601610488565b80840191505092915050565b60006103e060058361046d565b91506103eb826104c0565b602082019050919050565b6103ff8161047e565b82525050565b600061041182846103a2565b915081905092915050565b60006020820190508181036000830152610435816103d3565b9050919050565b600060208201905061045160008301846103f6565b92915050565b600081519050919050565b600081905092915050565b600082825260208201905092915050565b6000819050919050565b60005b838110156104a657808201518184015260208101905061048b565b838111156104b5576000848401525b50505050565b600080fd5b7f4572726f72000000000000000000000000000000000000000000000000000000600082015250565b6104f28161047e565b81146104fd57600080fd5b5056fea2646970667358221220bcc330af9f752c842ef33dd32f8a2e51b70aa07051def6741520497d3004d6df64736f6c63430008070033",
					"opcodes": "PUSH1 0x80 PUSH1 0x40 MSTORE CALLVALUE DUP1 ISZERO PUSH2 0x10 JUMPI PUSH1 0x0 DUP1 REVERT JUMPDEST POP PUSH1 0x40 MLOAD PUSH2 0x64E CODESIZE SUB DUP1 PUSH2 0x64E DUP4 CODECOPY DUP2 DUP2 ADD PUSH1 0x40 MSTORE DUP2 ADD SWAP1 PUSH2 0x32 SWAP2 SWAP1 PUSH2 0x8E JUMP JUMPDEST DUP1 PUSH1 0x1 PUSH1 0x0 PUSH2 0x100 EXP DUP2 SLOAD DUP2 PUSH20 0xFFFFFFFFFFFFFFFFFFFFFFFFFFFFFFFFFFFFFFFF MUL NOT AND SWAP1 DUP4 PUSH20 0xFFFFFFFFFFFFFFFFFFFFFFFFFFFFFFFFFFFFFFFF AND MUL OR SWAP1 SSTORE POP POP PUSH2 0x109 JUMP JUMPDEST PUSH1 0x0 DUP2 MLOAD SWAP1 POP PUSH2 0x88 DUP2 PUSH2 0xF2 JUMP JUMPDEST SWAP3 SWAP2 POP POP JUMP JUMPDEST PUSH1 0x0 PUSH1 0x20 DUP3 DUP5 SUB SLT ISZERO PUSH2 0xA4 JUMPI PUSH2 0xA3 PUSH2 0xED JUMP JUMPDEST JUMPDEST PUSH1 0x0 PUSH2 0xB2 DUP5 DUP3 DUP6 ADD PUSH2 0x79 JUMP JUMPDEST SWAP2 POP POP SWAP3 SWAP2 POP POP JUMP JUMPDEST PUSH1 0x0 PUSH2 0xC6 DUP3 PUSH2 0xCD JUMP JUMPDEST SWAP1 POP SWAP2 SWAP1 POP JUMP JUMPDEST PUSH1 0x0 PUSH20 0xFFFFFFFFFFFFFFFFFFFFFFFFFFFFFFFFFFFFFFFF DUP3 AND SWAP1 POP SWAP2 SWAP1 POP JUMP JUMPDEST PUSH1 0x0 DUP1 REVERT JUMPDEST PUSH2 0xFB DUP2 PUSH2 0xBB JUMP JUMPDEST DUP2 EQ PUSH2 0x106 JUMPI PUSH1 0x0 DUP1 REVERT JUMPDEST POP JUMP JUMPDEST PUSH2 0x536 DUP1 PUSH2 0x118 PUSH1 0x0 CODECOPY PUSH1 0x0 RETURN INVALID PUSH1 0x80 PUSH1 0x40 MSTORE CALLVALUE DUP1 ISZERO PUSH2 0x10 JUMPI PUSH1 0x0 DUP1 REVERT JUMPDEST POP PUSH1 0x4 CALLDATASIZE LT PUSH2 0x41 JUMPI PUSH1 0x0 CALLDATALOAD PUSH1 0xE0 SHR DUP1 PUSH4 0xC55699C EQ PUSH2 0x46 JUMPI DUP1 PUSH4 0xAD6DE9E6 EQ PUSH2 0x64 JUMPI DUP1 PUSH4 0xE6B346EF EQ PUSH2 0x80 JUMPI JUMPDEST PUSH1 0x0 DUP1 REVERT JUMPDEST PUSH2 0x4E PUSH2 0x9C JUMP JUMPDEST PUSH1 0x40 MLOAD PUSH2 0x5B SWAP2 SWAP1 PUSH2 0x43C JUMP JUMPDEST PUSH1 0x40 MLOAD DUP1 SWAP2 SUB SWAP1 RETURN JUMPDEST PUSH2 0x7E PUSH1 0x4 DUP1 CALLDATASIZE SUB DUP2 ADD SWAP1 PUSH2 0x79 SWAP2 SWAP1 PUSH2 0x375 JUMP JUMPDEST PUSH2 0xA2 JUMP JUMPDEST STOP JUMPDEST PUSH2 0x9A PUSH1 0x4 DUP1 CALLDATASIZE SUB DUP2 ADD SWAP1 PUSH2 0x95 SWAP2 SWAP1 PUSH2 0x375 JUMP JUMPDEST PUSH2 0x202 JUMP JUMPDEST STOP JUMPDEST PUSH1 0x0 SLOAD DUP2 JUMP JUMPDEST PUSH1 0x0 PUSH1 0x1 PUSH1 0x0 SWAP1 SLOAD SWAP1 PUSH2 0x100 EXP SWAP1 DIV PUSH20 0xFFFFFFFFFFFFFFFFFFFFFFFFFFFFFFFFFFFFFFFF AND PUSH20 0xFFFFFFFFFFFFFFFFFFFFFFFFFFFFFFFFFFFFFFFF AND DUP3 PUSH1 0x40 MLOAD PUSH1 0x24 ADD PUSH2 0xEE SWAP2 SWAP1 PUSH2 0x43C JUMP JUMPDEST PUSH1 0x40 MLOAD PUSH1 0x20 DUP2 DUP4 SUB SUB DUP2 MSTORE SWAP1 PUSH1 0x40 MSTORE PUSH32 0x4018D9AA00000000000000000000000000000000000000000000000000000000 PUSH28 0xFFFFFFFFFFFFFFFFFFFFFFFFFFFFFFFFFFFFFFFFFFFFFFFFFFFFFFFF NOT AND PUSH1 0x20 DUP3 ADD DUP1 MLOAD PUSH28 0xFFFFFFFFFFFFFFFFFFFFFFFFFFFFFFFFFFFFFFFFFFFFFFFFFFFFFFFF DUP4 DUP2 DUP4 AND OR DUP4 MSTORE POP POP POP POP PUSH1 0x40 MLOAD PUSH2 0x178 SWAP2 SWAP1 PUSH2 0x405 JUMP JUMPDEST PUSH1 0x0 PUSH1 0x40 MLOAD DUP1 DUP4 SUB DUP2 PUSH1 0x0 DUP7 GAS CALL SWAP2 POP POP RETURNDATASIZE DUP1 PUSH1 0x0 DUP2 EQ PUSH2 0x1B5 JUMPI PUSH1 0x40 MLOAD SWAP2 POP PUSH1 0x1F NOT PUSH1 0x3F RETURNDATASIZE ADD AND DUP3 ADD PUSH1 0x40 MSTORE RETURNDATASIZE DUP3 MSTORE RETURNDATASIZE PUSH1 0x0 PUSH1 0x20 DUP5 ADD RETURNDATACOPY PUSH2 0x1BA JUMP JUMPDEST PUSH1 0x60 SWAP2 POP JUMPDEST POP POP SWAP1 POP DUP1 PUSH2 0x1FE JUMPI PUSH1 0x40 MLOAD PUSH32 0x8C379A000000000000000000000000000000000000000000000000000000000 DUP2 MSTORE PUSH1 0x4 ADD PUSH2 0x1F5 SWAP1 PUSH2 0x41C JUMP JUMPDEST PUSH1 0x40 MLOAD DUP1 SWAP2 SUB SWAP1 REVERT JUMPDEST POP POP JUMP JUMPDEST PUSH1 0x0 PUSH1 0x1 PUSH1 0x0 SWAP1 SLOAD SWAP1 PUSH2 0x100 EXP SWAP1 DIV PUSH20 0xFFFFFFFFFFFFFFFFFFFFFFFFFFFFFFFFFFFFFFFF AND PUSH20 0xFFFFFFFFFFFFFFFFFFFFFFFFFFFFFFFFFFFFFFFF AND DUP3 PUSH1 0x40 MLOAD PUSH1 0x24 ADD PUSH2 0x24E SWAP2 SWAP1 PUSH2 0x43C JUMP JUMPDEST PUSH1 0x40 MLOAD PUSH1 0x20 DUP2 DUP4 SUB SUB DUP2 MSTORE SWAP1 PUSH1 0x40 MSTORE PUSH32 0x4018D9AA00000000000000000000000000000000000000000000000000000000 PUSH28 0xFFFFFFFFFFFFFFFFFFFFFFFFFFFFFFFFFFFFFFFFFFFFFFFFFFFFFFFF NOT AND PUSH1 0x20 DUP3 ADD DUP1 MLOAD PUSH28 0xFFFFFFFFFFFFFFFFFFFFFFFFFFFFFFFFFFFFFFFFFFFFFFFFFFFFFFFF DUP4 DUP2 DUP4 AND OR DUP4 MSTORE POP POP POP POP PUSH1 0x40 MLOAD PUSH2 0x2D8 SWAP2 SWAP1 PUSH2 0x405 JUMP JUMPDEST PUSH1 0x0 PUSH1 0x40 MLOAD DUP1 DUP4 SUB DUP2 DUP6 GAS DELEGATECALL SWAP2 POP POP RETURNDATASIZE DUP1 PUSH1 0x0 DUP2 EQ PUSH2 0x313 JUMPI PUSH1 0x40 MLOAD SWAP2 POP PUSH1 0x1F NOT PUSH1 0x3F RETURNDATASIZE ADD AND DUP3 ADD PUSH1 0x40 MSTORE RETURNDATASIZE DUP3 MSTORE RETURNDATASIZE PUSH1 0x0 PUSH1 0x20 DUP5 ADD RETURNDATACOPY PUSH2 0x318 JUMP JUMPDEST PUSH1 0x60 SWAP2 POP JUMPDEST POP POP SWAP1 POP DUP1 PUSH2 0x35C JUMPI PUSH1 0x40 MLOAD PUSH32 0x8C379A000000000000000000000000000000000000000000000000000000000 DUP2 MSTORE PUSH1 0x4 ADD PUSH2 0x353 SWAP1 PUSH2 0x41C JUMP JUMPDEST PUSH1 0x40 MLOAD DUP1 SWAP2 SUB SWAP1 REVERT JUMPDEST POP POP JUMP JUMPDEST PUSH1 0x0 DUP2 CALLDATALOAD SWAP1 POP PUSH2 0x36F DUP2 PUSH2 0x4E9 JUMP JUMPDEST SWAP3 SWAP2 POP POP JUMP JUMPDEST PUSH1 0x0 PUSH1 0x20 DUP3 DUP5 SUB SLT ISZERO PUSH2 0x38B JUMPI PUSH2 0x38A PUSH2 0x4BB JUMP JUMPDEST JUMPDEST PUSH1 0x0 PUSH2 0x399 DUP5 DUP3 DUP6 ADD PUSH2 0x360 JUMP JUMPDEST SWAP2 POP POP SWAP3 SWAP2 POP POP JUMP JUMPDEST PUSH1 0x0 PUSH2 0x3AD DUP3 PUSH2 0x457 JUMP JUMPDEST PUSH2 0x3B7 DUP2 DUP6 PUSH2 0x462 JUMP JUMPDEST SWAP4 POP PUSH2 0x3C7 DUP2 DUP6 PUSH1 0x20 DUP7 ADD PUSH2 0x488 JUMP JUMPDEST DUP1 DUP5 ADD SWAP2 POP POP SWAP3 SWAP2 POP POP JUMP JUMPDEST PUSH1 0x0 PUSH2 0x3E0 PUSH1 0x5 DUP4 PUSH2 0x46D JUMP JUMPDEST SWAP2 POP PUSH2 0x3EB DUP3 PUSH2 0x4C0 JUMP JUMPDEST PUSH1 0x20 DUP3 ADD SWAP1 POP SWAP2 SWAP1 POP JUMP JUMPDEST PUSH2 0x3FF DUP2 PUSH2 0x47E JUMP JUMPDEST DUP3 MSTORE POP POP JUMP JUMPDEST PUSH1 0x0 PUSH2 0x411 DUP3 DUP5 PUSH2 0x3A2 JUMP JUMPDEST SWAP2 POP DUP2 SWAP1 POP SWAP3 SWAP2 POP POP JUMP JUMPDEST PUSH1 0x0 PUSH1 0x20 DUP3 ADD SWAP1 POP DUP2 DUP2 SUB PUSH1 0x0 DUP4 ADD MSTORE PUSH2 0x435 DUP2 PUSH2 0x3D3 JUMP JUMPDEST SWAP1 POP SWAP2 SWAP1 POP JUMP JUMPDEST PUSH1 0x0 PUSH1 0x20 DUP3 ADD SWAP1 POP PUSH2 0x451 PUSH1 0x0 DUP4 ADD DUP5 PUSH2 0x3F6 JUMP JUMPDEST SWAP3 SWAP2 POP POP JUMP JUMPDEST PUSH1 0x0 DUP2 MLOAD SWAP1 POP SWAP2 SWAP1 POP JUMP JUMPDEST PUSH1 0x0 DUP2 SWAP1 POP SWAP3 SWAP2 POP POP JUMP JUMPDEST PUSH1 0x0 DUP3 DUP3 MSTORE PUSH1 0x20 DUP3 ADD SWAP1 POP SWAP3 SWAP2 POP POP JUMP JUMPDEST PUSH1 0x0 DUP2 SWAP1 POP SWAP2 SWAP1 POP JUMP JUMPDEST PUSH1 0x0 JUMPDEST DUP4 DUP2 LT ISZERO PUSH2 0x4A6 JUMPI DUP1 DUP3 ADD MLOAD DUP2 DUP5 ADD MSTORE PUSH1 0x20 DUP2 ADD SWAP1 POP PUSH2 0x48B JUMP JUMPDEST DUP4 DUP2 GT ISZERO PUSH2 0x4B5 JUMPI PUSH1 0x0 DUP5 DUP5 ADD MSTORE JUMPDEST POP POP POP POP JUMP JUMPDEST PUSH1 0x0 DUP1 REVERT JUMPDEST PUSH32 0x4572726F72000000000000000000000000000000000000000000000000000000 PUSH1 0x0 DUP3 ADD MSTORE POP JUMP JUMPDEST PUSH2 0x4F2 DUP2 PUSH2 0x47E JUMP JUMPDEST DUP2 EQ PUSH2 0x4FD JUMPI PUSH1 0x0 DUP1 REVERT JUMPDEST POP JUMP INVALID LOG2 PUSH5 0x6970667358 0x22 SLT KECCAK256 0xBC 0xC3 ADDRESS 0xAF SWAP16 PUSH22 0x2C842EF33DD32F8A2E51B70AA07051DEF6741520497D ADDRESS DIV 0xD6 0xDF PUSH5 0x736F6C6343 STOP ADDMOD SMOD STOP CALLER "
				},
				"gasEstimates": {
					"creation": {
						"codeDepositCost": "266800",
						"executionCost": "infinite",
						"totalCost": "infinite"
					},
					"external": {
						"callX(uint256)": "infinite",
						"delegateCallX(uint256)": "infinite",
						"x()": "2407"
					}
				},
				"methodIdentifiers": {
					"callX(uint256)": "ad6de9e6",
					"delegateCallX(uint256)": "e6b346ef",
					"x()": "0c55699c"
				}
			},
			"storageLayout": {
				"storage": [
					{
						"astId": 3,
						"contract": "contracts/Caller.sol:Caller",
						"label": "x",
						"offset": 0,
						"slot": "0",
						"type": "t_uint256"
					},
					{
						"astId": 5,
						"contract": "contracts/Caller.sol:Caller",
						"label": "callee",
						"offset": 0,
						"slot": "1",
						"type": "t_address"
					}
				],
				"types": {
					"t_address": {
						"encoding": "inplace",
						"label": "address",
						"numberOfBytes": "20"
					},
					"t_uint256": {
						"encoding": "inplace",
						"label": "uint256",
						"numberOfBytes": "32"
					}
				}
			},
			"userdoc": {
				"kind": "user",
				"methods": {},
				"version": 1
			}
		}
	}
}