{
	"contracts/Wallet.sol": {
		"Wallet": {
			"abi": [
				{
					"inputs": [],
					"stateMutability": "payable",
					"type": "constructor"
				},
				{
					"inputs": [],
					"name": "deposit",
					"outputs": [],
					"stateMutability": "payable",
					"type": "function"
				},
				{
					"inputs": [],
					"name": "getBalance",
					"outputs": [
						{
							"internalType": "uint256",
							"name": "",
							"type": "uint256"
						}
					],
					"stateMutability": "nonpayable",
					"type": "function"
				},
				{
					"inputs": [],
					"name": "owner",
					"outputs": [
						{
							"internalType": "address payable",
							"name": "",
							"type": "address"
						}
					],
					"stateMutability": "view",
					"type": "function"
				},
				{
					"inputs": [
						{
							"internalType": "address payable",
							"name": "to",
							"type": "address"
						},
						{
							"internalType": "uint256",
							"name": "amount",
							"type": "uint256"
						}
					],
					"name": "transfer",
					"outputs": [],
					"stateMutability": "nonpayable",
					"type": "function"
				},
				{
					"inputs": [
						{
							"internalType": "address payable",
							"name": "to",
							"type": "address"
						}
					],
					"name": "transferFrom",
					"outputs": [],
					"stateMutability": "payable",
					"type": "function"
				},
				{
					"inputs": [
						{
							"internalType": "uint256",
							"name": "amount",
							"type": "uint256"
						}
					],
					"name": "withdraw",
					"outputs": [],
					"stateMutability": "nonpayable",
					"type": "function"
				}
			],
			"devdoc": {
				"kind": "dev",
				"methods": {},
				"version": 1
			},
			"evm": {
				"assembly": "    /* \"contracts/Wallet.sol\":27:729  contract Wallet{\r... */\n  mstore(0x40, 0x80)\n    /* \"contracts/Wallet.sol\":192:202  msg.sender */\n  caller\n    /* \"contracts/Wallet.sol\":176:181  owner */\n  0x00\n  dup1\n    /* \"contracts/Wallet.sol\":176:203  owner = payable(msg.sender) */\n  0x0100\n  exp\n  dup2\n  sload\n  dup2\n  0xffffffffffffffffffffffffffffffffffffffff\n  mul\n  not\n  and\n  swap1\n  dup4\n  0xffffffffffffffffffffffffffffffffffffffff\n  and\n  mul\n  or\n  swap1\n  sstore\n  pop\n    /* \"contracts/Wallet.sol\":27:729  contract Wallet{\r... */\n  dataSize(sub_0)\n  dup1\n  dataOffset(sub_0)\n  0x00\n  codecopy\n  0x00\n  return\nstop\n\nsub_0: assembly {\n        /* \"contracts/Wallet.sol\":27:729  contract Wallet{\r... */\n      mstore(0x40, 0x80)\n      jumpi(tag_1, lt(calldatasize, 0x04))\n      shr(0xe0, calldataload(0x00))\n      dup1\n      0x12065fe0\n      eq\n      tag_2\n      jumpi\n      dup1\n      0x2e1a7d4d\n      eq\n      tag_3\n      jumpi\n      dup1\n      0x8da5cb5b\n      eq\n      tag_4\n      jumpi\n      dup1\n      0xa9059cbb\n      eq\n      tag_5\n      jumpi\n      dup1\n      0xd0e30db0\n      eq\n      tag_6\n      jumpi\n      dup1\n      0xe4759493\n      eq\n      tag_7\n      jumpi\n    tag_1:\n      0x00\n      dup1\n      revert\n        /* \"contracts/Wallet.sol\":529:619  function getBalance() public returns (uint){\r... */\n    tag_2:\n      callvalue\n      dup1\n      iszero\n      tag_8\n      jumpi\n      0x00\n      dup1\n      revert\n    tag_8:\n      pop\n      tag_9\n      tag_10\n      jump\t// in\n    tag_9:\n      mload(0x40)\n      tag_11\n      swap2\n      swap1\n      tag_12\n      jump\t// in\n    tag_11:\n      mload(0x40)\n      dup1\n      swap2\n      sub\n      swap1\n      return\n        /* \"contracts/Wallet.sol\":319:408  function withdraw(uint amount) public onlyOwner {\r... */\n    tag_3:\n      callvalue\n      dup1\n      iszero\n      tag_13\n      jumpi\n      0x00\n      dup1\n      revert\n    tag_13:\n      pop\n      tag_14\n      0x04\n      dup1\n      calldatasize\n      sub\n      dup2\n      add\n      swap1\n      tag_15\n      swap2\n      swap1\n      tag_16\n      jump\t// in\n    tag_15:\n      tag_17\n      jump\t// in\n    tag_14:\n      stop\n        /* \"contracts/Wallet.sol\":100:128  address payable public owner */\n    tag_4:\n      callvalue\n      dup1\n      iszero\n      tag_18\n      jumpi\n      0x00\n      dup1\n      revert\n    tag_18:\n      pop\n      tag_19\n      tag_20\n      jump\t// in\n    tag_19:\n      mload(0x40)\n      tag_21\n      swap2\n      swap1\n      tag_22\n      jump\t// in\n    tag_21:\n      mload(0x40)\n      dup1\n      swap2\n      sub\n      swap1\n      return\n        /* \"contracts/Wallet.sol\":416:521  function transfer(address payable to, uint amount) public onlyOwner{\r... */\n    tag_5:\n      callvalue\n      dup1\n      iszero\n      tag_23\n      jumpi\n      0x00\n      dup1\n      revert\n    tag_23:\n      pop\n      tag_24\n      0x04\n      dup1\n      calldatasize\n      sub\n      dup2\n      add\n      swap1\n      tag_25\n      swap2\n      swap1\n      tag_26\n      jump\t// in\n    tag_25:\n      tag_27\n      jump\t// in\n    tag_24:\n      stop\n        /* \"contracts/Wallet.sol\":49:92  function deposit() public payable{\r... */\n    tag_6:\n      tag_28\n      tag_29\n      jump\t// in\n    tag_28:\n      stop\n        /* \"contracts/Wallet.sol\":627:726  function transferFrom(address payable to) public payable{\r... */\n    tag_7:\n      tag_30\n      0x04\n      dup1\n      calldatasize\n      sub\n      dup2\n      add\n      swap1\n      tag_31\n      swap2\n      swap1\n      tag_32\n      jump\t// in\n    tag_31:\n      tag_33\n      jump\t// in\n    tag_30:\n      stop\n        /* \"contracts/Wallet.sol\":529:619  function getBalance() public returns (uint){\r... */\n    tag_10:\n        /* \"contracts/Wallet.sol\":567:571  uint */\n      0x00\n        /* \"contracts/Wallet.sol\":590:611  address(this).balance */\n      selfbalance\n        /* \"contracts/Wallet.sol\":583:611  return address(this).balance */\n      swap1\n      pop\n        /* \"contracts/Wallet.sol\":529:619  function getBalance() public returns (uint){\r... */\n      swap1\n      jump\t// out\n        /* \"contracts/Wallet.sol\":319:408  function withdraw(uint amount) public onlyOwner {\r... */\n    tag_17:\n        /* \"contracts/Wallet.sol\":272:277  owner */\n      0x00\n      dup1\n      sload\n      swap1\n      0x0100\n      exp\n      swap1\n      div\n      0xffffffffffffffffffffffffffffffffffffffff\n      and\n        /* \"contracts/Wallet.sol\":258:277  msg.sender == owner */\n      0xffffffffffffffffffffffffffffffffffffffff\n      and\n        /* \"contracts/Wallet.sol\":258:268  msg.sender */\n      caller\n        /* \"contracts/Wallet.sol\":258:277  msg.sender == owner */\n      0xffffffffffffffffffffffffffffffffffffffff\n      and\n      eq\n        /* \"contracts/Wallet.sol\":250:291  require(msg.sender == owner, \"Not owner\") */\n      tag_36\n      jumpi\n      mload(0x40)\n      0x08c379a000000000000000000000000000000000000000000000000000000000\n      dup2\n      mstore\n      0x04\n      add\n      tag_37\n      swap1\n      tag_38\n      jump\t// in\n    tag_37:\n      mload(0x40)\n      dup1\n      swap2\n      sub\n      swap1\n      revert\n    tag_36:\n        /* \"contracts/Wallet.sol\":378:383  owner */\n      0x00\n      dup1\n      sload\n      swap1\n      0x0100\n      exp\n      swap1\n      div\n      0xffffffffffffffffffffffffffffffffffffffff\n      and\n        /* \"contracts/Wallet.sol\":378:392  owner.transfer */\n      0xffffffffffffffffffffffffffffffffffffffff\n      and\n        /* \"contracts/Wallet.sol\":378:400  owner.transfer(amount) */\n      0x08fc\n        /* \"contracts/Wallet.sol\":393:399  amount */\n      dup3\n        /* \"contracts/Wallet.sol\":378:400  owner.transfer(amount) */\n      swap1\n      dup2\n      iszero\n      mul\n      swap1\n      mload(0x40)\n      0x00\n      mload(0x40)\n      dup1\n      dup4\n      sub\n      dup2\n      dup6\n      dup9\n      dup9\n      call\n      swap4\n      pop\n      pop\n      pop\n      pop\n      iszero\n      dup1\n      iszero\n      tag_41\n      jumpi\n      returndatasize\n      0x00\n      dup1\n      returndatacopy\n      revert(0x00, returndatasize)\n    tag_41:\n      pop\n        /* \"contracts/Wallet.sol\":319:408  function withdraw(uint amount) public onlyOwner {\r... */\n      pop\n      jump\t// out\n        /* \"contracts/Wallet.sol\":100:128  address payable public owner */\n    tag_20:\n      0x00\n      dup1\n      sload\n      swap1\n      0x0100\n      exp\n      swap1\n      div\n      0xffffffffffffffffffffffffffffffffffffffff\n      and\n      dup2\n      jump\t// out\n        /* \"contracts/Wallet.sol\":416:521  function transfer(address payable to, uint amount) public onlyOwner{\r... */\n    tag_27:\n        /* \"contracts/Wallet.sol\":272:277  owner */\n      0x00\n      dup1\n      sload\n      swap1\n      0x0100\n      exp\n      swap1\n      div\n      0xffffffffffffffffffffffffffffffffffffffff\n      and\n        /* \"contracts/Wallet.sol\":258:277  msg.sender == owner */\n      0xffffffffffffffffffffffffffffffffffffffff\n      and\n        /* \"contracts/Wallet.sol\":258:268  msg.sender */\n      caller\n        /* \"contracts/Wallet.sol\":258:277  msg.sender == owner */\n      0xffffffffffffffffffffffffffffffffffffffff\n      and\n      eq\n        /* \"contracts/Wallet.sol\":250:291  require(msg.sender == owner, \"Not owner\") */\n      tag_43\n      jumpi\n      mload(0x40)\n      0x08c379a000000000000000000000000000000000000000000000000000000000\n      dup2\n      mstore\n      0x04\n      add\n      tag_44\n      swap1\n      tag_38\n      jump\t// in\n    tag_44:\n      mload(0x40)\n      dup1\n      swap2\n      sub\n      swap1\n      revert\n    tag_43:\n        /* \"contracts/Wallet.sol\":494:496  to */\n      dup2\n        /* \"contracts/Wallet.sol\":494:505  to.transfer */\n      0xffffffffffffffffffffffffffffffffffffffff\n      and\n        /* \"contracts/Wallet.sol\":494:513  to.transfer(amount) */\n      0x08fc\n        /* \"contracts/Wallet.sol\":506:512  amount */\n      dup3\n        /* \"contracts/Wallet.sol\":494:513  to.transfer(amount) */\n      swap1\n      dup2\n      iszero\n      mul\n      swap1\n      mload(0x40)\n      0x00\n      mload(0x40)\n      dup1\n      dup4\n      sub\n      dup2\n      dup6\n      dup9\n      dup9\n      call\n      swap4\n      pop\n      pop\n      pop\n      pop\n      iszero\n      dup1\n      iszero\n      tag_47\n      jumpi\n      returndatasize\n      0x00\n      dup1\n      returndatacopy\n      revert(0x00, returndatasize)\n    tag_47:\n      pop\n        /* \"contracts/Wallet.sol\":416:521  function transfer(address payable to, uint amount) public onlyOwner{\r... */\n      pop\n      pop\n      jump\t// out\n        /* \"contracts/Wallet.sol\":49:92  function deposit() public payable{\r... */\n    tag_29:\n      jump\t// out\n        /* \"contracts/Wallet.sol\":627:726  function transferFrom(address payable to) public payable{\r... */\n    tag_33:\n      pop\n      jump\t// out\n        /* \"#utility.yul\":7:162   */\n    tag_51:\n        /* \"#utility.yul\":61:66   */\n      0x00\n        /* \"#utility.yul\":99:105   */\n      dup2\n        /* \"#utility.yul\":86:106   */\n      calldataload\n        /* \"#utility.yul\":77:106   */\n      swap1\n      pop\n        /* \"#utility.yul\":115:156   */\n      tag_53\n        /* \"#utility.yul\":150:155   */\n      dup2\n        /* \"#utility.yul\":115:156   */\n      tag_54\n      jump\t// in\n    tag_53:\n        /* \"#utility.yul\":7:162   */\n      swap3\n      swap2\n      pop\n      pop\n      jump\t// out\n        /* \"#utility.yul\":168:307   */\n    tag_55:\n        /* \"#utility.yul\":214:219   */\n      0x00\n        /* \"#utility.yul\":252:258   */\n      dup2\n        /* \"#utility.yul\":239:259   */\n      calldataload\n        /* \"#utility.yul\":230:259   */\n      swap1\n      pop\n        /* \"#utility.yul\":268:301   */\n      tag_57\n        /* \"#utility.yul\":295:300   */\n      dup2\n        /* \"#utility.yul\":268:301   */\n      tag_58\n      jump\t// in\n    tag_57:\n        /* \"#utility.yul\":168:307   */\n      swap3\n      swap2\n      pop\n      pop\n      jump\t// out\n        /* \"#utility.yul\":313:658   */\n    tag_32:\n        /* \"#utility.yul\":380:386   */\n      0x00\n        /* \"#utility.yul\":429:431   */\n      0x20\n        /* \"#utility.yul\":417:426   */\n      dup3\n        /* \"#utility.yul\":408:415   */\n      dup5\n        /* \"#utility.yul\":404:427   */\n      sub\n        /* \"#utility.yul\":400:432   */\n      slt\n        /* \"#utility.yul\":397:516   */\n      iszero\n      tag_60\n      jumpi\n        /* \"#utility.yul\":435:514   */\n      tag_61\n      tag_62\n      jump\t// in\n    tag_61:\n        /* \"#utility.yul\":397:516   */\n    tag_60:\n        /* \"#utility.yul\":555:556   */\n      0x00\n        /* \"#utility.yul\":580:641   */\n      tag_63\n        /* \"#utility.yul\":633:640   */\n      dup5\n        /* \"#utility.yul\":624:630   */\n      dup3\n        /* \"#utility.yul\":613:622   */\n      dup6\n        /* \"#utility.yul\":609:631   */\n      add\n        /* \"#utility.yul\":580:641   */\n      tag_51\n      jump\t// in\n    tag_63:\n        /* \"#utility.yul\":570:641   */\n      swap2\n      pop\n        /* \"#utility.yul\":526:651   */\n      pop\n        /* \"#utility.yul\":313:658   */\n      swap3\n      swap2\n      pop\n      pop\n      jump\t// out\n        /* \"#utility.yul\":664:1154   */\n    tag_26:\n        /* \"#utility.yul\":740:746   */\n      0x00\n        /* \"#utility.yul\":748:754   */\n      dup1\n        /* \"#utility.yul\":797:799   */\n      0x40\n        /* \"#utility.yul\":785:794   */\n      dup4\n        /* \"#utility.yul\":776:783   */\n      dup6\n        /* \"#utility.yul\":772:795   */\n      sub\n        /* \"#utility.yul\":768:800   */\n      slt\n        /* \"#utility.yul\":765:884   */\n      iszero\n      tag_65\n      jumpi\n        /* \"#utility.yul\":803:882   */\n      tag_66\n      tag_62\n      jump\t// in\n    tag_66:\n        /* \"#utility.yul\":765:884   */\n    tag_65:\n        /* \"#utility.yul\":923:924   */\n      0x00\n        /* \"#utility.yul\":948:1009   */\n      tag_67\n        /* \"#utility.yul\":1001:1008   */\n      dup6\n        /* \"#utility.yul\":992:998   */\n      dup3\n        /* \"#utility.yul\":981:990   */\n      dup7\n        /* \"#utility.yul\":977:999   */\n      add\n        /* \"#utility.yul\":948:1009   */\n      tag_51\n      jump\t// in\n    tag_67:\n        /* \"#utility.yul\":938:1009   */\n      swap3\n      pop\n        /* \"#utility.yul\":894:1019   */\n      pop\n        /* \"#utility.yul\":1058:1060   */\n      0x20\n        /* \"#utility.yul\":1084:1137   */\n      tag_68\n        /* \"#utility.yul\":1129:1136   */\n      dup6\n        /* \"#utility.yul\":1120:1126   */\n      dup3\n        /* \"#utility.yul\":1109:1118   */\n      dup7\n        /* \"#utility.yul\":1105:1127   */\n      add\n        /* \"#utility.yul\":1084:1137   */\n      tag_55\n      jump\t// in\n    tag_68:\n        /* \"#utility.yul\":1074:1137   */\n      swap2\n      pop\n        /* \"#utility.yul\":1029:1147   */\n      pop\n        /* \"#utility.yul\":664:1154   */\n      swap3\n      pop\n      swap3\n      swap1\n      pop\n      jump\t// out\n        /* \"#utility.yul\":1160:1489   */\n    tag_16:\n        /* \"#utility.yul\":1219:1225   */\n      0x00\n        /* \"#utility.yul\":1268:1270   */\n      0x20\n        /* \"#utility.yul\":1256:1265   */\n      dup3\n        /* \"#utility.yul\":1247:1254   */\n      dup5\n        /* \"#utility.yul\":1243:1266   */\n      sub\n        /* \"#utility.yul\":1239:1271   */\n      slt\n        /* \"#utility.yul\":1236:1355   */\n      iszero\n      tag_70\n      jumpi\n        /* \"#utility.yul\":1274:1353   */\n      tag_71\n      tag_62\n      jump\t// in\n    tag_71:\n        /* \"#utility.yul\":1236:1355   */\n    tag_70:\n        /* \"#utility.yul\":1394:1395   */\n      0x00\n        /* \"#utility.yul\":1419:1472   */\n      tag_72\n        /* \"#utility.yul\":1464:1471   */\n      dup5\n        /* \"#utility.yul\":1455:1461   */\n      dup3\n        /* \"#utility.yul\":1444:1453   */\n      dup6\n        /* \"#utility.yul\":1440:1462   */\n      add\n        /* \"#utility.yul\":1419:1472   */\n      tag_55\n      jump\t// in\n    tag_72:\n        /* \"#utility.yul\":1409:1472   */\n      swap2\n      pop\n        /* \"#utility.yul\":1365:1482   */\n      pop\n        /* \"#utility.yul\":1160:1489   */\n      swap3\n      swap2\n      pop\n      pop\n      jump\t// out\n        /* \"#utility.yul\":1495:1637   */\n    tag_73:\n        /* \"#utility.yul\":1598:1630   */\n      tag_75\n        /* \"#utility.yul\":1624:1629   */\n      dup2\n        /* \"#utility.yul\":1598:1630   */\n      tag_76\n      jump\t// in\n    tag_75:\n        /* \"#utility.yul\":1593:1596   */\n      dup3\n        /* \"#utility.yul\":1586:1631   */\n      mstore\n        /* \"#utility.yul\":1495:1637   */\n      pop\n      pop\n      jump\t// out\n        /* \"#utility.yul\":1643:2008   */\n    tag_77:\n        /* \"#utility.yul\":1785:1788   */\n      0x00\n        /* \"#utility.yul\":1806:1872   */\n      tag_79\n        /* \"#utility.yul\":1870:1871   */\n      0x09\n        /* \"#utility.yul\":1865:1868   */\n      dup4\n        /* \"#utility.yul\":1806:1872   */\n      tag_80\n      jump\t// in\n    tag_79:\n        /* \"#utility.yul\":1799:1872   */\n      swap2\n      pop\n        /* \"#utility.yul\":1881:1974   */\n      tag_81\n        /* \"#utility.yul\":1970:1973   */\n      dup3\n        /* \"#utility.yul\":1881:1974   */\n      tag_82\n      jump\t// in\n    tag_81:\n        /* \"#utility.yul\":1999:2001   */\n      0x20\n        /* \"#utility.yul\":1994:1997   */\n      dup3\n        /* \"#utility.yul\":1990:2002   */\n      add\n        /* \"#utility.yul\":1983:2002   */\n      swap1\n      pop\n        /* \"#utility.yul\":1643:2008   */\n      swap2\n      swap1\n      pop\n      jump\t// out\n        /* \"#utility.yul\":2014:2132   */\n    tag_83:\n        /* \"#utility.yul\":2101:2125   */\n      tag_85\n        /* \"#utility.yul\":2119:2124   */\n      dup2\n        /* \"#utility.yul\":2101:2125   */\n      tag_86\n      jump\t// in\n    tag_85:\n        /* \"#utility.yul\":2096:2099   */\n      dup3\n        /* \"#utility.yul\":2089:2126   */\n      mstore\n        /* \"#utility.yul\":2014:2132   */\n      pop\n      pop\n      jump\t// out\n        /* \"#utility.yul\":2138:2392   */\n    tag_22:\n        /* \"#utility.yul\":2247:2251   */\n      0x00\n        /* \"#utility.yul\":2285:2287   */\n      0x20\n        /* \"#utility.yul\":2274:2283   */\n      dup3\n        /* \"#utility.yul\":2270:2288   */\n      add\n        /* \"#utility.yul\":2262:2288   */\n      swap1\n      pop\n        /* \"#utility.yul\":2298:2385   */\n      tag_88\n        /* \"#utility.yul\":2382:2383   */\n      0x00\n        /* \"#utility.yul\":2371:2380   */\n      dup4\n        /* \"#utility.yul\":2367:2384   */\n      add\n        /* \"#utility.yul\":2358:2364   */\n      dup5\n        /* \"#utility.yul\":2298:2385   */\n      tag_73\n      jump\t// in\n    tag_88:\n        /* \"#utility.yul\":2138:2392   */\n      swap3\n      swap2\n      pop\n      pop\n      jump\t// out\n        /* \"#utility.yul\":2398:2817   */\n    tag_38:\n        /* \"#utility.yul\":2564:2568   */\n      0x00\n        /* \"#utility.yul\":2602:2604   */\n      0x20\n        /* \"#utility.yul\":2591:2600   */\n      dup3\n        /* \"#utility.yul\":2587:2605   */\n      add\n        /* \"#utility.yul\":2579:2605   */\n      swap1\n      pop\n        /* \"#utility.yul\":2651:2660   */\n      dup2\n        /* \"#utility.yul\":2645:2649   */\n      dup2\n        /* \"#utility.yul\":2641:2661   */\n      sub\n        /* \"#utility.yul\":2637:2638   */\n      0x00\n        /* \"#utility.yul\":2626:2635   */\n      dup4\n        /* \"#utility.yul\":2622:2639   */\n      add\n        /* \"#utility.yul\":2615:2662   */\n      mstore\n        /* \"#utility.yul\":2679:2810   */\n      tag_90\n        /* \"#utility.yul\":2805:2809   */\n      dup2\n        /* \"#utility.yul\":2679:2810   */\n      tag_77\n      jump\t// in\n    tag_90:\n        /* \"#utility.yul\":2671:2810   */\n      swap1\n      pop\n        /* \"#utility.yul\":2398:2817   */\n      swap2\n      swap1\n      pop\n      jump\t// out\n        /* \"#utility.yul\":2823:3045   */\n    tag_12:\n        /* \"#utility.yul\":2916:2920   */\n      0x00\n        /* \"#utility.yul\":2954:2956   */\n      0x20\n        /* \"#utility.yul\":2943:2952   */\n      dup3\n        /* \"#utility.yul\":2939:2957   */\n      add\n        /* \"#utility.yul\":2931:2957   */\n      swap1\n      pop\n        /* \"#utility.yul\":2967:3038   */\n      tag_92\n        /* \"#utility.yul\":3035:3036   */\n      0x00\n        /* \"#utility.yul\":3024:3033   */\n      dup4\n        /* \"#utility.yul\":3020:3037   */\n      add\n        /* \"#utility.yul\":3011:3017   */\n      dup5\n        /* \"#utility.yul\":2967:3038   */\n      tag_83\n      jump\t// in\n    tag_92:\n        /* \"#utility.yul\":2823:3045   */\n      swap3\n      swap2\n      pop\n      pop\n      jump\t// out\n        /* \"#utility.yul\":3132:3301   */\n    tag_80:\n        /* \"#utility.yul\":3216:3227   */\n      0x00\n        /* \"#utility.yul\":3250:3256   */\n      dup3\n        /* \"#utility.yul\":3245:3248   */\n      dup3\n        /* \"#utility.yul\":3238:3257   */\n      mstore\n        /* \"#utility.yul\":3290:3294   */\n      0x20\n        /* \"#utility.yul\":3285:3288   */\n      dup3\n        /* \"#utility.yul\":3281:3295   */\n      add\n        /* \"#utility.yul\":3266:3295   */\n      swap1\n      pop\n        /* \"#utility.yul\":3132:3301   */\n      swap3\n      swap2\n      pop\n      pop\n      jump\t// out\n        /* \"#utility.yul\":3307:3411   */\n    tag_76:\n        /* \"#utility.yul\":3352:3359   */\n      0x00\n        /* \"#utility.yul\":3381:3405   */\n      tag_97\n        /* \"#utility.yul\":3399:3404   */\n      dup3\n        /* \"#utility.yul\":3381:3405   */\n      tag_98\n      jump\t// in\n    tag_97:\n        /* \"#utility.yul\":3370:3405   */\n      swap1\n      pop\n        /* \"#utility.yul\":3307:3411   */\n      swap2\n      swap1\n      pop\n      jump\t// out\n        /* \"#utility.yul\":3417:3543   */\n    tag_98:\n        /* \"#utility.yul\":3454:3461   */\n      0x00\n        /* \"#utility.yul\":3494:3536   */\n      0xffffffffffffffffffffffffffffffffffffffff\n        /* \"#utility.yul\":3487:3492   */\n      dup3\n        /* \"#utility.yul\":3483:3537   */\n      and\n        /* \"#utility.yul\":3472:3537   */\n      swap1\n      pop\n        /* \"#utility.yul\":3417:3543   */\n      swap2\n      swap1\n      pop\n      jump\t// out\n        /* \"#utility.yul\":3549:3626   */\n    tag_86:\n        /* \"#utility.yul\":3586:3593   */\n      0x00\n        /* \"#utility.yul\":3615:3620   */\n      dup2\n        /* \"#utility.yul\":3604:3620   */\n      swap1\n      pop\n        /* \"#utility.yul\":3549:3626   */\n      swap2\n      swap1\n      pop\n      jump\t// out\n        /* \"#utility.yul\":3755:3872   */\n    tag_62:\n        /* \"#utility.yul\":3864:3865   */\n      0x00\n        /* \"#utility.yul\":3861:3862   */\n      dup1\n        /* \"#utility.yul\":3854:3866   */\n      revert\n        /* \"#utility.yul\":3878:4037   */\n    tag_82:\n        /* \"#utility.yul\":4018:4029   */\n      0x4e6f74206f776e65720000000000000000000000000000000000000000000000\n        /* \"#utility.yul\":4014:4015   */\n      0x00\n        /* \"#utility.yul\":4006:4012   */\n      dup3\n        /* \"#utility.yul\":4002:4016   */\n      add\n        /* \"#utility.yul\":3995:4030   */\n      mstore\n        /* \"#utility.yul\":3878:4037   */\n      pop\n      jump\t// out\n        /* \"#utility.yul\":4043:4181   */\n    tag_54:\n        /* \"#utility.yul\":4124:4156   */\n      tag_106\n        /* \"#utility.yul\":4150:4155   */\n      dup2\n        /* \"#utility.yul\":4124:4156   */\n      tag_76\n      jump\t// in\n    tag_106:\n        /* \"#utility.yul\":4117:4122   */\n      dup2\n        /* \"#utility.yul\":4114:4157   */\n      eq\n        /* \"#utility.yul\":4104:4175   */\n      tag_107\n      jumpi\n        /* \"#utility.yul\":4171:4172   */\n      0x00\n        /* \"#utility.yul\":4168:4169   */\n      dup1\n        /* \"#utility.yul\":4161:4173   */\n      revert\n        /* \"#utility.yul\":4104:4175   */\n    tag_107:\n        /* \"#utility.yul\":4043:4181   */\n      pop\n      jump\t// out\n        /* \"#utility.yul\":4187:4309   */\n    tag_58:\n        /* \"#utility.yul\":4260:4284   */\n      tag_109\n        /* \"#utility.yul\":4278:4283   */\n      dup2\n        /* \"#utility.yul\":4260:4284   */\n      tag_86\n      jump\t// in\n    tag_109:\n        /* \"#utility.yul\":4253:4258   */\n      dup2\n        /* \"#utility.yul\":4250:4285   */\n      eq\n        /* \"#utility.yul\":4240:4303   */\n      tag_110\n      jumpi\n        /* \"#utility.yul\":4299:4300   */\n      0x00\n        /* \"#utility.yul\":4296:4297   */\n      dup1\n        /* \"#utility.yul\":4289:4301   */\n      revert\n        /* \"#utility.yul\":4240:4303   */\n    tag_110:\n        /* \"#utility.yul\":4187:4309   */\n      pop\n      jump\t// out\n\n    auxdata: 0xa264697066735822122060f9acab77b19c371e5ccf736be0c8759559089e1811eb9ea31c5dbecb84d80364736f6c63430008070033\n}\n",
				"bytecode": {
					"linkReferences": {},
					"object": "6080604052336000806101000a81548173ffffffffffffffffffffffffffffffffffffffff021916908373ffffffffffffffffffffffffffffffffffffffff160217905550610564806100536000396000f3fe6080604052600436106100555760003560e01c806312065fe01461005a5780632e1a7d4d146100855780638da5cb5b146100ae578063a9059cbb146100d9578063d0e30db014610102578063e47594931461010c575b600080fd5b34801561006657600080fd5b5061006f610128565b60405161007c919061046a565b60405180910390f35b34801561009157600080fd5b506100ac60048036038101906100a791906103c1565b610130565b005b3480156100ba57600080fd5b506100c3610228565b6040516100d0919061042f565b60405180910390f35b3480156100e557600080fd5b5061010060048036038101906100fb9190610381565b61024c565b005b61010a610325565b005b61012660048036038101906101219190610354565b610327565b005b600047905090565b60008054906101000a900473ffffffffffffffffffffffffffffffffffffffff1673ffffffffffffffffffffffffffffffffffffffff163373ffffffffffffffffffffffffffffffffffffffff16146101be576040517f08c379a00000000000000000000000000000000000000000000000000000000081526004016101b59061044a565b60405180910390fd5b60008054906101000a900473ffffffffffffffffffffffffffffffffffffffff1673ffffffffffffffffffffffffffffffffffffffff166108fc829081150290604051600060405180830381858888f19350505050158015610224573d6000803e3d6000fd5b5050565b60008054906101000a900473ffffffffffffffffffffffffffffffffffffffff1681565b60008054906101000a900473ffffffffffffffffffffffffffffffffffffffff1673ffffffffffffffffffffffffffffffffffffffff163373ffffffffffffffffffffffffffffffffffffffff16146102da576040517f08c379a00000000000000000000000000000000000000000000000000000000081526004016102d19061044a565b60405180910390fd5b8173ffffffffffffffffffffffffffffffffffffffff166108fc829081150290604051600060405180830381858888f19350505050158015610320573d6000803e3d6000fd5b505050565b565b50565b60008135905061033981610500565b92915050565b60008135905061034e81610517565b92915050565b60006020828403121561036a576103696104d2565b5b60006103788482850161032a565b91505092915050565b60008060408385031215610398576103976104d2565b5b60006103a68582860161032a565b92505060206103b78582860161033f565b9150509250929050565b6000602082840312156103d7576103d66104d2565b5b60006103e58482850161033f565b91505092915050565b6103f781610496565b82525050565b600061040a600983610485565b9150610415826104d7565b602082019050919050565b610429816104c8565b82525050565b600060208201905061044460008301846103ee565b92915050565b60006020820190508181036000830152610463816103fd565b9050919050565b600060208201905061047f6000830184610420565b92915050565b600082825260208201905092915050565b60006104a1826104a8565b9050919050565b600073ffffffffffffffffffffffffffffffffffffffff82169050919050565b6000819050919050565b600080fd5b7f4e6f74206f776e65720000000000000000000000000000000000000000000000600082015250565b61050981610496565b811461051457600080fd5b50565b610520816104c8565b811461052b57600080fd5b5056fea264697066735822122060f9acab77b19c371e5ccf736be0c8759559089e1811eb9ea31c5dbecb84d80364736f6c63430008070033",
					"opcodes": "PUSH1 0x80 PUSH1 0x40 MSTORE CALLER PUSH1 0x0 DUP1 PUSH2 0x100 EXP DUP2 SLOAD DUP2 PUSH20 0xFFFFFFFFFFFFFFFFFFFFFFFFFFFFFFFFFFFFFFFF MUL NOT AND SWAP1 DUP4 PUSH20 0xFFFFFFFFFFFFFFFFFFFFFFFFFFFFFFFFFFFFFFFF AND MUL OR SWAP1 SSTORE POP PUSH2 0x564 DUP1 PUSH2 0x53 PUSH1 0x0 CODECOPY PUSH1 0x0 RETURN INVALID PUSH1 0x80 PUSH1 0x40 MSTORE PUSH1 0x4 CALLDATASIZE LT PUSH2 0x55 JUMPI PUSH1 0x0 CALLDATALOAD PUSH1 0xE0 SHR DUP1 PUSH4 0x12065FE0 EQ PUSH2 0x5A JUMPI DUP1 PUSH4 0x2E1A7D4D EQ PUSH2 0x85 JUMPI DUP1 PUSH4 0x8DA5CB5B EQ PUSH2 0xAE JUMPI DUP1 PUSH4 0xA9059CBB EQ PUSH2 0xD9 JUMPI DUP1 PUSH4 0xD0E30DB0 EQ PUSH2 0x102 JUMPI DUP1 PUSH4 0xE4759493 EQ PUSH2 0x10C JUMPI JUMPDEST PUSH1 0x0 DUP1 REVERT JUMPDEST CALLVALUE DUP1 ISZERO PUSH2 0x66 JUMPI PUSH1 0x0 DUP1 REVERT JUMPDEST POP PUSH2 0x6F PUSH2 0x128 JUMP JUMPDEST PUSH1 0x40 MLOAD PUSH2 0x7C SWAP2 SWAP1 PUSH2 0x46A JUMP JUMPDEST PUSH1 0x40 MLOAD DUP1 SWAP2 SUB SWAP1 RETURN JUMPDEST CALLVALUE DUP1 ISZERO PUSH2 0x91 JUMPI PUSH1 0x0 DUP1 REVERT JUMPDEST POP PUSH2 0xAC PUSH1 0x4 DUP1 CALLDATASIZE SUB DUP2 ADD SWAP1 PUSH2 0xA7 SWAP2 SWAP1 PUSH2 0x3C1 JUMP JUMPDEST PUSH2 0x130 JUMP JUMPDEST STOP JUMPDEST CALLVALUE DUP1 ISZERO PUSH2 0xBA JUMPI PUSH1 0x0 DUP1 REVERT JUMPDEST POP PUSH2 0xC3 PUSH2 0x228 JUMP JUMPDEST PUSH1 0x40 MLOAD PUSH2 0xD0 SWAP2 SWAP1 PUSH2 0x42F JUMP JUMPDEST PUSH1 0x40 MLOAD DUP1 SWAP2 SUB SWAP1 RETURN JUMPDEST CALLVALUE DUP1 ISZERO PUSH2 0xE5 JUMPI PUSH1 0x0 DUP1 REVERT JUMPDEST POP PUSH2 0x100 PUSH1 0x4 DUP1 CALLDATASIZE SUB DUP2 ADD SWAP1 PUSH2 0xFB SWAP2 SWAP1 PUSH2 0x381 JUMP JUMPDEST PUSH2 0x24C JUMP JUMPDEST STOP JUMPDEST PUSH2 0x10A PUSH2 0x325 JUMP JUMPDEST STOP JUMPDEST PUSH2 0x126 PUSH1 0x4 DUP1 CALLDATASIZE SUB DUP2 ADD SWAP1 PUSH2 0x121 SWAP2 SWAP1 PUSH2 0x354 JUMP JUMPDEST PUSH2 0x327 JUMP JUMPDEST STOP JUMPDEST PUSH1 0x0 SELFBALANCE SWAP1 POP SWAP1 JUMP JUMPDEST PUSH1 0x0 DUP1 SLOAD SWAP1 PUSH2 0x100 EXP SWAP1 DIV PUSH20 0xFFFFFFFFFFFFFFFFFFFFFFFFFFFFFFFFFFFFFFFF AND PUSH20 0xFFFFFFFFFFFFFFFFFFFFFFFFFFFFFFFFFFFFFFFF AND CALLER PUSH20 0xFFFFFFFFFFFFFFFFFFFFFFFFFFFFFFFFFFFFFFFF AND EQ PUSH2 0x1BE JUMPI PUSH1 0x40 MLOAD PUSH32 0x8C379A000000000000000000000000000000000000000000000000000000000 DUP2 MSTORE PUSH1 0x4 ADD PUSH2 0x1B5 SWAP1 PUSH2 0x44A JUMP JUMPDEST PUSH1 0x40 MLOAD DUP1 SWAP2 SUB SWAP1 REVERT JUMPDEST PUSH1 0x0 DUP1 SLOAD SWAP1 PUSH2 0x100 EXP SWAP1 DIV PUSH20 0xFFFFFFFFFFFFFFFFFFFFFFFFFFFFFFFFFFFFFFFF AND PUSH20 0xFFFFFFFFFFFFFFFFFFFFFFFFFFFFFFFFFFFFFFFF AND PUSH2 0x8FC DUP3 SWAP1 DUP2 ISZERO MUL SWAP1 PUSH1 0x40 MLOAD PUSH1 0x0 PUSH1 0x40 MLOAD DUP1 DUP4 SUB DUP2 DUP6 DUP9 DUP9 CALL SWAP4 POP POP POP POP ISZERO DUP1 ISZERO PUSH2 0x224 JUMPI RETURNDATASIZE PUSH1 0x0 DUP1 RETURNDATACOPY RETURNDATASIZE PUSH1 0x0 REVERT JUMPDEST POP POP JUMP JUMPDEST PUSH1 0x0 DUP1 SLOAD SWAP1 PUSH2 0x100 EXP SWAP1 DIV PUSH20 0xFFFFFFFFFFFFFFFFFFFFFFFFFFFFFFFFFFFFFFFF AND DUP2 JUMP JUMPDEST PUSH1 0x0 DUP1 SLOAD SWAP1 PUSH2 0x100 EXP SWAP1 DIV PUSH20 0xFFFFFFFFFFFFFFFFFFFFFFFFFFFFFFFFFFFFFFFF AND PUSH20 0xFFFFFFFFFFFFFFFFFFFFFFFFFFFFFFFFFFFFFFFF AND CALLER PUSH20 0xFFFFFFFFFFFFFFFFFFFFFFFFFFFFFFFFFFFFFFFF AND EQ PUSH2 0x2DA JUMPI PUSH1 0x40 MLOAD PUSH32 0x8C379A000000000000000000000000000000000000000000000000000000000 DUP2 MSTORE PUSH1 0x4 ADD PUSH2 0x2D1 SWAP1 PUSH2 0x44A JUMP JUMPDEST PUSH1 0x40 MLOAD DUP1 SWAP2 SUB SWAP1 REVERT JUMPDEST DUP2 PUSH20 0xFFFFFFFFFFFFFFFFFFFFFFFFFFFFFFFFFFFFFFFF AND PUSH2 0x8FC DUP3 SWAP1 DUP2 ISZERO MUL SWAP1 PUSH1 0x40 MLOAD PUSH1 0x0 PUSH1 0x40 MLOAD DUP1 DUP4 SUB DUP2 DUP6 DUP9 DUP9 CALL SWAP4 POP POP POP POP ISZERO DUP1 ISZERO PUSH2 0x320 JUMPI RETURNDATASIZE PUSH1 0x0 DUP1 RETURNDATACOPY RETURNDATASIZE PUSH1 0x0 REVERT JUMPDEST POP POP POP JUMP JUMPDEST JUMP JUMPDEST POP JUMP JUMPDEST PUSH1 0x0 DUP2 CALLDATALOAD SWAP1 POP PUSH2 0x339 DUP2 PUSH2 0x500 JUMP JUMPDEST SWAP3 SWAP2 POP POP JUMP JUMPDEST PUSH1 0x0 DUP2 CALLDATALOAD SWAP1 POP PUSH2 0x34E DUP2 PUSH2 0x517 JUMP JUMPDEST SWAP3 SWAP2 POP POP JUMP JUMPDEST PUSH1 0x0 PUSH1 0x20 DUP3 DUP5 SUB SLT ISZERO PUSH2 0x36A JUMPI PUSH2 0x369 PUSH2 0x4D2 JUMP JUMPDEST JUMPDEST PUSH1 0x0 PUSH2 0x378 DUP5 DUP3 DUP6 ADD PUSH2 0x32A JUMP JUMPDEST SWAP2 POP POP SWAP3 SWAP2 POP POP JUMP JUMPDEST PUSH1 0x0 DUP1 PUSH1 0x40 DUP4 DUP6 SUB SLT ISZERO PUSH2 0x398 JUMPI PUSH2 0x397 PUSH2 0x4D2 JUMP JUMPDEST JUMPDEST PUSH1 0x0 PUSH2 0x3A6 DUP6 DUP3 DUP7 ADD PUSH2 0x32A JUMP JUMPDEST SWAP3 POP POP PUSH1 0x20 PUSH2 0x3B7 DUP6 DUP3 DUP7 ADD PUSH2 0x33F JUMP JUMPDEST SWAP2 POP POP SWAP3 POP SWAP3 SWAP1 POP JUMP JUMPDEST PUSH1 0x0 PUSH1 0x20 DUP3 DUP5 SUB SLT ISZERO PUSH2 0x3D7 JUMPI PUSH2 0x3D6 PUSH2 0x4D2 JUMP JUMPDEST JUMPDEST PUSH1 0x0 PUSH2 0x3E5 DUP5 DUP3 DUP6 ADD PUSH2 0x33F JUMP JUMPDEST SWAP2 POP POP SWAP3 SWAP2 POP POP JUMP JUMPDEST PUSH2 0x3F7 DUP2 PUSH2 0x496 JUMP JUMPDEST DUP3 MSTORE POP POP JUMP JUMPDEST PUSH1 0x0 PUSH2 0x40A PUSH1 0x9 DUP4 PUSH2 0x485 JUMP JUMPDEST SWAP2 POP PUSH2 0x415 DUP3 PUSH2 0x4D7 JUMP JUMPDEST PUSH1 0x20 DUP3 ADD SWAP1 POP SWAP2 SWAP1 POP JUMP JUMPDEST PUSH2 0x429 DUP2 PUSH2 0x4C8 JUMP JUMPDEST DUP3 MSTORE POP POP JUMP JUMPDEST PUSH1 0x0 PUSH1 0x20 DUP3 ADD SWAP1 POP PUSH2 0x444 PUSH1 0x0 DUP4 ADD DUP5 PUSH2 0x3EE JUMP JUMPDEST SWAP3 SWAP2 POP POP JUMP JUMPDEST PUSH1 0x0 PUSH1 0x20 DUP3 ADD SWAP1 POP DUP2 DUP2 SUB PUSH1 0x0 DUP4 ADD MSTORE PUSH2 0x463 DUP2 PUSH2 0x3FD JUMP JUMPDEST SWAP1 POP SWAP2 SWAP1 POP JUMP JUMPDEST PUSH1 0x0 PUSH1 0x20 DUP3 ADD SWAP1 POP PUSH2 0x47F PUSH1 0x0 DUP4 ADD DUP5 PUSH2 0x420 JUMP JUMPDEST SWAP3 SWAP2 POP POP JUMP JUMPDEST PUSH1 0x0 DUP3 DUP3 MSTORE PUSH1 0x20 DUP3 ADD SWAP1 POP SWAP3 SWAP2 POP POP JUMP JUMPDEST PUSH1 0x0 PUSH2 0x4A1 DUP3 PUSH2 0x4A8 JUMP JUMPDEST SWAP1 POP SWAP2 SWAP1 POP JUMP JUMPDEST PUSH1 0x0 PUSH20 0xFFFFFFFFFFFFFFFFFFFFFFFFFFFFFFFFFFFFFFFF DUP3 AND SWAP1 POP SWAP2 SWAP1 POP JUMP JUMPDEST PUSH1 0x0 DUP2 SWAP1 POP SWAP2 SWAP1 POP JUMP JUMPDEST PUSH1 0x0 DUP1 REVERT JUMPDEST PUSH32 0x4E6F74206F776E65720000000000000000000000000000000000000000000000 PUSH1 0x0 DUP3 ADD MSTORE POP JUMP JUMPDEST PUSH2 0x509 DUP2 PUSH2 0x496 JUMP JUMPDEST DUP2 EQ PUSH2 0x514 JUMPI PUSH1 0x0 DUP1 REVERT JUMPDEST POP JUMP JUMPDEST PUSH2 0x520 DUP2 PUSH2 0x4C8 JUMP JUMPDEST DUP2 EQ PUSH2 0x52B JUMPI PUSH1 0x0 DUP1 REVERT JUMPDEST POP JUMP INVALID LOG2 PUSH5 0x6970667358 0x22 SLT KECCAK256 PUSH1 0xF9 0xAC 0xAB PUSH24 0xB19C371E5CCF736BE0C8759559089E1811EB9EA31C5DBECB DUP5 0xD8 SUB PUSH5 0x736F6C6343 STOP ADDMOD SMOD STOP CALLER "
				},
				"gasEstimates": {
					"creation": {
						"codeDepositCost": "276000",
						"executionCost": "24560",
						"totalCost": "300560"
					},
					"external": {
						"deposit()": "186",
						"getBalance()": "317",
						"owner()": "2533",
						"transfer(address,uint256)": "infinite",
						"transferFrom(address)": "519",
						"withdraw(uint256)": "infinite"
					}
				},
				"methodIdentifiers": {
					"deposit()": "d0e30db0",
					"getBalance()": "12065fe0",
					"owner()": "8da5cb5b",
					"transfer(address,uint256)": "a9059cbb",
					"transferFrom(address)": "e4759493",
					"withdraw(uint256)": "2e1a7d4d"
				}
			},
			"storageLayout": {
				"storage": [
					{
						"astId": 7,
						"contract": "contracts/Wallet.sol:Wallet",
						"label": "owner",
						"offset": 0,
						"slot": "0",
						"type": "t_address_payable"
					}
				],
				"types": {
					"t_address_payable": {
						"encoding": "inplace",
						"label": "address payable",
						"numberOfBytes": "20"
					}
				}
			},
			"userdoc": {
				"kind": "user",
				"methods": {},
				"version": 1
			}
		}
	}
}