{
	"contracts/Test.sol": {
		"Test": {
			"abi": [
				{
					"inputs": [
						{
							"internalType": "uint8",
							"name": "a",
							"type": "uint8"
						},
						{
							"internalType": "uint8",
							"name": "b",
							"type": "uint8"
						}
					],
					"name": "add",
					"outputs": [
						{
							"internalType": "uint8",
							"name": "",
							"type": "uint8"
						}
					],
					"stateMutability": "pure",
					"type": "function"
				},
				{
					"inputs": [],
					"name": "getBalance",
					"outputs": [
						{
							"internalType": "uint256",
							"name": "",
							"type": "uint256"
						}
					],
					"stateMutability": "view",
					"type": "function"
				},
				{
					"inputs": [
						{
							"internalType": "address payable",
							"name": "_receive",
							"type": "address"
						},
						{
							"internalType": "uint256",
							"name": "amount",
							"type": "uint256"
						}
					],
					"name": "transfer",
					"outputs": [],
					"stateMutability": "nonpayable",
					"type": "function"
				}
			],
			"devdoc": {
				"kind": "dev",
				"methods": {},
				"version": 1
			},
			"evm": {
				"assembly": "    /* \"contracts/Test.sol\":65:401  contract Test {\r... */\n  mstore(0x40, 0x80)\n  callvalue\n  dup1\n  iszero\n  tag_1\n  jumpi\n  0x00\n  dup1\n  revert\ntag_1:\n  pop\n  dataSize(sub_0)\n  dup1\n  dataOffset(sub_0)\n  0x00\n  codecopy\n  0x00\n  return\nstop\n\nsub_0: assembly {\n        /* \"contracts/Test.sol\":65:401  contract Test {\r... */\n      mstore(0x40, 0x80)\n      callvalue\n      dup1\n      iszero\n      tag_1\n      jumpi\n      0x00\n      dup1\n      revert\n    tag_1:\n      pop\n      jumpi(tag_2, lt(calldatasize, 0x04))\n      shr(0xe0, calldataload(0x00))\n      dup1\n      0x12065fe0\n      eq\n      tag_3\n      jumpi\n      dup1\n      0xa9059cbb\n      eq\n      tag_4\n      jumpi\n      dup1\n      0xbb4e3f4d\n      eq\n      tag_5\n      jumpi\n    tag_2:\n      0x00\n      dup1\n      revert\n        /* \"contracts/Test.sol\":183:275  function getBalance() public view returns (uint){\r... */\n    tag_3:\n      tag_6\n      tag_7\n      jump\t// in\n    tag_6:\n      mload(0x40)\n      tag_8\n      swap2\n      swap1\n      tag_9\n      jump\t// in\n    tag_8:\n      mload(0x40)\n      dup1\n      swap2\n      sub\n      swap1\n      return\n        /* \"contracts/Test.sol\":283:398  function transfer(address payable _receive, uint amount) public {\r... */\n    tag_4:\n      tag_10\n      0x04\n      dup1\n      calldatasize\n      sub\n      dup2\n      add\n      swap1\n      tag_11\n      swap2\n      swap1\n      tag_12\n      jump\t// in\n    tag_11:\n      tag_13\n      jump\t// in\n    tag_10:\n      stop\n        /* \"contracts/Test.sol\":86:175  function add(uint8 a, uint8 b) public pure returns (uint8){\r... */\n    tag_5:\n      tag_14\n      0x04\n      dup1\n      calldatasize\n      sub\n      dup2\n      add\n      swap1\n      tag_15\n      swap2\n      swap1\n      tag_16\n      jump\t// in\n    tag_15:\n      tag_17\n      jump\t// in\n    tag_14:\n      mload(0x40)\n      tag_18\n      swap2\n      swap1\n      tag_19\n      jump\t// in\n    tag_18:\n      mload(0x40)\n      dup1\n      swap2\n      sub\n      swap1\n      return\n        /* \"contracts/Test.sol\":183:275  function getBalance() public view returns (uint){\r... */\n    tag_7:\n        /* \"contracts/Test.sol\":226:230  uint */\n      0x00\n        /* \"contracts/Test.sol\":249:259  msg.sender */\n      caller\n        /* \"contracts/Test.sol\":249:267  msg.sender.balance */\n      0xffffffffffffffffffffffffffffffffffffffff\n      and\n      balance\n        /* \"contracts/Test.sol\":242:267  return msg.sender.balance */\n      swap1\n      pop\n        /* \"contracts/Test.sol\":183:275  function getBalance() public view returns (uint){\r... */\n      swap1\n      jump\t// out\n        /* \"contracts/Test.sol\":283:398  function transfer(address payable _receive, uint amount) public {\r... */\n    tag_13:\n        /* \"contracts/Test.sol\":365:373  _receive */\n      dup2\n        /* \"contracts/Test.sol\":365:382  _receive.transfer */\n      0xffffffffffffffffffffffffffffffffffffffff\n      and\n        /* \"contracts/Test.sol\":365:390  _receive.transfer(amount) */\n      0x08fc\n        /* \"contracts/Test.sol\":383:389  amount */\n      dup3\n        /* \"contracts/Test.sol\":365:390  _receive.transfer(amount) */\n      swap1\n      dup2\n      iszero\n      mul\n      swap1\n      mload(0x40)\n      0x00\n      mload(0x40)\n      dup1\n      dup4\n      sub\n      dup2\n      dup6\n      dup9\n      dup9\n      call\n      swap4\n      pop\n      pop\n      pop\n      pop\n      iszero\n      dup1\n      iszero\n      tag_23\n      jumpi\n      returndatasize\n      0x00\n      dup1\n      returndatacopy\n      revert(0x00, returndatasize)\n    tag_23:\n      pop\n        /* \"contracts/Test.sol\":283:398  function transfer(address payable _receive, uint amount) public {\r... */\n      pop\n      pop\n      jump\t// out\n        /* \"contracts/Test.sol\":86:175  function add(uint8 a, uint8 b) public pure returns (uint8){\r... */\n    tag_17:\n        /* \"contracts/Test.sol\":138:143  uint8 */\n      0x00\n        /* \"contracts/Test.sol\":166:167  b */\n      dup2\n        /* \"contracts/Test.sol\":162:163  a */\n      dup4\n        /* \"contracts/Test.sol\":162:167  a + b */\n      tag_25\n      swap2\n      swap1\n      tag_26\n      jump\t// in\n    tag_25:\n        /* \"contracts/Test.sol\":155:167  return a + b */\n      swap1\n      pop\n        /* \"contracts/Test.sol\":86:175  function add(uint8 a, uint8 b) public pure returns (uint8){\r... */\n      swap3\n      swap2\n      pop\n      pop\n      jump\t// out\n        /* \"#utility.yul\":7:162   */\n    tag_28:\n        /* \"#utility.yul\":61:66   */\n      0x00\n        /* \"#utility.yul\":99:105   */\n      dup2\n        /* \"#utility.yul\":86:106   */\n      calldataload\n        /* \"#utility.yul\":77:106   */\n      swap1\n      pop\n        /* \"#utility.yul\":115:156   */\n      tag_30\n        /* \"#utility.yul\":150:155   */\n      dup2\n        /* \"#utility.yul\":115:156   */\n      tag_31\n      jump\t// in\n    tag_30:\n        /* \"#utility.yul\":7:162   */\n      swap3\n      swap2\n      pop\n      pop\n      jump\t// out\n        /* \"#utility.yul\":168:307   */\n    tag_32:\n        /* \"#utility.yul\":214:219   */\n      0x00\n        /* \"#utility.yul\":252:258   */\n      dup2\n        /* \"#utility.yul\":239:259   */\n      calldataload\n        /* \"#utility.yul\":230:259   */\n      swap1\n      pop\n        /* \"#utility.yul\":268:301   */\n      tag_34\n        /* \"#utility.yul\":295:300   */\n      dup2\n        /* \"#utility.yul\":268:301   */\n      tag_35\n      jump\t// in\n    tag_34:\n        /* \"#utility.yul\":168:307   */\n      swap3\n      swap2\n      pop\n      pop\n      jump\t// out\n        /* \"#utility.yul\":313:448   */\n    tag_36:\n        /* \"#utility.yul\":357:362   */\n      0x00\n        /* \"#utility.yul\":395:401   */\n      dup2\n        /* \"#utility.yul\":382:402   */\n      calldataload\n        /* \"#utility.yul\":373:402   */\n      swap1\n      pop\n        /* \"#utility.yul\":411:442   */\n      tag_38\n        /* \"#utility.yul\":436:441   */\n      dup2\n        /* \"#utility.yul\":411:442   */\n      tag_39\n      jump\t// in\n    tag_38:\n        /* \"#utility.yul\":313:448   */\n      swap3\n      swap2\n      pop\n      pop\n      jump\t// out\n        /* \"#utility.yul\":454:944   */\n    tag_12:\n        /* \"#utility.yul\":530:536   */\n      0x00\n        /* \"#utility.yul\":538:544   */\n      dup1\n        /* \"#utility.yul\":587:589   */\n      0x40\n        /* \"#utility.yul\":575:584   */\n      dup4\n        /* \"#utility.yul\":566:573   */\n      dup6\n        /* \"#utility.yul\":562:585   */\n      sub\n        /* \"#utility.yul\":558:590   */\n      slt\n        /* \"#utility.yul\":555:674   */\n      iszero\n      tag_41\n      jumpi\n        /* \"#utility.yul\":593:672   */\n      tag_42\n      tag_43\n      jump\t// in\n    tag_42:\n        /* \"#utility.yul\":555:674   */\n    tag_41:\n        /* \"#utility.yul\":713:714   */\n      0x00\n        /* \"#utility.yul\":738:799   */\n      tag_44\n        /* \"#utility.yul\":791:798   */\n      dup6\n        /* \"#utility.yul\":782:788   */\n      dup3\n        /* \"#utility.yul\":771:780   */\n      dup7\n        /* \"#utility.yul\":767:789   */\n      add\n        /* \"#utility.yul\":738:799   */\n      tag_28\n      jump\t// in\n    tag_44:\n        /* \"#utility.yul\":728:799   */\n      swap3\n      pop\n        /* \"#utility.yul\":684:809   */\n      pop\n        /* \"#utility.yul\":848:850   */\n      0x20\n        /* \"#utility.yul\":874:927   */\n      tag_45\n        /* \"#utility.yul\":919:926   */\n      dup6\n        /* \"#utility.yul\":910:916   */\n      dup3\n        /* \"#utility.yul\":899:908   */\n      dup7\n        /* \"#utility.yul\":895:917   */\n      add\n        /* \"#utility.yul\":874:927   */\n      tag_32\n      jump\t// in\n    tag_45:\n        /* \"#utility.yul\":864:927   */\n      swap2\n      pop\n        /* \"#utility.yul\":819:937   */\n      pop\n        /* \"#utility.yul\":454:944   */\n      swap3\n      pop\n      swap3\n      swap1\n      pop\n      jump\t// out\n        /* \"#utility.yul\":950:1416   */\n    tag_16:\n        /* \"#utility.yul\":1014:1020   */\n      0x00\n        /* \"#utility.yul\":1022:1028   */\n      dup1\n        /* \"#utility.yul\":1071:1073   */\n      0x40\n        /* \"#utility.yul\":1059:1068   */\n      dup4\n        /* \"#utility.yul\":1050:1057   */\n      dup6\n        /* \"#utility.yul\":1046:1069   */\n      sub\n        /* \"#utility.yul\":1042:1074   */\n      slt\n        /* \"#utility.yul\":1039:1158   */\n      iszero\n      tag_47\n      jumpi\n        /* \"#utility.yul\":1077:1156   */\n      tag_48\n      tag_43\n      jump\t// in\n    tag_48:\n        /* \"#utility.yul\":1039:1158   */\n    tag_47:\n        /* \"#utility.yul\":1197:1198   */\n      0x00\n        /* \"#utility.yul\":1222:1273   */\n      tag_49\n        /* \"#utility.yul\":1265:1272   */\n      dup6\n        /* \"#utility.yul\":1256:1262   */\n      dup3\n        /* \"#utility.yul\":1245:1254   */\n      dup7\n        /* \"#utility.yul\":1241:1263   */\n      add\n        /* \"#utility.yul\":1222:1273   */\n      tag_36\n      jump\t// in\n    tag_49:\n        /* \"#utility.yul\":1212:1273   */\n      swap3\n      pop\n        /* \"#utility.yul\":1168:1283   */\n      pop\n        /* \"#utility.yul\":1322:1324   */\n      0x20\n        /* \"#utility.yul\":1348:1399   */\n      tag_50\n        /* \"#utility.yul\":1391:1398   */\n      dup6\n        /* \"#utility.yul\":1382:1388   */\n      dup3\n        /* \"#utility.yul\":1371:1380   */\n      dup7\n        /* \"#utility.yul\":1367:1389   */\n      add\n        /* \"#utility.yul\":1348:1399   */\n      tag_36\n      jump\t// in\n    tag_50:\n        /* \"#utility.yul\":1338:1399   */\n      swap2\n      pop\n        /* \"#utility.yul\":1293:1409   */\n      pop\n        /* \"#utility.yul\":950:1416   */\n      swap3\n      pop\n      swap3\n      swap1\n      pop\n      jump\t// out\n        /* \"#utility.yul\":1422:1540   */\n    tag_51:\n        /* \"#utility.yul\":1509:1533   */\n      tag_53\n        /* \"#utility.yul\":1527:1532   */\n      dup2\n        /* \"#utility.yul\":1509:1533   */\n      tag_54\n      jump\t// in\n    tag_53:\n        /* \"#utility.yul\":1504:1507   */\n      dup3\n        /* \"#utility.yul\":1497:1534   */\n      mstore\n        /* \"#utility.yul\":1422:1540   */\n      pop\n      pop\n      jump\t// out\n        /* \"#utility.yul\":1546:1658   */\n    tag_55:\n        /* \"#utility.yul\":1629:1651   */\n      tag_57\n        /* \"#utility.yul\":1645:1650   */\n      dup2\n        /* \"#utility.yul\":1629:1651   */\n      tag_58\n      jump\t// in\n    tag_57:\n        /* \"#utility.yul\":1624:1627   */\n      dup3\n        /* \"#utility.yul\":1617:1652   */\n      mstore\n        /* \"#utility.yul\":1546:1658   */\n      pop\n      pop\n      jump\t// out\n        /* \"#utility.yul\":1664:1886   */\n    tag_9:\n        /* \"#utility.yul\":1757:1761   */\n      0x00\n        /* \"#utility.yul\":1795:1797   */\n      0x20\n        /* \"#utility.yul\":1784:1793   */\n      dup3\n        /* \"#utility.yul\":1780:1798   */\n      add\n        /* \"#utility.yul\":1772:1798   */\n      swap1\n      pop\n        /* \"#utility.yul\":1808:1879   */\n      tag_60\n        /* \"#utility.yul\":1876:1877   */\n      0x00\n        /* \"#utility.yul\":1865:1874   */\n      dup4\n        /* \"#utility.yul\":1861:1878   */\n      add\n        /* \"#utility.yul\":1852:1858   */\n      dup5\n        /* \"#utility.yul\":1808:1879   */\n      tag_51\n      jump\t// in\n    tag_60:\n        /* \"#utility.yul\":1664:1886   */\n      swap3\n      swap2\n      pop\n      pop\n      jump\t// out\n        /* \"#utility.yul\":1892:2106   */\n    tag_19:\n        /* \"#utility.yul\":1981:1985   */\n      0x00\n        /* \"#utility.yul\":2019:2021   */\n      0x20\n        /* \"#utility.yul\":2008:2017   */\n      dup3\n        /* \"#utility.yul\":2004:2022   */\n      add\n        /* \"#utility.yul\":1996:2022   */\n      swap1\n      pop\n        /* \"#utility.yul\":2032:2099   */\n      tag_62\n        /* \"#utility.yul\":2096:2097   */\n      0x00\n        /* \"#utility.yul\":2085:2094   */\n      dup4\n        /* \"#utility.yul\":2081:2098   */\n      add\n        /* \"#utility.yul\":2072:2078   */\n      dup5\n        /* \"#utility.yul\":2032:2099   */\n      tag_55\n      jump\t// in\n    tag_62:\n        /* \"#utility.yul\":1892:2106   */\n      swap3\n      swap2\n      pop\n      pop\n      jump\t// out\n        /* \"#utility.yul\":2193:2430   */\n    tag_26:\n        /* \"#utility.yul\":2231:2234   */\n      0x00\n        /* \"#utility.yul\":2250:2268   */\n      tag_66\n        /* \"#utility.yul\":2266:2267   */\n      dup3\n        /* \"#utility.yul\":2250:2268   */\n      tag_58\n      jump\t// in\n    tag_66:\n        /* \"#utility.yul\":2245:2268   */\n      swap2\n      pop\n        /* \"#utility.yul\":2282:2300   */\n      tag_67\n        /* \"#utility.yul\":2298:2299   */\n      dup4\n        /* \"#utility.yul\":2282:2300   */\n      tag_58\n      jump\t// in\n    tag_67:\n        /* \"#utility.yul\":2277:2300   */\n      swap3\n      pop\n        /* \"#utility.yul\":2372:2373   */\n      dup3\n        /* \"#utility.yul\":2366:2370   */\n      0xff\n        /* \"#utility.yul\":2362:2374   */\n      sub\n        /* \"#utility.yul\":2359:2360   */\n      dup3\n        /* \"#utility.yul\":2356:2375   */\n      gt\n        /* \"#utility.yul\":2353:2398   */\n      iszero\n      tag_68\n      jumpi\n        /* \"#utility.yul\":2378:2396   */\n      tag_69\n      tag_70\n      jump\t// in\n    tag_69:\n        /* \"#utility.yul\":2353:2398   */\n    tag_68:\n        /* \"#utility.yul\":2422:2423   */\n      dup3\n        /* \"#utility.yul\":2419:2420   */\n      dup3\n        /* \"#utility.yul\":2415:2424   */\n      add\n        /* \"#utility.yul\":2408:2424   */\n      swap1\n      pop\n        /* \"#utility.yul\":2193:2430   */\n      swap3\n      swap2\n      pop\n      pop\n      jump\t// out\n        /* \"#utility.yul\":2436:2540   */\n    tag_71:\n        /* \"#utility.yul\":2481:2488   */\n      0x00\n        /* \"#utility.yul\":2510:2534   */\n      tag_73\n        /* \"#utility.yul\":2528:2533   */\n      dup3\n        /* \"#utility.yul\":2510:2534   */\n      tag_74\n      jump\t// in\n    tag_73:\n        /* \"#utility.yul\":2499:2534   */\n      swap1\n      pop\n        /* \"#utility.yul\":2436:2540   */\n      swap2\n      swap1\n      pop\n      jump\t// out\n        /* \"#utility.yul\":2546:2672   */\n    tag_74:\n        /* \"#utility.yul\":2583:2590   */\n      0x00\n        /* \"#utility.yul\":2623:2665   */\n      0xffffffffffffffffffffffffffffffffffffffff\n        /* \"#utility.yul\":2616:2621   */\n      dup3\n        /* \"#utility.yul\":2612:2666   */\n      and\n        /* \"#utility.yul\":2601:2666   */\n      swap1\n      pop\n        /* \"#utility.yul\":2546:2672   */\n      swap2\n      swap1\n      pop\n      jump\t// out\n        /* \"#utility.yul\":2678:2755   */\n    tag_54:\n        /* \"#utility.yul\":2715:2722   */\n      0x00\n        /* \"#utility.yul\":2744:2749   */\n      dup2\n        /* \"#utility.yul\":2733:2749   */\n      swap1\n      pop\n        /* \"#utility.yul\":2678:2755   */\n      swap2\n      swap1\n      pop\n      jump\t// out\n        /* \"#utility.yul\":2761:2847   */\n    tag_58:\n        /* \"#utility.yul\":2796:2803   */\n      0x00\n        /* \"#utility.yul\":2836:2840   */\n      0xff\n        /* \"#utility.yul\":2829:2834   */\n      dup3\n        /* \"#utility.yul\":2825:2841   */\n      and\n        /* \"#utility.yul\":2814:2841   */\n      swap1\n      pop\n        /* \"#utility.yul\":2761:2847   */\n      swap2\n      swap1\n      pop\n      jump\t// out\n        /* \"#utility.yul\":2853:3033   */\n    tag_70:\n        /* \"#utility.yul\":2901:2978   */\n      0x4e487b7100000000000000000000000000000000000000000000000000000000\n        /* \"#utility.yul\":2898:2899   */\n      0x00\n        /* \"#utility.yul\":2891:2979   */\n      mstore\n        /* \"#utility.yul\":2998:3002   */\n      0x11\n        /* \"#utility.yul\":2995:2996   */\n      0x04\n        /* \"#utility.yul\":2988:3003   */\n      mstore\n        /* \"#utility.yul\":3022:3026   */\n      0x24\n        /* \"#utility.yul\":3019:3020   */\n      0x00\n        /* \"#utility.yul\":3012:3027   */\n      revert\n        /* \"#utility.yul\":3162:3279   */\n    tag_43:\n        /* \"#utility.yul\":3271:3272   */\n      0x00\n        /* \"#utility.yul\":3268:3269   */\n      dup1\n        /* \"#utility.yul\":3261:3273   */\n      revert\n        /* \"#utility.yul\":3285:3423   */\n    tag_31:\n        /* \"#utility.yul\":3366:3398   */\n      tag_83\n        /* \"#utility.yul\":3392:3397   */\n      dup2\n        /* \"#utility.yul\":3366:3398   */\n      tag_71\n      jump\t// in\n    tag_83:\n        /* \"#utility.yul\":3359:3364   */\n      dup2\n        /* \"#utility.yul\":3356:3399   */\n      eq\n        /* \"#utility.yul\":3346:3417   */\n      tag_84\n      jumpi\n        /* \"#utility.yul\":3413:3414   */\n      0x00\n        /* \"#utility.yul\":3410:3411   */\n      dup1\n        /* \"#utility.yul\":3403:3415   */\n      revert\n        /* \"#utility.yul\":3346:3417   */\n    tag_84:\n        /* \"#utility.yul\":3285:3423   */\n      pop\n      jump\t// out\n        /* \"#utility.yul\":3429:3551   */\n    tag_35:\n        /* \"#utility.yul\":3502:3526   */\n      tag_86\n        /* \"#utility.yul\":3520:3525   */\n      dup2\n        /* \"#utility.yul\":3502:3526   */\n      tag_54\n      jump\t// in\n    tag_86:\n        /* \"#utility.yul\":3495:3500   */\n      dup2\n        /* \"#utility.yul\":3492:3527   */\n      eq\n        /* \"#utility.yul\":3482:3545   */\n      tag_87\n      jumpi\n        /* \"#utility.yul\":3541:3542   */\n      0x00\n        /* \"#utility.yul\":3538:3539   */\n      dup1\n        /* \"#utility.yul\":3531:3543   */\n      revert\n        /* \"#utility.yul\":3482:3545   */\n    tag_87:\n        /* \"#utility.yul\":3429:3551   */\n      pop\n      jump\t// out\n        /* \"#utility.yul\":3557:3675   */\n    tag_39:\n        /* \"#utility.yul\":3628:3650   */\n      tag_89\n        /* \"#utility.yul\":3644:3649   */\n      dup2\n        /* \"#utility.yul\":3628:3650   */\n      tag_58\n      jump\t// in\n    tag_89:\n        /* \"#utility.yul\":3621:3626   */\n      dup2\n        /* \"#utility.yul\":3618:3651   */\n      eq\n        /* \"#utility.yul\":3608:3669   */\n      tag_90\n      jumpi\n        /* \"#utility.yul\":3665:3666   */\n      0x00\n        /* \"#utility.yul\":3662:3663   */\n      dup1\n        /* \"#utility.yul\":3655:3667   */\n      revert\n        /* \"#utility.yul\":3608:3669   */\n    tag_90:\n        /* \"#utility.yul\":3557:3675   */\n      pop\n      jump\t// out\n\n    auxdata: 0xa264697066735822122085843cb144e98ec47fdcff3d9f2f6382a7902b81697b83cfe1296f7d3f02685564736f6c63430008070033\n}\n",
				"bytecode": {
					"linkReferences": {},
					"object": "608060405234801561001057600080fd5b50610372806100206000396000f3fe608060405234801561001057600080fd5b50600436106100415760003560e01c806312065fe014610046578063a9059cbb14610064578063bb4e3f4d14610080575b600080fd5b61004e6100b0565b60405161005b919061020d565b60405180910390f35b61007e6004803603810190610079919061016f565b6100cf565b005b61009a600480360381019061009591906101af565b61011a565b6040516100a79190610228565b60405180910390f35b60003373ffffffffffffffffffffffffffffffffffffffff1631905090565b8173ffffffffffffffffffffffffffffffffffffffff166108fc829081150290604051600060405180830381858888f19350505050158015610115573d6000803e3d6000fd5b505050565b600081836101289190610243565b905092915050565b60008135905061013f816102f7565b92915050565b6000813590506101548161030e565b92915050565b60008135905061016981610325565b92915050565b60008060408385031215610186576101856102f2565b5b600061019485828601610130565b92505060206101a585828601610145565b9150509250929050565b600080604083850312156101c6576101c56102f2565b5b60006101d48582860161015a565b92505060206101e58582860161015a565b9150509250929050565b6101f8816102ac565b82525050565b610207816102b6565b82525050565b600060208201905061022260008301846101ef565b92915050565b600060208201905061023d60008301846101fe565b92915050565b600061024e826102b6565b9150610259836102b6565b92508260ff0382111561026f5761026e6102c3565b5b828201905092915050565b60006102858261028c565b9050919050565b600073ffffffffffffffffffffffffffffffffffffffff82169050919050565b6000819050919050565b600060ff82169050919050565b7f4e487b7100000000000000000000000000000000000000000000000000000000600052601160045260246000fd5b600080fd5b6103008161027a565b811461030b57600080fd5b50565b610317816102ac565b811461032257600080fd5b50565b61032e816102b6565b811461033957600080fd5b5056fea264697066735822122085843cb144e98ec47fdcff3d9f2f6382a7902b81697b83cfe1296f7d3f02685564736f6c63430008070033",
					"opcodes": "PUSH1 0x80 PUSH1 0x40 MSTORE CALLVALUE DUP1 ISZERO PUSH2 0x10 JUMPI PUSH1 0x0 DUP1 REVERT JUMPDEST POP PUSH2 0x372 DUP1 PUSH2 0x20 PUSH1 0x0 CODECOPY PUSH1 0x0 RETURN INVALID PUSH1 0x80 PUSH1 0x40 MSTORE CALLVALUE DUP1 ISZERO PUSH2 0x10 JUMPI PUSH1 0x0 DUP1 REVERT JUMPDEST POP PUSH1 0x4 CALLDATASIZE LT PUSH2 0x41 JUMPI PUSH1 0x0 CALLDATALOAD PUSH1 0xE0 SHR DUP1 PUSH4 0x12065FE0 EQ PUSH2 0x46 JUMPI DUP1 PUSH4 0xA9059CBB EQ PUSH2 0x64 JUMPI DUP1 PUSH4 0xBB4E3F4D EQ PUSH2 0x80 JUMPI JUMPDEST PUSH1 0x0 DUP1 REVERT JUMPDEST PUSH2 0x4E PUSH2 0xB0 JUMP JUMPDEST PUSH1 0x40 MLOAD PUSH2 0x5B SWAP2 SWAP1 PUSH2 0x20D JUMP JUMPDEST PUSH1 0x40 MLOAD DUP1 SWAP2 SUB SWAP1 RETURN JUMPDEST PUSH2 0x7E PUSH1 0x4 DUP1 CALLDATASIZE SUB DUP2 ADD SWAP1 PUSH2 0x79 SWAP2 SWAP1 PUSH2 0x16F JUMP JUMPDEST PUSH2 0xCF JUMP JUMPDEST STOP JUMPDEST PUSH2 0x9A PUSH1 0x4 DUP1 CALLDATASIZE SUB DUP2 ADD SWAP1 PUSH2 0x95 SWAP2 SWAP1 PUSH2 0x1AF JUMP JUMPDEST PUSH2 0x11A JUMP JUMPDEST PUSH1 0x40 MLOAD PUSH2 0xA7 SWAP2 SWAP1 PUSH2 0x228 JUMP JUMPDEST PUSH1 0x40 MLOAD DUP1 SWAP2 SUB SWAP1 RETURN JUMPDEST PUSH1 0x0 CALLER PUSH20 0xFFFFFFFFFFFFFFFFFFFFFFFFFFFFFFFFFFFFFFFF AND BALANCE SWAP1 POP SWAP1 JUMP JUMPDEST DUP2 PUSH20 0xFFFFFFFFFFFFFFFFFFFFFFFFFFFFFFFFFFFFFFFF AND PUSH2 0x8FC DUP3 SWAP1 DUP2 ISZERO MUL SWAP1 PUSH1 0x40 MLOAD PUSH1 0x0 PUSH1 0x40 MLOAD DUP1 DUP4 SUB DUP2 DUP6 DUP9 DUP9 CALL SWAP4 POP POP POP POP ISZERO DUP1 ISZERO PUSH2 0x115 JUMPI RETURNDATASIZE PUSH1 0x0 DUP1 RETURNDATACOPY RETURNDATASIZE PUSH1 0x0 REVERT JUMPDEST POP POP POP JUMP JUMPDEST PUSH1 0x0 DUP2 DUP4 PUSH2 0x128 SWAP2 SWAP1 PUSH2 0x243 JUMP JUMPDEST SWAP1 POP SWAP3 SWAP2 POP POP JUMP JUMPDEST PUSH1 0x0 DUP2 CALLDATALOAD SWAP1 POP PUSH2 0x13F DUP2 PUSH2 0x2F7 JUMP JUMPDEST SWAP3 SWAP2 POP POP JUMP JUMPDEST PUSH1 0x0 DUP2 CALLDATALOAD SWAP1 POP PUSH2 0x154 DUP2 PUSH2 0x30E JUMP JUMPDEST SWAP3 SWAP2 POP POP JUMP JUMPDEST PUSH1 0x0 DUP2 CALLDATALOAD SWAP1 POP PUSH2 0x169 DUP2 PUSH2 0x325 JUMP JUMPDEST SWAP3 SWAP2 POP POP JUMP JUMPDEST PUSH1 0x0 DUP1 PUSH1 0x40 DUP4 DUP6 SUB SLT ISZERO PUSH2 0x186 JUMPI PUSH2 0x185 PUSH2 0x2F2 JUMP JUMPDEST JUMPDEST PUSH1 0x0 PUSH2 0x194 DUP6 DUP3 DUP7 ADD PUSH2 0x130 JUMP JUMPDEST SWAP3 POP POP PUSH1 0x20 PUSH2 0x1A5 DUP6 DUP3 DUP7 ADD PUSH2 0x145 JUMP JUMPDEST SWAP2 POP POP SWAP3 POP SWAP3 SWAP1 POP JUMP JUMPDEST PUSH1 0x0 DUP1 PUSH1 0x40 DUP4 DUP6 SUB SLT ISZERO PUSH2 0x1C6 JUMPI PUSH2 0x1C5 PUSH2 0x2F2 JUMP JUMPDEST JUMPDEST PUSH1 0x0 PUSH2 0x1D4 DUP6 DUP3 DUP7 ADD PUSH2 0x15A JUMP JUMPDEST SWAP3 POP POP PUSH1 0x20 PUSH2 0x1E5 DUP6 DUP3 DUP7 ADD PUSH2 0x15A JUMP JUMPDEST SWAP2 POP POP SWAP3 POP SWAP3 SWAP1 POP JUMP JUMPDEST PUSH2 0x1F8 DUP2 PUSH2 0x2AC JUMP JUMPDEST DUP3 MSTORE POP POP JUMP JUMPDEST PUSH2 0x207 DUP2 PUSH2 0x2B6 JUMP JUMPDEST DUP3 MSTORE POP POP JUMP JUMPDEST PUSH1 0x0 PUSH1 0x20 DUP3 ADD SWAP1 POP PUSH2 0x222 PUSH1 0x0 DUP4 ADD DUP5 PUSH2 0x1EF JUMP JUMPDEST SWAP3 SWAP2 POP POP JUMP JUMPDEST PUSH1 0x0 PUSH1 0x20 DUP3 ADD SWAP1 POP PUSH2 0x23D PUSH1 0x0 DUP4 ADD DUP5 PUSH2 0x1FE JUMP JUMPDEST SWAP3 SWAP2 POP POP JUMP JUMPDEST PUSH1 0x0 PUSH2 0x24E DUP3 PUSH2 0x2B6 JUMP JUMPDEST SWAP2 POP PUSH2 0x259 DUP4 PUSH2 0x2B6 JUMP JUMPDEST SWAP3 POP DUP3 PUSH1 0xFF SUB DUP3 GT ISZERO PUSH2 0x26F JUMPI PUSH2 0x26E PUSH2 0x2C3 JUMP JUMPDEST JUMPDEST DUP3 DUP3 ADD SWAP1 POP SWAP3 SWAP2 POP POP JUMP JUMPDEST PUSH1 0x0 PUSH2 0x285 DUP3 PUSH2 0x28C JUMP JUMPDEST SWAP1 POP SWAP2 SWAP1 POP JUMP JUMPDEST PUSH1 0x0 PUSH20 0xFFFFFFFFFFFFFFFFFFFFFFFFFFFFFFFFFFFFFFFF DUP3 AND SWAP1 POP SWAP2 SWAP1 POP JUMP JUMPDEST PUSH1 0x0 DUP2 SWAP1 POP SWAP2 SWAP1 POP JUMP JUMPDEST PUSH1 0x0 PUSH1 0xFF DUP3 AND SWAP1 POP SWAP2 SWAP1 POP JUMP JUMPDEST PUSH32 0x4E487B7100000000000000000000000000000000000000000000000000000000 PUSH1 0x0 MSTORE PUSH1 0x11 PUSH1 0x4 MSTORE PUSH1 0x24 PUSH1 0x0 REVERT JUMPDEST PUSH1 0x0 DUP1 REVERT JUMPDEST PUSH2 0x300 DUP2 PUSH2 0x27A JUMP JUMPDEST DUP2 EQ PUSH2 0x30B JUMPI PUSH1 0x0 DUP1 REVERT JUMPDEST POP JUMP JUMPDEST PUSH2 0x317 DUP2 PUSH2 0x2AC JUMP JUMPDEST DUP2 EQ PUSH2 0x322 JUMPI PUSH1 0x0 DUP1 REVERT JUMPDEST POP JUMP JUMPDEST PUSH2 0x32E DUP2 PUSH2 0x2B6 JUMP JUMPDEST DUP2 EQ PUSH2 0x339 JUMPI PUSH1 0x0 DUP1 REVERT JUMPDEST POP JUMP INVALID LOG2 PUSH5 0x6970667358 0x22 SLT KECCAK256 DUP6 DUP5 EXTCODECOPY 0xB1 DIFFICULTY 0xE9 DUP15 0xC4 PUSH32 0xDCFF3D9F2F6382A7902B81697B83CFE1296F7D3F02685564736F6C6343000807 STOP CALLER "
				},
				"gasEstimates": {
					"creation": {
						"codeDepositCost": "176400",
						"executionCost": "220",
						"totalCost": "176620"
					},
					"external": {
						"add(uint8,uint8)": "infinite",
						"getBalance()": "2920",
						"transfer(address,uint256)": "infinite"
					}
				},
				"methodIdentifiers": {
					"add(uint8,uint8)": "bb4e3f4d",
					"getBalance()": "12065fe0",
					"transfer(address,uint256)": "a9059cbb"
				}
			},
			"storageLayout": {
				"storage": [],
				"types": null
			},
			"userdoc": {
				"kind": "user",
				"methods": {},
				"version": 1
			}
		}
	}
}