{
	"contracts/Test.sol": {
		"Test": {
			"abi": [
				{
					"inputs": [
						{
							"internalType": "uint8",
							"name": "a",
							"type": "uint8"
						},
						{
							"internalType": "uint8",
							"name": "b",
							"type": "uint8"
						}
					],
					"name": "add",
					"outputs": [
						{
							"internalType": "uint8",
							"name": "",
							"type": "uint8"
						}
					],
					"stateMutability": "pure",
					"type": "function"
				},
				{
					"inputs": [],
					"name": "getBalance",
					"outputs": [
						{
							"internalType": "uint256",
							"name": "",
							"type": "uint256"
						}
					],
					"stateMutability": "view",
					"type": "function"
				},
				{
					"inputs": [],
					"name": "test",
					"outputs": [
						{
							"internalType": "uint256",
							"name": "",
							"type": "uint256"
						}
					],
					"stateMutability": "nonpayable",
					"type": "function"
				},
				{
					"inputs": [],
					"name": "test_array",
					"outputs": [],
					"stateMutability": "nonpayable",
					"type": "function"
				},
				{
					"inputs": [
						{
							"internalType": "address payable",
							"name": "_receive",
							"type": "address"
						},
						{
							"internalType": "uint256",
							"name": "amount",
							"type": "uint256"
						}
					],
					"name": "transfer",
					"outputs": [],
					"stateMutability": "payable",
					"type": "function"
				}
			],
			"devdoc": {
				"kind": "dev",
				"methods": {},
				"version": 1
			},
			"evm": {
				"assembly": "    /* \"contracts/Test.sol\":98:838  contract Test {\r... */\n  mstore(0x40, 0x80)\n    /* \"contracts/Test.sol\":511:512  1 */\n  0x01\n    /* \"contracts/Test.sol\":500:513  new uint[](1) */\n  0xffffffffffffffff\n  dup2\n  gt\n  iszero\n  tag_1\n  jumpi\n  tag_2\n  tag_3\n  jump\t// in\ntag_2:\ntag_1:\n  mload(0x40)\n  swap1\n  dup1\n  dup3\n  mstore\n  dup1\n  0x20\n  mul\n  0x20\n  add\n  dup3\n  add\n  0x40\n  mstore\n  dup1\n  iszero\n  tag_4\n  jumpi\n  dup2\n  0x20\n  add\n  0x20\n  dup3\n  mul\n  dup1\n  calldatasize\n  dup4\n  calldatacopy\n  dup1\n  dup3\n  add\n  swap2\n  pop\n  pop\n  swap1\n  pop\ntag_4:\n  pop\n    /* \"contracts/Test.sol\":489:513  uint[] a = new uint[](1) */\n  0x00\n  swap1\n  dup1\n  mload\n  swap1\n  0x20\n  add\n  swap1\n  tag_5\n  swap3\n  swap2\n  swap1\n  tag_6\n  jump\t// in\ntag_5:\n  pop\n    /* \"contracts/Test.sol\":98:838  contract Test {\r... */\n  callvalue\n  dup1\n  iszero\n  tag_7\n  jumpi\n  0x00\n  dup1\n  revert\ntag_7:\n  pop\n  jump(tag_8)\ntag_6:\n  dup3\n  dup1\n  sload\n  dup3\n  dup3\n  sstore\n  swap1\n  0x00\n  mstore\n  keccak256(0x00, 0x20)\n  swap1\n  dup2\n  add\n  swap3\n  dup3\n  iszero\n  tag_9\n  jumpi\n  swap2\n  0x20\n  mul\n  dup3\n  add\ntag_10:\n  dup3\n  dup2\n  gt\n  iszero\n  tag_11\n  jumpi\n  dup3\n  mload\n  dup3\n  sstore\n  swap2\n  0x20\n  add\n  swap2\n  swap1\n  0x01\n  add\n  swap1\n  jump(tag_10)\ntag_11:\ntag_9:\n  pop\n  swap1\n  pop\n  tag_12\n  swap2\n  swap1\n  tag_13\n  jump\t// in\ntag_12:\n  pop\n  swap1\n  jump\t// out\ntag_13:\ntag_14:\n  dup1\n  dup3\n  gt\n  iszero\n  tag_15\n  jumpi\n  0x00\n  dup2\n  0x00\n  swap1\n  sstore\n  pop\n  0x01\n  add\n  jump(tag_14)\ntag_15:\n  pop\n  swap1\n  jump\t// out\n    /* \"#utility.yul\":7:187   */\ntag_3:\n    /* \"#utility.yul\":55:132   */\n  0x4e487b7100000000000000000000000000000000000000000000000000000000\n    /* \"#utility.yul\":52:53   */\n  0x00\n    /* \"#utility.yul\":45:133   */\n  mstore\n    /* \"#utility.yul\":152:156   */\n  0x41\n    /* \"#utility.yul\":149:150   */\n  0x04\n    /* \"#utility.yul\":142:157   */\n  mstore\n    /* \"#utility.yul\":176:180   */\n  0x24\n    /* \"#utility.yul\":173:174   */\n  0x00\n    /* \"#utility.yul\":166:181   */\n  revert\n    /* \"contracts/Test.sol\":98:838  contract Test {\r... */\ntag_8:\n  dataSize(sub_0)\n  dup1\n  dataOffset(sub_0)\n  0x00\n  codecopy\n  0x00\n  return\nstop\n\nsub_0: assembly {\n        /* \"contracts/Test.sol\":98:838  contract Test {\r... */\n      mstore(0x40, 0x80)\n      jumpi(tag_1, lt(calldatasize, 0x04))\n      shr(0xe0, calldataload(0x00))\n      dup1\n      0x12065fe0\n      eq\n      tag_2\n      jumpi\n      dup1\n      0x4bc92ad2\n      eq\n      tag_3\n      jumpi\n      dup1\n      0xa9059cbb\n      eq\n      tag_4\n      jumpi\n      dup1\n      0xbb4e3f4d\n      eq\n      tag_5\n      jumpi\n      dup1\n      0xf8a8fd6d\n      eq\n      tag_6\n      jumpi\n    tag_1:\n      0x00\n      dup1\n      revert\n        /* \"contracts/Test.sol\":216:308  function getBalance() public view returns (uint){\r... */\n    tag_2:\n      callvalue\n      dup1\n      iszero\n      tag_7\n      jumpi\n      0x00\n      dup1\n      revert\n    tag_7:\n      pop\n      tag_8\n      tag_9\n      jump\t// in\n    tag_8:\n      mload(0x40)\n      tag_10\n      swap2\n      swap1\n      tag_11\n      jump\t// in\n    tag_10:\n      mload(0x40)\n      dup1\n      swap2\n      sub\n      swap1\n      return\n        /* \"contracts/Test.sol\":700:835  function test_array() public{\r... */\n    tag_3:\n      callvalue\n      dup1\n      iszero\n      tag_12\n      jumpi\n      0x00\n      dup1\n      revert\n    tag_12:\n      pop\n      tag_13\n      tag_14\n      jump\t// in\n    tag_13:\n      stop\n        /* \"contracts/Test.sol\":316:481  function transfer(address payable _receive, uint amount) public payable {\r... */\n    tag_4:\n      tag_15\n      0x04\n      dup1\n      calldatasize\n      sub\n      dup2\n      add\n      swap1\n      tag_16\n      swap2\n      swap1\n      tag_17\n      jump\t// in\n    tag_16:\n      tag_18\n      jump\t// in\n    tag_15:\n      stop\n        /* \"contracts/Test.sol\":119:208  function add(uint8 a, uint8 b) public pure returns (uint8){\r... */\n    tag_5:\n      callvalue\n      dup1\n      iszero\n      tag_19\n      jumpi\n      0x00\n      dup1\n      revert\n    tag_19:\n      pop\n      tag_20\n      0x04\n      dup1\n      calldatasize\n      sub\n      dup2\n      add\n      swap1\n      tag_21\n      swap2\n      swap1\n      tag_22\n      jump\t// in\n    tag_21:\n      tag_23\n      jump\t// in\n    tag_20:\n      mload(0x40)\n      tag_24\n      swap2\n      swap1\n      tag_25\n      jump\t// in\n    tag_24:\n      mload(0x40)\n      dup1\n      swap2\n      sub\n      swap1\n      return\n        /* \"contracts/Test.sol\":522:692  function test() public returns (uint){\r... */\n    tag_6:\n      callvalue\n      dup1\n      iszero\n      tag_26\n      jumpi\n      0x00\n      dup1\n      revert\n    tag_26:\n      pop\n      tag_27\n      tag_28\n      jump\t// in\n    tag_27:\n      mload(0x40)\n      tag_29\n      swap2\n      swap1\n      tag_11\n      jump\t// in\n    tag_29:\n      mload(0x40)\n      dup1\n      swap2\n      sub\n      swap1\n      return\n        /* \"contracts/Test.sol\":216:308  function getBalance() public view returns (uint){\r... */\n    tag_9:\n        /* \"contracts/Test.sol\":259:263  uint */\n      0x00\n        /* \"contracts/Test.sol\":282:292  msg.sender */\n      caller\n        /* \"contracts/Test.sol\":282:300  msg.sender.balance */\n      0xffffffffffffffffffffffffffffffffffffffff\n      and\n      balance\n        /* \"contracts/Test.sol\":275:300  return msg.sender.balance */\n      swap1\n      pop\n        /* \"contracts/Test.sol\":216:308  function getBalance() public view returns (uint){\r... */\n      swap1\n      jump\t// out\n        /* \"contracts/Test.sol\":700:835  function test_array() public{\r... */\n    tag_14:\n        /* \"contracts/Test.sol\":739:754  uint[] memory a */\n      0x00\n        /* \"contracts/Test.sol\":768:769  2 */\n      0x02\n        /* \"contracts/Test.sol\":757:770  new uint[](2) */\n      0xffffffffffffffff\n      dup2\n      gt\n      iszero\n      tag_32\n      jumpi\n      tag_33\n      tag_34\n      jump\t// in\n    tag_33:\n    tag_32:\n      mload(0x40)\n      swap1\n      dup1\n      dup3\n      mstore\n      dup1\n      0x20\n      mul\n      0x20\n      add\n      dup3\n      add\n      0x40\n      mstore\n      dup1\n      iszero\n      tag_35\n      jumpi\n      dup2\n      0x20\n      add\n      0x20\n      dup3\n      mul\n      dup1\n      calldatasize\n      dup4\n      calldatacopy\n      dup1\n      dup3\n      add\n      swap2\n      pop\n      pop\n      swap1\n      pop\n    tag_35:\n      pop\n        /* \"contracts/Test.sol\":739:770  uint[] memory a = new uint[](2) */\n      swap1\n      pop\n        /* \"contracts/Test.sol\":788:789  1 */\n      0x01\n        /* \"contracts/Test.sol\":781:782  a */\n      dup2\n        /* \"contracts/Test.sol\":783:784  0 */\n      0x00\n        /* \"contracts/Test.sol\":781:785  a[0] */\n      dup2\n      mload\n      dup2\n      lt\n      tag_36\n      jumpi\n      tag_37\n      tag_38\n      jump\t// in\n    tag_37:\n    tag_36:\n      0x20\n      mul\n      0x20\n      add\n      add\n        /* \"contracts/Test.sol\":781:789  a[0] = 1 */\n      dup2\n      dup2\n      mstore\n      pop\n      pop\n        /* \"contracts/Test.sol\":807:808  2 */\n      0x02\n        /* \"contracts/Test.sol\":800:801  a */\n      dup2\n        /* \"contracts/Test.sol\":802:803  1 */\n      0x01\n        /* \"contracts/Test.sol\":800:804  a[1] */\n      dup2\n      mload\n      dup2\n      lt\n      tag_39\n      jumpi\n      tag_40\n      tag_38\n      jump\t// in\n    tag_40:\n    tag_39:\n      0x20\n      mul\n      0x20\n      add\n      add\n        /* \"contracts/Test.sol\":800:808  a[1] = 2 */\n      dup2\n      dup2\n      mstore\n      pop\n      pop\n        /* \"contracts/Test.sol\":826:827  3 */\n      0x03\n        /* \"contracts/Test.sol\":819:820  a */\n      dup2\n        /* \"contracts/Test.sol\":821:822  2 */\n      0x02\n        /* \"contracts/Test.sol\":819:823  a[2] */\n      dup2\n      mload\n      dup2\n      lt\n      tag_41\n      jumpi\n      tag_42\n      tag_38\n      jump\t// in\n    tag_42:\n    tag_41:\n      0x20\n      mul\n      0x20\n      add\n      add\n        /* \"contracts/Test.sol\":819:827  a[2] = 3 */\n      dup2\n      dup2\n      mstore\n      pop\n      pop\n        /* \"contracts/Test.sol\":728:835  {\r... */\n      pop\n        /* \"contracts/Test.sol\":700:835  function test_array() public{\r... */\n      jump\t// out\n        /* \"contracts/Test.sol\":316:481  function transfer(address payable _receive, uint amount) public payable {\r... */\n    tag_18:\n        /* \"contracts/Test.sol\":399:430  console.log(msg.sender.balance) */\n      tag_44\n        /* \"contracts/Test.sol\":411:421  msg.sender */\n      caller\n        /* \"contracts/Test.sol\":411:429  msg.sender.balance */\n      0xffffffffffffffffffffffffffffffffffffffff\n      and\n      balance\n        /* \"contracts/Test.sol\":399:410  console.log */\n      tag_45\n        /* \"contracts/Test.sol\":399:430  console.log(msg.sender.balance) */\n      jump\t// in\n    tag_44:\n        /* \"contracts/Test.sol\":448:456  _receive */\n      dup2\n        /* \"contracts/Test.sol\":448:465  _receive.transfer */\n      0xffffffffffffffffffffffffffffffffffffffff\n      and\n        /* \"contracts/Test.sol\":448:473  _receive.transfer(amount) */\n      0x08fc\n        /* \"contracts/Test.sol\":466:472  amount */\n      dup3\n        /* \"contracts/Test.sol\":448:473  _receive.transfer(amount) */\n      swap1\n      dup2\n      iszero\n      mul\n      swap1\n      mload(0x40)\n      0x00\n      mload(0x40)\n      dup1\n      dup4\n      sub\n      dup2\n      dup6\n      dup9\n      dup9\n      call\n      swap4\n      pop\n      pop\n      pop\n      pop\n      iszero\n      dup1\n      iszero\n      tag_47\n      jumpi\n      returndatasize\n      0x00\n      dup1\n      returndatacopy\n      revert(0x00, returndatasize)\n    tag_47:\n      pop\n        /* \"contracts/Test.sol\":316:481  function transfer(address payable _receive, uint amount) public payable {\r... */\n      pop\n      pop\n      jump\t// out\n        /* \"contracts/Test.sol\":119:208  function add(uint8 a, uint8 b) public pure returns (uint8){\r... */\n    tag_23:\n        /* \"contracts/Test.sol\":171:176  uint8 */\n      0x00\n        /* \"contracts/Test.sol\":199:200  b */\n      dup2\n        /* \"contracts/Test.sol\":195:196  a */\n      dup4\n        /* \"contracts/Test.sol\":195:200  a + b */\n      tag_49\n      swap2\n      swap1\n      tag_50\n      jump\t// in\n    tag_49:\n        /* \"contracts/Test.sol\":188:200  return a + b */\n      swap1\n      pop\n        /* \"contracts/Test.sol\":119:208  function add(uint8 a, uint8 b) public pure returns (uint8){\r... */\n      swap3\n      swap2\n      pop\n      pop\n      jump\t// out\n        /* \"contracts/Test.sol\":522:692  function test() public returns (uint){\r... */\n    tag_28:\n        /* \"contracts/Test.sol\":554:558  uint */\n      0x00\n        /* \"contracts/Test.sol\":577:578  1 */\n      0x01\n        /* \"contracts/Test.sol\":570:571  a */\n      0x00\n        /* \"contracts/Test.sol\":572:573  0 */\n      dup1\n        /* \"contracts/Test.sol\":570:574  a[0] */\n      dup2\n      sload\n      dup2\n      lt\n      tag_52\n      jumpi\n      tag_53\n      tag_38\n      jump\t// in\n    tag_53:\n    tag_52:\n      swap1\n      0x00\n      mstore\n      keccak256(0x00, 0x20)\n      add\n        /* \"contracts/Test.sol\":570:578  a[0] = 1 */\n      dup2\n      swap1\n      sstore\n      pop\n        /* \"contracts/Test.sol\":589:605  uint[] storage b */\n      0x00\n        /* \"contracts/Test.sol\":627:628  2 */\n      0x02\n        /* \"contracts/Test.sol\":620:621  b */\n      dup2\n        /* \"contracts/Test.sol\":622:623  0 */\n      0x00\n        /* \"contracts/Test.sol\":620:624  b[0] */\n      dup2\n      sload\n      dup2\n      lt\n      tag_55\n      jumpi\n      tag_56\n      tag_38\n      jump\t// in\n    tag_56:\n    tag_55:\n      swap1\n      0x00\n      mstore\n      keccak256(0x00, 0x20)\n      add\n        /* \"contracts/Test.sol\":620:628  b[0] = 2 */\n      dup2\n      swap1\n      sstore\n      pop\n        /* \"contracts/Test.sol\":639:656  console.log(a[0]) */\n      tag_58\n        /* \"contracts/Test.sol\":651:652  a */\n      0x00\n        /* \"contracts/Test.sol\":653:654  0 */\n      dup1\n        /* \"contracts/Test.sol\":651:655  a[0] */\n      dup2\n      sload\n      dup2\n      lt\n      tag_59\n      jumpi\n      tag_60\n      tag_38\n      jump\t// in\n    tag_60:\n    tag_59:\n      swap1\n      0x00\n      mstore\n      keccak256(0x00, 0x20)\n      add\n      sload\n        /* \"contracts/Test.sol\":639:650  console.log */\n      tag_45\n        /* \"contracts/Test.sol\":639:656  console.log(a[0]) */\n      jump\t// in\n    tag_58:\n        /* \"contracts/Test.sol\":667:684  console.log(b[0]) */\n      tag_62\n        /* \"contracts/Test.sol\":679:680  b */\n      dup2\n        /* \"contracts/Test.sol\":681:682  0 */\n      0x00\n        /* \"contracts/Test.sol\":679:683  b[0] */\n      dup2\n      sload\n      dup2\n      lt\n      tag_63\n      jumpi\n      tag_64\n      tag_38\n      jump\t// in\n    tag_64:\n    tag_63:\n      swap1\n      0x00\n      mstore\n      keccak256(0x00, 0x20)\n      add\n      sload\n        /* \"contracts/Test.sol\":667:678  console.log */\n      tag_45\n        /* \"contracts/Test.sol\":667:684  console.log(b[0]) */\n      jump\t// in\n    tag_62:\n        /* \"contracts/Test.sol\":559:692  {\r... */\n      pop\n        /* \"contracts/Test.sol\":522:692  function test() public returns (uint){\r... */\n      swap1\n      jump\t// out\n        /* \"hardhat/console.sol\":4950:5051  function log(uint p0) internal view {... */\n    tag_45:\n        /* \"hardhat/console.sol\":4990:5047  _sendLogPayload(abi.encodeWithSignature(\"log(uint)\", p0)) */\n      tag_67\n        /* \"hardhat/console.sol\":5043:5045  p0 */\n      dup2\n        /* \"hardhat/console.sol\":5006:5046  abi.encodeWithSignature(\"log(uint)\", p0) */\n      add(0x24, mload(0x40))\n      tag_68\n      swap2\n      swap1\n      tag_11\n      jump\t// in\n    tag_68:\n      mload(0x40)\n      0x20\n      dup2\n      dup4\n      sub\n      sub\n      dup2\n      mstore\n      swap1\n      0x40\n      mstore\n      and(not(0xffffffffffffffffffffffffffffffffffffffffffffffffffffffff), 0xf5b1bba900000000000000000000000000000000000000000000000000000000)\n      0x20\n      dup3\n      add\n      dup1\n      mload\n      0xffffffffffffffffffffffffffffffffffffffffffffffffffffffff\n      dup4\n      dup2\n      dup4\n      and\n      or\n      dup4\n      mstore\n      pop\n      pop\n      pop\n      pop\n        /* \"hardhat/console.sol\":4990:5005  _sendLogPayload */\n      tag_69\n        /* \"hardhat/console.sol\":4990:5047  _sendLogPayload(abi.encodeWithSignature(\"log(uint)\", p0)) */\n      jump\t// in\n    tag_67:\n        /* \"hardhat/console.sol\":4950:5051  function log(uint p0) internal view {... */\n      pop\n      jump\t// out\n        /* \"hardhat/console.sol\":176:464  function _sendLogPayload(bytes memory payload) private view {... */\n    tag_69:\n        /* \"hardhat/console.sol\":240:261  uint256 payloadLength */\n      0x00\n        /* \"hardhat/console.sol\":264:271  payload */\n      dup2\n        /* \"hardhat/console.sol\":264:278  payload.length */\n      mload\n        /* \"hardhat/console.sol\":240:278  uint256 payloadLength = payload.length */\n      swap1\n      pop\n        /* \"hardhat/console.sol\":282:304  address consoleAddress */\n      0x00\n        /* \"hardhat/console.sol\":129:171  0x000000000000000000636F6e736F6c652e6c6f67 */\n      0x636f6e736f6c652e6c6f67\n        /* \"hardhat/console.sol\":282:322  address consoleAddress = CONSOLE_ADDRESS */\n      swap1\n      pop\n        /* \"hardhat/console.sol\":373:375  32 */\n      0x20\n        /* \"hardhat/console.sol\":364:371  payload */\n      dup4\n        /* \"hardhat/console.sol\":360:376  add(payload, 32) */\n      add\n        /* \"hardhat/console.sol\":455:456  0 */\n      0x00\n        /* \"hardhat/console.sol\":452:453  0 */\n      dup1\n        /* \"hardhat/console.sol\":437:450  payloadLength */\n      dup5\n        /* \"hardhat/console.sol\":423:435  payloadStart */\n      dup4\n        /* \"hardhat/console.sol\":407:421  consoleAddress */\n      dup6\n        /* \"hardhat/console.sol\":400:405  gas() */\n      gas\n        /* \"hardhat/console.sol\":389:457  staticcall(gas(), consoleAddress, payloadStart, payloadLength, 0, 0) */\n      staticcall\n        /* \"hardhat/console.sol\":335:461  {... */\n      pop\n      pop\n      pop\n      pop\n        /* \"hardhat/console.sol\":176:464  function _sendLogPayload(bytes memory payload) private view {... */\n      pop\n      jump\t// out\n        /* \"#utility.yul\":7:162   */\n    tag_72:\n        /* \"#utility.yul\":61:66   */\n      0x00\n        /* \"#utility.yul\":99:105   */\n      dup2\n        /* \"#utility.yul\":86:106   */\n      calldataload\n        /* \"#utility.yul\":77:106   */\n      swap1\n      pop\n        /* \"#utility.yul\":115:156   */\n      tag_74\n        /* \"#utility.yul\":150:155   */\n      dup2\n        /* \"#utility.yul\":115:156   */\n      tag_75\n      jump\t// in\n    tag_74:\n        /* \"#utility.yul\":7:162   */\n      swap3\n      swap2\n      pop\n      pop\n      jump\t// out\n        /* \"#utility.yul\":168:307   */\n    tag_76:\n        /* \"#utility.yul\":214:219   */\n      0x00\n        /* \"#utility.yul\":252:258   */\n      dup2\n        /* \"#utility.yul\":239:259   */\n      calldataload\n        /* \"#utility.yul\":230:259   */\n      swap1\n      pop\n        /* \"#utility.yul\":268:301   */\n      tag_78\n        /* \"#utility.yul\":295:300   */\n      dup2\n        /* \"#utility.yul\":268:301   */\n      tag_79\n      jump\t// in\n    tag_78:\n        /* \"#utility.yul\":168:307   */\n      swap3\n      swap2\n      pop\n      pop\n      jump\t// out\n        /* \"#utility.yul\":313:448   */\n    tag_80:\n        /* \"#utility.yul\":357:362   */\n      0x00\n        /* \"#utility.yul\":395:401   */\n      dup2\n        /* \"#utility.yul\":382:402   */\n      calldataload\n        /* \"#utility.yul\":373:402   */\n      swap1\n      pop\n        /* \"#utility.yul\":411:442   */\n      tag_82\n        /* \"#utility.yul\":436:441   */\n      dup2\n        /* \"#utility.yul\":411:442   */\n      tag_83\n      jump\t// in\n    tag_82:\n        /* \"#utility.yul\":313:448   */\n      swap3\n      swap2\n      pop\n      pop\n      jump\t// out\n        /* \"#utility.yul\":454:944   */\n    tag_17:\n        /* \"#utility.yul\":530:536   */\n      0x00\n        /* \"#utility.yul\":538:544   */\n      dup1\n        /* \"#utility.yul\":587:589   */\n      0x40\n        /* \"#utility.yul\":575:584   */\n      dup4\n        /* \"#utility.yul\":566:573   */\n      dup6\n        /* \"#utility.yul\":562:585   */\n      sub\n        /* \"#utility.yul\":558:590   */\n      slt\n        /* \"#utility.yul\":555:674   */\n      iszero\n      tag_85\n      jumpi\n        /* \"#utility.yul\":593:672   */\n      tag_86\n      tag_87\n      jump\t// in\n    tag_86:\n        /* \"#utility.yul\":555:674   */\n    tag_85:\n        /* \"#utility.yul\":713:714   */\n      0x00\n        /* \"#utility.yul\":738:799   */\n      tag_88\n        /* \"#utility.yul\":791:798   */\n      dup6\n        /* \"#utility.yul\":782:788   */\n      dup3\n        /* \"#utility.yul\":771:780   */\n      dup7\n        /* \"#utility.yul\":767:789   */\n      add\n        /* \"#utility.yul\":738:799   */\n      tag_72\n      jump\t// in\n    tag_88:\n        /* \"#utility.yul\":728:799   */\n      swap3\n      pop\n        /* \"#utility.yul\":684:809   */\n      pop\n        /* \"#utility.yul\":848:850   */\n      0x20\n        /* \"#utility.yul\":874:927   */\n      tag_89\n        /* \"#utility.yul\":919:926   */\n      dup6\n        /* \"#utility.yul\":910:916   */\n      dup3\n        /* \"#utility.yul\":899:908   */\n      dup7\n        /* \"#utility.yul\":895:917   */\n      add\n        /* \"#utility.yul\":874:927   */\n      tag_76\n      jump\t// in\n    tag_89:\n        /* \"#utility.yul\":864:927   */\n      swap2\n      pop\n        /* \"#utility.yul\":819:937   */\n      pop\n        /* \"#utility.yul\":454:944   */\n      swap3\n      pop\n      swap3\n      swap1\n      pop\n      jump\t// out\n        /* \"#utility.yul\":950:1416   */\n    tag_22:\n        /* \"#utility.yul\":1014:1020   */\n      0x00\n        /* \"#utility.yul\":1022:1028   */\n      dup1\n        /* \"#utility.yul\":1071:1073   */\n      0x40\n        /* \"#utility.yul\":1059:1068   */\n      dup4\n        /* \"#utility.yul\":1050:1057   */\n      dup6\n        /* \"#utility.yul\":1046:1069   */\n      sub\n        /* \"#utility.yul\":1042:1074   */\n      slt\n        /* \"#utility.yul\":1039:1158   */\n      iszero\n      tag_91\n      jumpi\n        /* \"#utility.yul\":1077:1156   */\n      tag_92\n      tag_87\n      jump\t// in\n    tag_92:\n        /* \"#utility.yul\":1039:1158   */\n    tag_91:\n        /* \"#utility.yul\":1197:1198   */\n      0x00\n        /* \"#utility.yul\":1222:1273   */\n      tag_93\n        /* \"#utility.yul\":1265:1272   */\n      dup6\n        /* \"#utility.yul\":1256:1262   */\n      dup3\n        /* \"#utility.yul\":1245:1254   */\n      dup7\n        /* \"#utility.yul\":1241:1263   */\n      add\n        /* \"#utility.yul\":1222:1273   */\n      tag_80\n      jump\t// in\n    tag_93:\n        /* \"#utility.yul\":1212:1273   */\n      swap3\n      pop\n        /* \"#utility.yul\":1168:1283   */\n      pop\n        /* \"#utility.yul\":1322:1324   */\n      0x20\n        /* \"#utility.yul\":1348:1399   */\n      tag_94\n        /* \"#utility.yul\":1391:1398   */\n      dup6\n        /* \"#utility.yul\":1382:1388   */\n      dup3\n        /* \"#utility.yul\":1371:1380   */\n      dup7\n        /* \"#utility.yul\":1367:1389   */\n      add\n        /* \"#utility.yul\":1348:1399   */\n      tag_80\n      jump\t// in\n    tag_94:\n        /* \"#utility.yul\":1338:1399   */\n      swap2\n      pop\n        /* \"#utility.yul\":1293:1409   */\n      pop\n        /* \"#utility.yul\":950:1416   */\n      swap3\n      pop\n      swap3\n      swap1\n      pop\n      jump\t// out\n        /* \"#utility.yul\":1422:1540   */\n    tag_95:\n        /* \"#utility.yul\":1509:1533   */\n      tag_97\n        /* \"#utility.yul\":1527:1532   */\n      dup2\n        /* \"#utility.yul\":1509:1533   */\n      tag_98\n      jump\t// in\n    tag_97:\n        /* \"#utility.yul\":1504:1507   */\n      dup3\n        /* \"#utility.yul\":1497:1534   */\n      mstore\n        /* \"#utility.yul\":1422:1540   */\n      pop\n      pop\n      jump\t// out\n        /* \"#utility.yul\":1546:1658   */\n    tag_99:\n        /* \"#utility.yul\":1629:1651   */\n      tag_101\n        /* \"#utility.yul\":1645:1650   */\n      dup2\n        /* \"#utility.yul\":1629:1651   */\n      tag_102\n      jump\t// in\n    tag_101:\n        /* \"#utility.yul\":1624:1627   */\n      dup3\n        /* \"#utility.yul\":1617:1652   */\n      mstore\n        /* \"#utility.yul\":1546:1658   */\n      pop\n      pop\n      jump\t// out\n        /* \"#utility.yul\":1664:1886   */\n    tag_11:\n        /* \"#utility.yul\":1757:1761   */\n      0x00\n        /* \"#utility.yul\":1795:1797   */\n      0x20\n        /* \"#utility.yul\":1784:1793   */\n      dup3\n        /* \"#utility.yul\":1780:1798   */\n      add\n        /* \"#utility.yul\":1772:1798   */\n      swap1\n      pop\n        /* \"#utility.yul\":1808:1879   */\n      tag_104\n        /* \"#utility.yul\":1876:1877   */\n      0x00\n        /* \"#utility.yul\":1865:1874   */\n      dup4\n        /* \"#utility.yul\":1861:1878   */\n      add\n        /* \"#utility.yul\":1852:1858   */\n      dup5\n        /* \"#utility.yul\":1808:1879   */\n      tag_95\n      jump\t// in\n    tag_104:\n        /* \"#utility.yul\":1664:1886   */\n      swap3\n      swap2\n      pop\n      pop\n      jump\t// out\n        /* \"#utility.yul\":1892:2106   */\n    tag_25:\n        /* \"#utility.yul\":1981:1985   */\n      0x00\n        /* \"#utility.yul\":2019:2021   */\n      0x20\n        /* \"#utility.yul\":2008:2017   */\n      dup3\n        /* \"#utility.yul\":2004:2022   */\n      add\n        /* \"#utility.yul\":1996:2022   */\n      swap1\n      pop\n        /* \"#utility.yul\":2032:2099   */\n      tag_106\n        /* \"#utility.yul\":2096:2097   */\n      0x00\n        /* \"#utility.yul\":2085:2094   */\n      dup4\n        /* \"#utility.yul\":2081:2098   */\n      add\n        /* \"#utility.yul\":2072:2078   */\n      dup5\n        /* \"#utility.yul\":2032:2099   */\n      tag_99\n      jump\t// in\n    tag_106:\n        /* \"#utility.yul\":1892:2106   */\n      swap3\n      swap2\n      pop\n      pop\n      jump\t// out\n        /* \"#utility.yul\":2193:2430   */\n    tag_50:\n        /* \"#utility.yul\":2231:2234   */\n      0x00\n        /* \"#utility.yul\":2250:2268   */\n      tag_110\n        /* \"#utility.yul\":2266:2267   */\n      dup3\n        /* \"#utility.yul\":2250:2268   */\n      tag_102\n      jump\t// in\n    tag_110:\n        /* \"#utility.yul\":2245:2268   */\n      swap2\n      pop\n        /* \"#utility.yul\":2282:2300   */\n      tag_111\n        /* \"#utility.yul\":2298:2299   */\n      dup4\n        /* \"#utility.yul\":2282:2300   */\n      tag_102\n      jump\t// in\n    tag_111:\n        /* \"#utility.yul\":2277:2300   */\n      swap3\n      pop\n        /* \"#utility.yul\":2372:2373   */\n      dup3\n        /* \"#utility.yul\":2366:2370   */\n      0xff\n        /* \"#utility.yul\":2362:2374   */\n      sub\n        /* \"#utility.yul\":2359:2360   */\n      dup3\n        /* \"#utility.yul\":2356:2375   */\n      gt\n        /* \"#utility.yul\":2353:2398   */\n      iszero\n      tag_112\n      jumpi\n        /* \"#utility.yul\":2378:2396   */\n      tag_113\n      tag_114\n      jump\t// in\n    tag_113:\n        /* \"#utility.yul\":2353:2398   */\n    tag_112:\n        /* \"#utility.yul\":2422:2423   */\n      dup3\n        /* \"#utility.yul\":2419:2420   */\n      dup3\n        /* \"#utility.yul\":2415:2424   */\n      add\n        /* \"#utility.yul\":2408:2424   */\n      swap1\n      pop\n        /* \"#utility.yul\":2193:2430   */\n      swap3\n      swap2\n      pop\n      pop\n      jump\t// out\n        /* \"#utility.yul\":2436:2540   */\n    tag_115:\n        /* \"#utility.yul\":2481:2488   */\n      0x00\n        /* \"#utility.yul\":2510:2534   */\n      tag_117\n        /* \"#utility.yul\":2528:2533   */\n      dup3\n        /* \"#utility.yul\":2510:2534   */\n      tag_118\n      jump\t// in\n    tag_117:\n        /* \"#utility.yul\":2499:2534   */\n      swap1\n      pop\n        /* \"#utility.yul\":2436:2540   */\n      swap2\n      swap1\n      pop\n      jump\t// out\n        /* \"#utility.yul\":2546:2672   */\n    tag_118:\n        /* \"#utility.yul\":2583:2590   */\n      0x00\n        /* \"#utility.yul\":2623:2665   */\n      0xffffffffffffffffffffffffffffffffffffffff\n        /* \"#utility.yul\":2616:2621   */\n      dup3\n        /* \"#utility.yul\":2612:2666   */\n      and\n        /* \"#utility.yul\":2601:2666   */\n      swap1\n      pop\n        /* \"#utility.yul\":2546:2672   */\n      swap2\n      swap1\n      pop\n      jump\t// out\n        /* \"#utility.yul\":2678:2755   */\n    tag_98:\n        /* \"#utility.yul\":2715:2722   */\n      0x00\n        /* \"#utility.yul\":2744:2749   */\n      dup2\n        /* \"#utility.yul\":2733:2749   */\n      swap1\n      pop\n        /* \"#utility.yul\":2678:2755   */\n      swap2\n      swap1\n      pop\n      jump\t// out\n        /* \"#utility.yul\":2761:2847   */\n    tag_102:\n        /* \"#utility.yul\":2796:2803   */\n      0x00\n        /* \"#utility.yul\":2836:2840   */\n      0xff\n        /* \"#utility.yul\":2829:2834   */\n      dup3\n        /* \"#utility.yul\":2825:2841   */\n      and\n        /* \"#utility.yul\":2814:2841   */\n      swap1\n      pop\n        /* \"#utility.yul\":2761:2847   */\n      swap2\n      swap1\n      pop\n      jump\t// out\n        /* \"#utility.yul\":2853:3033   */\n    tag_114:\n        /* \"#utility.yul\":2901:2978   */\n      0x4e487b7100000000000000000000000000000000000000000000000000000000\n        /* \"#utility.yul\":2898:2899   */\n      0x00\n        /* \"#utility.yul\":2891:2979   */\n      mstore\n        /* \"#utility.yul\":2998:3002   */\n      0x11\n        /* \"#utility.yul\":2995:2996   */\n      0x04\n        /* \"#utility.yul\":2988:3003   */\n      mstore\n        /* \"#utility.yul\":3022:3026   */\n      0x24\n        /* \"#utility.yul\":3019:3020   */\n      0x00\n        /* \"#utility.yul\":3012:3027   */\n      revert\n        /* \"#utility.yul\":3039:3219   */\n    tag_38:\n        /* \"#utility.yul\":3087:3164   */\n      0x4e487b7100000000000000000000000000000000000000000000000000000000\n        /* \"#utility.yul\":3084:3085   */\n      0x00\n        /* \"#utility.yul\":3077:3165   */\n      mstore\n        /* \"#utility.yul\":3184:3188   */\n      0x32\n        /* \"#utility.yul\":3181:3182   */\n      0x04\n        /* \"#utility.yul\":3174:3189   */\n      mstore\n        /* \"#utility.yul\":3208:3212   */\n      0x24\n        /* \"#utility.yul\":3205:3206   */\n      0x00\n        /* \"#utility.yul\":3198:3213   */\n      revert\n        /* \"#utility.yul\":3225:3405   */\n    tag_34:\n        /* \"#utility.yul\":3273:3350   */\n      0x4e487b7100000000000000000000000000000000000000000000000000000000\n        /* \"#utility.yul\":3270:3271   */\n      0x00\n        /* \"#utility.yul\":3263:3351   */\n      mstore\n        /* \"#utility.yul\":3370:3374   */\n      0x41\n        /* \"#utility.yul\":3367:3368   */\n      0x04\n        /* \"#utility.yul\":3360:3375   */\n      mstore\n        /* \"#utility.yul\":3394:3398   */\n      0x24\n        /* \"#utility.yul\":3391:3392   */\n      0x00\n        /* \"#utility.yul\":3384:3399   */\n      revert\n        /* \"#utility.yul\":3534:3651   */\n    tag_87:\n        /* \"#utility.yul\":3643:3644   */\n      0x00\n        /* \"#utility.yul\":3640:3641   */\n      dup1\n        /* \"#utility.yul\":3633:3645   */\n      revert\n        /* \"#utility.yul\":3657:3795   */\n    tag_75:\n        /* \"#utility.yul\":3738:3770   */\n      tag_129\n        /* \"#utility.yul\":3764:3769   */\n      dup2\n        /* \"#utility.yul\":3738:3770   */\n      tag_115\n      jump\t// in\n    tag_129:\n        /* \"#utility.yul\":3731:3736   */\n      dup2\n        /* \"#utility.yul\":3728:3771   */\n      eq\n        /* \"#utility.yul\":3718:3789   */\n      tag_130\n      jumpi\n        /* \"#utility.yul\":3785:3786   */\n      0x00\n        /* \"#utility.yul\":3782:3783   */\n      dup1\n        /* \"#utility.yul\":3775:3787   */\n      revert\n        /* \"#utility.yul\":3718:3789   */\n    tag_130:\n        /* \"#utility.yul\":3657:3795   */\n      pop\n      jump\t// out\n        /* \"#utility.yul\":3801:3923   */\n    tag_79:\n        /* \"#utility.yul\":3874:3898   */\n      tag_132\n        /* \"#utility.yul\":3892:3897   */\n      dup2\n        /* \"#utility.yul\":3874:3898   */\n      tag_98\n      jump\t// in\n    tag_132:\n        /* \"#utility.yul\":3867:3872   */\n      dup2\n        /* \"#utility.yul\":3864:3899   */\n      eq\n        /* \"#utility.yul\":3854:3917   */\n      tag_133\n      jumpi\n        /* \"#utility.yul\":3913:3914   */\n      0x00\n        /* \"#utility.yul\":3910:3911   */\n      dup1\n        /* \"#utility.yul\":3903:3915   */\n      revert\n        /* \"#utility.yul\":3854:3917   */\n    tag_133:\n        /* \"#utility.yul\":3801:3923   */\n      pop\n      jump\t// out\n        /* \"#utility.yul\":3929:4047   */\n    tag_83:\n        /* \"#utility.yul\":4000:4022   */\n      tag_135\n        /* \"#utility.yul\":4016:4021   */\n      dup2\n        /* \"#utility.yul\":4000:4022   */\n      tag_102\n      jump\t// in\n    tag_135:\n        /* \"#utility.yul\":3993:3998   */\n      dup2\n        /* \"#utility.yul\":3990:4023   */\n      eq\n        /* \"#utility.yul\":3980:4041   */\n      tag_136\n      jumpi\n        /* \"#utility.yul\":4037:4038   */\n      0x00\n        /* \"#utility.yul\":4034:4035   */\n      dup1\n        /* \"#utility.yul\":4027:4039   */\n      revert\n        /* \"#utility.yul\":3980:4041   */\n    tag_136:\n        /* \"#utility.yul\":3929:4047   */\n      pop\n      jump\t// out\n\n    auxdata: 0xa26469706673582212206862bc14244264297bd897ddcae4e3f71ec29424b186557e6e1ba50f63d7072364736f6c63430008070033\n}\n",
				"bytecode": {
					"linkReferences": {},
					"object": "6080604052600167ffffffffffffffff81111561001f5761001e6100e0565b5b60405190808252806020026020018201604052801561004d5781602001602082028036833780820191505090505b5060009080519060200190610063929190610076565b5034801561007057600080fd5b5061010f565b8280548282559060005260206000209081019282156100b2579160200282015b828111156100b1578251825591602001919060010190610096565b5b5090506100bf91906100c3565b5090565b5b808211156100dc5760008160009055506001016100c4565b5090565b7f4e487b7100000000000000000000000000000000000000000000000000000000600052604160045260246000fd5b61066c8061011e6000396000f3fe60806040526004361061004a5760003560e01c806312065fe01461004f5780634bc92ad21461007a578063a9059cbb14610091578063bb4e3f4d146100ad578063f8a8fd6d146100ea575b600080fd5b34801561005b57600080fd5b50610064610115565b60405161007191906104a9565b60405180910390f35b34801561008657600080fd5b5061008f610134565b005b6100ab60048036038101906100a6919061040b565b6101eb565b005b3480156100b957600080fd5b506100d460048036038101906100cf919061044b565b610256565b6040516100e191906104c4565b60405180910390f35b3480156100f657600080fd5b506100ff61026c565b60405161010c91906104a9565b60405180910390f35b60003373ffffffffffffffffffffffffffffffffffffffff1631905090565b6000600267ffffffffffffffff811115610151576101506105bd565b5b60405190808252806020026020018201604052801561017f5781602001602082028036833780820191505090505b5090506001816000815181106101985761019761058e565b5b6020026020010181815250506002816001815181106101ba576101b961058e565b5b6020026020010181815250506003816002815181106101dc576101db61058e565b5b60200260200101818152505050565b61020b3373ffffffffffffffffffffffffffffffffffffffff163161030a565b8173ffffffffffffffffffffffffffffffffffffffff166108fc829081150290604051600060405180830381858888f19350505050158015610251573d6000803e3d6000fd5b505050565b6000818361026491906104df565b905092915050565b60006001600080815481106102845761028361058e565b5b906000526020600020018190555060006002816000815481106102aa576102a961058e565b5b90600052602060002001819055506102df600080815481106102cf576102ce61058e565b5b906000526020600020015461030a565b610306816000815481106102f6576102f561058e565b5b906000526020600020015461030a565b5090565b6103a08160405160240161031e91906104a9565b6040516020818303038152906040527ff5b1bba9000000000000000000000000000000000000000000000000000000007bffffffffffffffffffffffffffffffffffffffffffffffffffffffff19166020820180517bffffffffffffffffffffffffffffffffffffffffffffffffffffffff83818316178352505050506103a3565b50565b60008151905060006a636f6e736f6c652e6c6f679050602083016000808483855afa5050505050565b6000813590506103db816105f1565b92915050565b6000813590506103f081610608565b92915050565b6000813590506104058161061f565b92915050565b60008060408385031215610422576104216105ec565b5b6000610430858286016103cc565b9250506020610441858286016103e1565b9150509250929050565b60008060408385031215610462576104616105ec565b5b6000610470858286016103f6565b9250506020610481858286016103f6565b9150509250929050565b61049481610548565b82525050565b6104a381610552565b82525050565b60006020820190506104be600083018461048b565b92915050565b60006020820190506104d9600083018461049a565b92915050565b60006104ea82610552565b91506104f583610552565b92508260ff0382111561050b5761050a61055f565b5b828201905092915050565b600061052182610528565b9050919050565b600073ffffffffffffffffffffffffffffffffffffffff82169050919050565b6000819050919050565b600060ff82169050919050565b7f4e487b7100000000000000000000000000000000000000000000000000000000600052601160045260246000fd5b7f4e487b7100000000000000000000000000000000000000000000000000000000600052603260045260246000fd5b7f4e487b7100000000000000000000000000000000000000000000000000000000600052604160045260246000fd5b600080fd5b6105fa81610516565b811461060557600080fd5b50565b61061181610548565b811461061c57600080fd5b50565b61062881610552565b811461063357600080fd5b5056fea26469706673582212206862bc14244264297bd897ddcae4e3f71ec29424b186557e6e1ba50f63d7072364736f6c63430008070033",
					"opcodes": "PUSH1 0x80 PUSH1 0x40 MSTORE PUSH1 0x1 PUSH8 0xFFFFFFFFFFFFFFFF DUP2 GT ISZERO PUSH2 0x1F JUMPI PUSH2 0x1E PUSH2 0xE0 JUMP JUMPDEST JUMPDEST PUSH1 0x40 MLOAD SWAP1 DUP1 DUP3 MSTORE DUP1 PUSH1 0x20 MUL PUSH1 0x20 ADD DUP3 ADD PUSH1 0x40 MSTORE DUP1 ISZERO PUSH2 0x4D JUMPI DUP2 PUSH1 0x20 ADD PUSH1 0x20 DUP3 MUL DUP1 CALLDATASIZE DUP4 CALLDATACOPY DUP1 DUP3 ADD SWAP2 POP POP SWAP1 POP JUMPDEST POP PUSH1 0x0 SWAP1 DUP1 MLOAD SWAP1 PUSH1 0x20 ADD SWAP1 PUSH2 0x63 SWAP3 SWAP2 SWAP1 PUSH2 0x76 JUMP JUMPDEST POP CALLVALUE DUP1 ISZERO PUSH2 0x70 JUMPI PUSH1 0x0 DUP1 REVERT JUMPDEST POP PUSH2 0x10F JUMP JUMPDEST DUP3 DUP1 SLOAD DUP3 DUP3 SSTORE SWAP1 PUSH1 0x0 MSTORE PUSH1 0x20 PUSH1 0x0 KECCAK256 SWAP1 DUP2 ADD SWAP3 DUP3 ISZERO PUSH2 0xB2 JUMPI SWAP2 PUSH1 0x20 MUL DUP3 ADD JUMPDEST DUP3 DUP2 GT ISZERO PUSH2 0xB1 JUMPI DUP3 MLOAD DUP3 SSTORE SWAP2 PUSH1 0x20 ADD SWAP2 SWAP1 PUSH1 0x1 ADD SWAP1 PUSH2 0x96 JUMP JUMPDEST JUMPDEST POP SWAP1 POP PUSH2 0xBF SWAP2 SWAP1 PUSH2 0xC3 JUMP JUMPDEST POP SWAP1 JUMP JUMPDEST JUMPDEST DUP1 DUP3 GT ISZERO PUSH2 0xDC JUMPI PUSH1 0x0 DUP2 PUSH1 0x0 SWAP1 SSTORE POP PUSH1 0x1 ADD PUSH2 0xC4 JUMP JUMPDEST POP SWAP1 JUMP JUMPDEST PUSH32 0x4E487B7100000000000000000000000000000000000000000000000000000000 PUSH1 0x0 MSTORE PUSH1 0x41 PUSH1 0x4 MSTORE PUSH1 0x24 PUSH1 0x0 REVERT JUMPDEST PUSH2 0x66C DUP1 PUSH2 0x11E PUSH1 0x0 CODECOPY PUSH1 0x0 RETURN INVALID PUSH1 0x80 PUSH1 0x40 MSTORE PUSH1 0x4 CALLDATASIZE LT PUSH2 0x4A JUMPI PUSH1 0x0 CALLDATALOAD PUSH1 0xE0 SHR DUP1 PUSH4 0x12065FE0 EQ PUSH2 0x4F JUMPI DUP1 PUSH4 0x4BC92AD2 EQ PUSH2 0x7A JUMPI DUP1 PUSH4 0xA9059CBB EQ PUSH2 0x91 JUMPI DUP1 PUSH4 0xBB4E3F4D EQ PUSH2 0xAD JUMPI DUP1 PUSH4 0xF8A8FD6D EQ PUSH2 0xEA JUMPI JUMPDEST PUSH1 0x0 DUP1 REVERT JUMPDEST CALLVALUE DUP1 ISZERO PUSH2 0x5B JUMPI PUSH1 0x0 DUP1 REVERT JUMPDEST POP PUSH2 0x64 PUSH2 0x115 JUMP JUMPDEST PUSH1 0x40 MLOAD PUSH2 0x71 SWAP2 SWAP1 PUSH2 0x4A9 JUMP JUMPDEST PUSH1 0x40 MLOAD DUP1 SWAP2 SUB SWAP1 RETURN JUMPDEST CALLVALUE DUP1 ISZERO PUSH2 0x86 JUMPI PUSH1 0x0 DUP1 REVERT JUMPDEST POP PUSH2 0x8F PUSH2 0x134 JUMP JUMPDEST STOP JUMPDEST PUSH2 0xAB PUSH1 0x4 DUP1 CALLDATASIZE SUB DUP2 ADD SWAP1 PUSH2 0xA6 SWAP2 SWAP1 PUSH2 0x40B JUMP JUMPDEST PUSH2 0x1EB JUMP JUMPDEST STOP JUMPDEST CALLVALUE DUP1 ISZERO PUSH2 0xB9 JUMPI PUSH1 0x0 DUP1 REVERT JUMPDEST POP PUSH2 0xD4 PUSH1 0x4 DUP1 CALLDATASIZE SUB DUP2 ADD SWAP1 PUSH2 0xCF SWAP2 SWAP1 PUSH2 0x44B JUMP JUMPDEST PUSH2 0x256 JUMP JUMPDEST PUSH1 0x40 MLOAD PUSH2 0xE1 SWAP2 SWAP1 PUSH2 0x4C4 JUMP JUMPDEST PUSH1 0x40 MLOAD DUP1 SWAP2 SUB SWAP1 RETURN JUMPDEST CALLVALUE DUP1 ISZERO PUSH2 0xF6 JUMPI PUSH1 0x0 DUP1 REVERT JUMPDEST POP PUSH2 0xFF PUSH2 0x26C JUMP JUMPDEST PUSH1 0x40 MLOAD PUSH2 0x10C SWAP2 SWAP1 PUSH2 0x4A9 JUMP JUMPDEST PUSH1 0x40 MLOAD DUP1 SWAP2 SUB SWAP1 RETURN JUMPDEST PUSH1 0x0 CALLER PUSH20 0xFFFFFFFFFFFFFFFFFFFFFFFFFFFFFFFFFFFFFFFF AND BALANCE SWAP1 POP SWAP1 JUMP JUMPDEST PUSH1 0x0 PUSH1 0x2 PUSH8 0xFFFFFFFFFFFFFFFF DUP2 GT ISZERO PUSH2 0x151 JUMPI PUSH2 0x150 PUSH2 0x5BD JUMP JUMPDEST JUMPDEST PUSH1 0x40 MLOAD SWAP1 DUP1 DUP3 MSTORE DUP1 PUSH1 0x20 MUL PUSH1 0x20 ADD DUP3 ADD PUSH1 0x40 MSTORE DUP1 ISZERO PUSH2 0x17F JUMPI DUP2 PUSH1 0x20 ADD PUSH1 0x20 DUP3 MUL DUP1 CALLDATASIZE DUP4 CALLDATACOPY DUP1 DUP3 ADD SWAP2 POP POP SWAP1 POP JUMPDEST POP SWAP1 POP PUSH1 0x1 DUP2 PUSH1 0x0 DUP2 MLOAD DUP2 LT PUSH2 0x198 JUMPI PUSH2 0x197 PUSH2 0x58E JUMP JUMPDEST JUMPDEST PUSH1 0x20 MUL PUSH1 0x20 ADD ADD DUP2 DUP2 MSTORE POP POP PUSH1 0x2 DUP2 PUSH1 0x1 DUP2 MLOAD DUP2 LT PUSH2 0x1BA JUMPI PUSH2 0x1B9 PUSH2 0x58E JUMP JUMPDEST JUMPDEST PUSH1 0x20 MUL PUSH1 0x20 ADD ADD DUP2 DUP2 MSTORE POP POP PUSH1 0x3 DUP2 PUSH1 0x2 DUP2 MLOAD DUP2 LT PUSH2 0x1DC JUMPI PUSH2 0x1DB PUSH2 0x58E JUMP JUMPDEST JUMPDEST PUSH1 0x20 MUL PUSH1 0x20 ADD ADD DUP2 DUP2 MSTORE POP POP POP JUMP JUMPDEST PUSH2 0x20B CALLER PUSH20 0xFFFFFFFFFFFFFFFFFFFFFFFFFFFFFFFFFFFFFFFF AND BALANCE PUSH2 0x30A JUMP JUMPDEST DUP2 PUSH20 0xFFFFFFFFFFFFFFFFFFFFFFFFFFFFFFFFFFFFFFFF AND PUSH2 0x8FC DUP3 SWAP1 DUP2 ISZERO MUL SWAP1 PUSH1 0x40 MLOAD PUSH1 0x0 PUSH1 0x40 MLOAD DUP1 DUP4 SUB DUP2 DUP6 DUP9 DUP9 CALL SWAP4 POP POP POP POP ISZERO DUP1 ISZERO PUSH2 0x251 JUMPI RETURNDATASIZE PUSH1 0x0 DUP1 RETURNDATACOPY RETURNDATASIZE PUSH1 0x0 REVERT JUMPDEST POP POP POP JUMP JUMPDEST PUSH1 0x0 DUP2 DUP4 PUSH2 0x264 SWAP2 SWAP1 PUSH2 0x4DF JUMP JUMPDEST SWAP1 POP SWAP3 SWAP2 POP POP JUMP JUMPDEST PUSH1 0x0 PUSH1 0x1 PUSH1 0x0 DUP1 DUP2 SLOAD DUP2 LT PUSH2 0x284 JUMPI PUSH2 0x283 PUSH2 0x58E JUMP JUMPDEST JUMPDEST SWAP1 PUSH1 0x0 MSTORE PUSH1 0x20 PUSH1 0x0 KECCAK256 ADD DUP2 SWAP1 SSTORE POP PUSH1 0x0 PUSH1 0x2 DUP2 PUSH1 0x0 DUP2 SLOAD DUP2 LT PUSH2 0x2AA JUMPI PUSH2 0x2A9 PUSH2 0x58E JUMP JUMPDEST JUMPDEST SWAP1 PUSH1 0x0 MSTORE PUSH1 0x20 PUSH1 0x0 KECCAK256 ADD DUP2 SWAP1 SSTORE POP PUSH2 0x2DF PUSH1 0x0 DUP1 DUP2 SLOAD DUP2 LT PUSH2 0x2CF JUMPI PUSH2 0x2CE PUSH2 0x58E JUMP JUMPDEST JUMPDEST SWAP1 PUSH1 0x0 MSTORE PUSH1 0x20 PUSH1 0x0 KECCAK256 ADD SLOAD PUSH2 0x30A JUMP JUMPDEST PUSH2 0x306 DUP2 PUSH1 0x0 DUP2 SLOAD DUP2 LT PUSH2 0x2F6 JUMPI PUSH2 0x2F5 PUSH2 0x58E JUMP JUMPDEST JUMPDEST SWAP1 PUSH1 0x0 MSTORE PUSH1 0x20 PUSH1 0x0 KECCAK256 ADD SLOAD PUSH2 0x30A JUMP JUMPDEST POP SWAP1 JUMP JUMPDEST PUSH2 0x3A0 DUP2 PUSH1 0x40 MLOAD PUSH1 0x24 ADD PUSH2 0x31E SWAP2 SWAP1 PUSH2 0x4A9 JUMP JUMPDEST PUSH1 0x40 MLOAD PUSH1 0x20 DUP2 DUP4 SUB SUB DUP2 MSTORE SWAP1 PUSH1 0x40 MSTORE PUSH32 0xF5B1BBA900000000000000000000000000000000000000000000000000000000 PUSH28 0xFFFFFFFFFFFFFFFFFFFFFFFFFFFFFFFFFFFFFFFFFFFFFFFFFFFFFFFF NOT AND PUSH1 0x20 DUP3 ADD DUP1 MLOAD PUSH28 0xFFFFFFFFFFFFFFFFFFFFFFFFFFFFFFFFFFFFFFFFFFFFFFFFFFFFFFFF DUP4 DUP2 DUP4 AND OR DUP4 MSTORE POP POP POP POP PUSH2 0x3A3 JUMP JUMPDEST POP JUMP JUMPDEST PUSH1 0x0 DUP2 MLOAD SWAP1 POP PUSH1 0x0 PUSH11 0x636F6E736F6C652E6C6F67 SWAP1 POP PUSH1 0x20 DUP4 ADD PUSH1 0x0 DUP1 DUP5 DUP4 DUP6 GAS STATICCALL POP POP POP POP POP JUMP JUMPDEST PUSH1 0x0 DUP2 CALLDATALOAD SWAP1 POP PUSH2 0x3DB DUP2 PUSH2 0x5F1 JUMP JUMPDEST SWAP3 SWAP2 POP POP JUMP JUMPDEST PUSH1 0x0 DUP2 CALLDATALOAD SWAP1 POP PUSH2 0x3F0 DUP2 PUSH2 0x608 JUMP JUMPDEST SWAP3 SWAP2 POP POP JUMP JUMPDEST PUSH1 0x0 DUP2 CALLDATALOAD SWAP1 POP PUSH2 0x405 DUP2 PUSH2 0x61F JUMP JUMPDEST SWAP3 SWAP2 POP POP JUMP JUMPDEST PUSH1 0x0 DUP1 PUSH1 0x40 DUP4 DUP6 SUB SLT ISZERO PUSH2 0x422 JUMPI PUSH2 0x421 PUSH2 0x5EC JUMP JUMPDEST JUMPDEST PUSH1 0x0 PUSH2 0x430 DUP6 DUP3 DUP7 ADD PUSH2 0x3CC JUMP JUMPDEST SWAP3 POP POP PUSH1 0x20 PUSH2 0x441 DUP6 DUP3 DUP7 ADD PUSH2 0x3E1 JUMP JUMPDEST SWAP2 POP POP SWAP3 POP SWAP3 SWAP1 POP JUMP JUMPDEST PUSH1 0x0 DUP1 PUSH1 0x40 DUP4 DUP6 SUB SLT ISZERO PUSH2 0x462 JUMPI PUSH2 0x461 PUSH2 0x5EC JUMP JUMPDEST JUMPDEST PUSH1 0x0 PUSH2 0x470 DUP6 DUP3 DUP7 ADD PUSH2 0x3F6 JUMP JUMPDEST SWAP3 POP POP PUSH1 0x20 PUSH2 0x481 DUP6 DUP3 DUP7 ADD PUSH2 0x3F6 JUMP JUMPDEST SWAP2 POP POP SWAP3 POP SWAP3 SWAP1 POP JUMP JUMPDEST PUSH2 0x494 DUP2 PUSH2 0x548 JUMP JUMPDEST DUP3 MSTORE POP POP JUMP JUMPDEST PUSH2 0x4A3 DUP2 PUSH2 0x552 JUMP JUMPDEST DUP3 MSTORE POP POP JUMP JUMPDEST PUSH1 0x0 PUSH1 0x20 DUP3 ADD SWAP1 POP PUSH2 0x4BE PUSH1 0x0 DUP4 ADD DUP5 PUSH2 0x48B JUMP JUMPDEST SWAP3 SWAP2 POP POP JUMP JUMPDEST PUSH1 0x0 PUSH1 0x20 DUP3 ADD SWAP1 POP PUSH2 0x4D9 PUSH1 0x0 DUP4 ADD DUP5 PUSH2 0x49A JUMP JUMPDEST SWAP3 SWAP2 POP POP JUMP JUMPDEST PUSH1 0x0 PUSH2 0x4EA DUP3 PUSH2 0x552 JUMP JUMPDEST SWAP2 POP PUSH2 0x4F5 DUP4 PUSH2 0x552 JUMP JUMPDEST SWAP3 POP DUP3 PUSH1 0xFF SUB DUP3 GT ISZERO PUSH2 0x50B JUMPI PUSH2 0x50A PUSH2 0x55F JUMP JUMPDEST JUMPDEST DUP3 DUP3 ADD SWAP1 POP SWAP3 SWAP2 POP POP JUMP JUMPDEST PUSH1 0x0 PUSH2 0x521 DUP3 PUSH2 0x528 JUMP JUMPDEST SWAP1 POP SWAP2 SWAP1 POP JUMP JUMPDEST PUSH1 0x0 PUSH20 0xFFFFFFFFFFFFFFFFFFFFFFFFFFFFFFFFFFFFFFFF DUP3 AND SWAP1 POP SWAP2 SWAP1 POP JUMP JUMPDEST PUSH1 0x0 DUP2 SWAP1 POP SWAP2 SWAP1 POP JUMP JUMPDEST PUSH1 0x0 PUSH1 0xFF DUP3 AND SWAP1 POP SWAP2 SWAP1 POP JUMP JUMPDEST PUSH32 0x4E487B7100000000000000000000000000000000000000000000000000000000 PUSH1 0x0 MSTORE PUSH1 0x11 PUSH1 0x4 MSTORE PUSH1 0x24 PUSH1 0x0 REVERT JUMPDEST PUSH32 0x4E487B7100000000000000000000000000000000000000000000000000000000 PUSH1 0x0 MSTORE PUSH1 0x32 PUSH1 0x4 MSTORE PUSH1 0x24 PUSH1 0x0 REVERT JUMPDEST PUSH32 0x4E487B7100000000000000000000000000000000000000000000000000000000 PUSH1 0x0 MSTORE PUSH1 0x41 PUSH1 0x4 MSTORE PUSH1 0x24 PUSH1 0x0 REVERT JUMPDEST PUSH1 0x0 DUP1 REVERT JUMPDEST PUSH2 0x5FA DUP2 PUSH2 0x516 JUMP JUMPDEST DUP2 EQ PUSH2 0x605 JUMPI PUSH1 0x0 DUP1 REVERT JUMPDEST POP JUMP JUMPDEST PUSH2 0x611 DUP2 PUSH2 0x548 JUMP JUMPDEST DUP2 EQ PUSH2 0x61C JUMPI PUSH1 0x0 DUP1 REVERT JUMPDEST POP JUMP JUMPDEST PUSH2 0x628 DUP2 PUSH2 0x552 JUMP JUMPDEST DUP2 EQ PUSH2 0x633 JUMPI PUSH1 0x0 DUP1 REVERT JUMPDEST POP JUMP INVALID LOG2 PUSH5 0x6970667358 0x22 SLT KECCAK256 PUSH9 0x62BC14244264297BD8 SWAP8 0xDD 0xCA 0xE4 0xE3 0xF7 0x1E 0xC2 SWAP5 0x24 0xB1 DUP7 SSTORE PUSH31 0x6E1BA50F63D7072364736F6C63430008070033000000000000000000000000 "
				},
				"gasEstimates": {
					"creation": {
						"codeDepositCost": "328800",
						"executionCost": "infinite",
						"totalCost": "infinite"
					},
					"external": {
						"add(uint8,uint8)": "infinite",
						"getBalance()": "2920",
						"test()": "infinite",
						"test_array()": "520",
						"transfer(address,uint256)": "infinite"
					}
				},
				"methodIdentifiers": {
					"add(uint8,uint8)": "bb4e3f4d",
					"getBalance()": "12065fe0",
					"test()": "f8a8fd6d",
					"test_array()": "4bc92ad2",
					"transfer(address,uint256)": "a9059cbb"
				}
			},
			"storageLayout": {
				"storage": [
					{
						"astId": 55,
						"contract": "contracts/Test.sol:Test",
						"label": "a",
						"offset": 0,
						"slot": "0",
						"type": "t_array(t_uint256)dyn_storage"
					}
				],
				"types": {
					"t_array(t_uint256)dyn_storage": {
						"base": "t_uint256",
						"encoding": "dynamic_array",
						"label": "uint256[]",
						"numberOfBytes": "32"
					},
					"t_uint256": {
						"encoding": "inplace",
						"label": "uint256",
						"numberOfBytes": "32"
					}
				}
			},
			"userdoc": {
				"kind": "user",
				"methods": {},
				"version": 1
			}
		}
	}
}