{
	"contracts/Test.sol": {
		"Test": {
			"abi": [
				{
					"inputs": [
						{
							"internalType": "uint8",
							"name": "a",
							"type": "uint8"
						},
						{
							"internalType": "uint8",
							"name": "b",
							"type": "uint8"
						}
					],
					"name": "add",
					"outputs": [
						{
							"internalType": "uint8",
							"name": "",
							"type": "uint8"
						}
					],
					"stateMutability": "pure",
					"type": "function"
				},
				{
					"inputs": [],
					"name": "getBalance",
					"outputs": [
						{
							"internalType": "uint256",
							"name": "",
							"type": "uint256"
						}
					],
					"stateMutability": "view",
					"type": "function"
				},
				{
					"inputs": [],
					"name": "test",
					"outputs": [
						{
							"internalType": "uint256",
							"name": "",
							"type": "uint256"
						}
					],
					"stateMutability": "pure",
					"type": "function"
				},
				{
					"inputs": [
						{
							"internalType": "address payable",
							"name": "_receive",
							"type": "address"
						},
						{
							"internalType": "uint256",
							"name": "amount",
							"type": "uint256"
						}
					],
					"name": "transfer",
					"outputs": [],
					"stateMutability": "payable",
					"type": "function"
				}
			],
			"devdoc": {
				"kind": "dev",
				"methods": {},
				"version": 1
			},
			"evm": {
				"assembly": "    /* \"contracts/Test.sol\":98:592  contract Test {\r... */\n  mstore(0x40, 0x80)\n  callvalue\n  dup1\n  iszero\n  tag_1\n  jumpi\n  0x00\n  dup1\n  revert\ntag_1:\n  pop\n  dataSize(sub_0)\n  dup1\n  dataOffset(sub_0)\n  0x00\n  codecopy\n  0x00\n  return\nstop\n\nsub_0: assembly {\n        /* \"contracts/Test.sol\":98:592  contract Test {\r... */\n      mstore(0x40, 0x80)\n      jumpi(tag_1, lt(calldatasize, 0x04))\n      shr(0xe0, calldataload(0x00))\n      dup1\n      0x12065fe0\n      eq\n      tag_2\n      jumpi\n      dup1\n      0xa9059cbb\n      eq\n      tag_3\n      jumpi\n      dup1\n      0xbb4e3f4d\n      eq\n      tag_4\n      jumpi\n      dup1\n      0xf8a8fd6d\n      eq\n      tag_5\n      jumpi\n    tag_1:\n      0x00\n      dup1\n      revert\n        /* \"contracts/Test.sol\":216:308  function getBalance() public view returns (uint){\r... */\n    tag_2:\n      callvalue\n      dup1\n      iszero\n      tag_6\n      jumpi\n      0x00\n      dup1\n      revert\n    tag_6:\n      pop\n      tag_7\n      tag_8\n      jump\t// in\n    tag_7:\n      mload(0x40)\n      tag_9\n      swap2\n      swap1\n      tag_10\n      jump\t// in\n    tag_9:\n      mload(0x40)\n      dup1\n      swap2\n      sub\n      swap1\n      return\n        /* \"contracts/Test.sol\":316:481  function transfer(address payable _receive, uint amount) public payable {\r... */\n    tag_3:\n      tag_11\n      0x04\n      dup1\n      calldatasize\n      sub\n      dup2\n      add\n      swap1\n      tag_12\n      swap2\n      swap1\n      tag_13\n      jump\t// in\n    tag_12:\n      tag_14\n      jump\t// in\n    tag_11:\n      stop\n        /* \"contracts/Test.sol\":119:208  function add(uint8 a, uint8 b) public pure returns (uint8){\r... */\n    tag_4:\n      callvalue\n      dup1\n      iszero\n      tag_15\n      jumpi\n      0x00\n      dup1\n      revert\n    tag_15:\n      pop\n      tag_16\n      0x04\n      dup1\n      calldatasize\n      sub\n      dup2\n      add\n      swap1\n      tag_17\n      swap2\n      swap1\n      tag_18\n      jump\t// in\n    tag_17:\n      tag_19\n      jump\t// in\n    tag_16:\n      mload(0x40)\n      tag_20\n      swap2\n      swap1\n      tag_21\n      jump\t// in\n    tag_20:\n      mload(0x40)\n      dup1\n      swap2\n      sub\n      swap1\n      return\n        /* \"contracts/Test.sol\":489:589  function test() public pure returns (uint){\r... */\n    tag_5:\n      callvalue\n      dup1\n      iszero\n      tag_22\n      jumpi\n      0x00\n      dup1\n      revert\n    tag_22:\n      pop\n      tag_23\n      tag_24\n      jump\t// in\n    tag_23:\n      mload(0x40)\n      tag_25\n      swap2\n      swap1\n      tag_10\n      jump\t// in\n    tag_25:\n      mload(0x40)\n      dup1\n      swap2\n      sub\n      swap1\n      return\n        /* \"contracts/Test.sol\":216:308  function getBalance() public view returns (uint){\r... */\n    tag_8:\n        /* \"contracts/Test.sol\":259:263  uint */\n      0x00\n        /* \"contracts/Test.sol\":282:292  msg.sender */\n      caller\n        /* \"contracts/Test.sol\":282:300  msg.sender.balance */\n      0xffffffffffffffffffffffffffffffffffffffff\n      and\n      balance\n        /* \"contracts/Test.sol\":275:300  return msg.sender.balance */\n      swap1\n      pop\n        /* \"contracts/Test.sol\":216:308  function getBalance() public view returns (uint){\r... */\n      swap1\n      jump\t// out\n        /* \"contracts/Test.sol\":316:481  function transfer(address payable _receive, uint amount) public payable {\r... */\n    tag_14:\n        /* \"contracts/Test.sol\":399:430  console.log(msg.sender.balance) */\n      tag_28\n        /* \"contracts/Test.sol\":411:421  msg.sender */\n      caller\n        /* \"contracts/Test.sol\":411:429  msg.sender.balance */\n      0xffffffffffffffffffffffffffffffffffffffff\n      and\n      balance\n        /* \"contracts/Test.sol\":399:410  console.log */\n      tag_29\n        /* \"contracts/Test.sol\":399:430  console.log(msg.sender.balance) */\n      jump\t// in\n    tag_28:\n        /* \"contracts/Test.sol\":448:456  _receive */\n      dup2\n        /* \"contracts/Test.sol\":448:465  _receive.transfer */\n      0xffffffffffffffffffffffffffffffffffffffff\n      and\n        /* \"contracts/Test.sol\":448:473  _receive.transfer(amount) */\n      0x08fc\n        /* \"contracts/Test.sol\":466:472  amount */\n      dup3\n        /* \"contracts/Test.sol\":448:473  _receive.transfer(amount) */\n      swap1\n      dup2\n      iszero\n      mul\n      swap1\n      mload(0x40)\n      0x00\n      mload(0x40)\n      dup1\n      dup4\n      sub\n      dup2\n      dup6\n      dup9\n      dup9\n      call\n      swap4\n      pop\n      pop\n      pop\n      pop\n      iszero\n      dup1\n      iszero\n      tag_31\n      jumpi\n      returndatasize\n      0x00\n      dup1\n      returndatacopy\n      revert(0x00, returndatasize)\n    tag_31:\n      pop\n        /* \"contracts/Test.sol\":316:481  function transfer(address payable _receive, uint amount) public payable {\r... */\n      pop\n      pop\n      jump\t// out\n        /* \"contracts/Test.sol\":119:208  function add(uint8 a, uint8 b) public pure returns (uint8){\r... */\n    tag_19:\n        /* \"contracts/Test.sol\":171:176  uint8 */\n      0x00\n        /* \"contracts/Test.sol\":199:200  b */\n      dup2\n        /* \"contracts/Test.sol\":195:196  a */\n      dup4\n        /* \"contracts/Test.sol\":195:200  a + b */\n      tag_33\n      swap2\n      swap1\n      tag_34\n      jump\t// in\n    tag_33:\n        /* \"contracts/Test.sol\":188:200  return a + b */\n      swap1\n      pop\n        /* \"contracts/Test.sol\":119:208  function add(uint8 a, uint8 b) public pure returns (uint8){\r... */\n      swap3\n      swap2\n      pop\n      pop\n      jump\t// out\n        /* \"contracts/Test.sol\":489:589  function test() public pure returns (uint){\r... */\n    tag_24:\n        /* \"contracts/Test.sol\":526:530  uint */\n      0x00\n        /* \"contracts/Test.sol\":542:548  uint a */\n      dup1\n        /* \"contracts/Test.sol\":551:558  123_456 */\n      0x01e240\n        /* \"contracts/Test.sol\":542:558  uint a = 123_456 */\n      swap1\n      pop\n        /* \"contracts/Test.sol\":580:581  1 */\n      0x01\n        /* \"contracts/Test.sol\":576:577  a */\n      dup2\n        /* \"contracts/Test.sol\":576:581  a + 1 */\n      tag_36\n      swap2\n      swap1\n      tag_37\n      jump\t// in\n    tag_36:\n        /* \"contracts/Test.sol\":569:581  return a + 1 */\n      swap2\n      pop\n      pop\n        /* \"contracts/Test.sol\":489:589  function test() public pure returns (uint){\r... */\n      swap1\n      jump\t// out\n        /* \"hardhat/console.sol\":4950:5051  function log(uint p0) internal view {... */\n    tag_29:\n        /* \"hardhat/console.sol\":4990:5047  _sendLogPayload(abi.encodeWithSignature(\"log(uint)\", p0)) */\n      tag_39\n        /* \"hardhat/console.sol\":5043:5045  p0 */\n      dup2\n        /* \"hardhat/console.sol\":5006:5046  abi.encodeWithSignature(\"log(uint)\", p0) */\n      add(0x24, mload(0x40))\n      tag_40\n      swap2\n      swap1\n      tag_10\n      jump\t// in\n    tag_40:\n      mload(0x40)\n      0x20\n      dup2\n      dup4\n      sub\n      sub\n      dup2\n      mstore\n      swap1\n      0x40\n      mstore\n      and(not(0xffffffffffffffffffffffffffffffffffffffffffffffffffffffff), 0xf5b1bba900000000000000000000000000000000000000000000000000000000)\n      0x20\n      dup3\n      add\n      dup1\n      mload\n      0xffffffffffffffffffffffffffffffffffffffffffffffffffffffff\n      dup4\n      dup2\n      dup4\n      and\n      or\n      dup4\n      mstore\n      pop\n      pop\n      pop\n      pop\n        /* \"hardhat/console.sol\":4990:5005  _sendLogPayload */\n      tag_41\n        /* \"hardhat/console.sol\":4990:5047  _sendLogPayload(abi.encodeWithSignature(\"log(uint)\", p0)) */\n      jump\t// in\n    tag_39:\n        /* \"hardhat/console.sol\":4950:5051  function log(uint p0) internal view {... */\n      pop\n      jump\t// out\n        /* \"hardhat/console.sol\":176:464  function _sendLogPayload(bytes memory payload) private view {... */\n    tag_41:\n        /* \"hardhat/console.sol\":240:261  uint256 payloadLength */\n      0x00\n        /* \"hardhat/console.sol\":264:271  payload */\n      dup2\n        /* \"hardhat/console.sol\":264:278  payload.length */\n      mload\n        /* \"hardhat/console.sol\":240:278  uint256 payloadLength = payload.length */\n      swap1\n      pop\n        /* \"hardhat/console.sol\":282:304  address consoleAddress */\n      0x00\n        /* \"hardhat/console.sol\":129:171  0x000000000000000000636F6e736F6c652e6c6f67 */\n      0x636f6e736f6c652e6c6f67\n        /* \"hardhat/console.sol\":282:322  address consoleAddress = CONSOLE_ADDRESS */\n      swap1\n      pop\n        /* \"hardhat/console.sol\":373:375  32 */\n      0x20\n        /* \"hardhat/console.sol\":364:371  payload */\n      dup4\n        /* \"hardhat/console.sol\":360:376  add(payload, 32) */\n      add\n        /* \"hardhat/console.sol\":455:456  0 */\n      0x00\n        /* \"hardhat/console.sol\":452:453  0 */\n      dup1\n        /* \"hardhat/console.sol\":437:450  payloadLength */\n      dup5\n        /* \"hardhat/console.sol\":423:435  payloadStart */\n      dup4\n        /* \"hardhat/console.sol\":407:421  consoleAddress */\n      dup6\n        /* \"hardhat/console.sol\":400:405  gas() */\n      gas\n        /* \"hardhat/console.sol\":389:457  staticcall(gas(), consoleAddress, payloadStart, payloadLength, 0, 0) */\n      staticcall\n        /* \"hardhat/console.sol\":335:461  {... */\n      pop\n      pop\n      pop\n      pop\n        /* \"hardhat/console.sol\":176:464  function _sendLogPayload(bytes memory payload) private view {... */\n      pop\n      jump\t// out\n        /* \"#utility.yul\":7:162   */\n    tag_44:\n        /* \"#utility.yul\":61:66   */\n      0x00\n        /* \"#utility.yul\":99:105   */\n      dup2\n        /* \"#utility.yul\":86:106   */\n      calldataload\n        /* \"#utility.yul\":77:106   */\n      swap1\n      pop\n        /* \"#utility.yul\":115:156   */\n      tag_46\n        /* \"#utility.yul\":150:155   */\n      dup2\n        /* \"#utility.yul\":115:156   */\n      tag_47\n      jump\t// in\n    tag_46:\n        /* \"#utility.yul\":7:162   */\n      swap3\n      swap2\n      pop\n      pop\n      jump\t// out\n        /* \"#utility.yul\":168:307   */\n    tag_48:\n        /* \"#utility.yul\":214:219   */\n      0x00\n        /* \"#utility.yul\":252:258   */\n      dup2\n        /* \"#utility.yul\":239:259   */\n      calldataload\n        /* \"#utility.yul\":230:259   */\n      swap1\n      pop\n        /* \"#utility.yul\":268:301   */\n      tag_50\n        /* \"#utility.yul\":295:300   */\n      dup2\n        /* \"#utility.yul\":268:301   */\n      tag_51\n      jump\t// in\n    tag_50:\n        /* \"#utility.yul\":168:307   */\n      swap3\n      swap2\n      pop\n      pop\n      jump\t// out\n        /* \"#utility.yul\":313:448   */\n    tag_52:\n        /* \"#utility.yul\":357:362   */\n      0x00\n        /* \"#utility.yul\":395:401   */\n      dup2\n        /* \"#utility.yul\":382:402   */\n      calldataload\n        /* \"#utility.yul\":373:402   */\n      swap1\n      pop\n        /* \"#utility.yul\":411:442   */\n      tag_54\n        /* \"#utility.yul\":436:441   */\n      dup2\n        /* \"#utility.yul\":411:442   */\n      tag_55\n      jump\t// in\n    tag_54:\n        /* \"#utility.yul\":313:448   */\n      swap3\n      swap2\n      pop\n      pop\n      jump\t// out\n        /* \"#utility.yul\":454:944   */\n    tag_13:\n        /* \"#utility.yul\":530:536   */\n      0x00\n        /* \"#utility.yul\":538:544   */\n      dup1\n        /* \"#utility.yul\":587:589   */\n      0x40\n        /* \"#utility.yul\":575:584   */\n      dup4\n        /* \"#utility.yul\":566:573   */\n      dup6\n        /* \"#utility.yul\":562:585   */\n      sub\n        /* \"#utility.yul\":558:590   */\n      slt\n        /* \"#utility.yul\":555:674   */\n      iszero\n      tag_57\n      jumpi\n        /* \"#utility.yul\":593:672   */\n      tag_58\n      tag_59\n      jump\t// in\n    tag_58:\n        /* \"#utility.yul\":555:674   */\n    tag_57:\n        /* \"#utility.yul\":713:714   */\n      0x00\n        /* \"#utility.yul\":738:799   */\n      tag_60\n        /* \"#utility.yul\":791:798   */\n      dup6\n        /* \"#utility.yul\":782:788   */\n      dup3\n        /* \"#utility.yul\":771:780   */\n      dup7\n        /* \"#utility.yul\":767:789   */\n      add\n        /* \"#utility.yul\":738:799   */\n      tag_44\n      jump\t// in\n    tag_60:\n        /* \"#utility.yul\":728:799   */\n      swap3\n      pop\n        /* \"#utility.yul\":684:809   */\n      pop\n        /* \"#utility.yul\":848:850   */\n      0x20\n        /* \"#utility.yul\":874:927   */\n      tag_61\n        /* \"#utility.yul\":919:926   */\n      dup6\n        /* \"#utility.yul\":910:916   */\n      dup3\n        /* \"#utility.yul\":899:908   */\n      dup7\n        /* \"#utility.yul\":895:917   */\n      add\n        /* \"#utility.yul\":874:927   */\n      tag_48\n      jump\t// in\n    tag_61:\n        /* \"#utility.yul\":864:927   */\n      swap2\n      pop\n        /* \"#utility.yul\":819:937   */\n      pop\n        /* \"#utility.yul\":454:944   */\n      swap3\n      pop\n      swap3\n      swap1\n      pop\n      jump\t// out\n        /* \"#utility.yul\":950:1416   */\n    tag_18:\n        /* \"#utility.yul\":1014:1020   */\n      0x00\n        /* \"#utility.yul\":1022:1028   */\n      dup1\n        /* \"#utility.yul\":1071:1073   */\n      0x40\n        /* \"#utility.yul\":1059:1068   */\n      dup4\n        /* \"#utility.yul\":1050:1057   */\n      dup6\n        /* \"#utility.yul\":1046:1069   */\n      sub\n        /* \"#utility.yul\":1042:1074   */\n      slt\n        /* \"#utility.yul\":1039:1158   */\n      iszero\n      tag_63\n      jumpi\n        /* \"#utility.yul\":1077:1156   */\n      tag_64\n      tag_59\n      jump\t// in\n    tag_64:\n        /* \"#utility.yul\":1039:1158   */\n    tag_63:\n        /* \"#utility.yul\":1197:1198   */\n      0x00\n        /* \"#utility.yul\":1222:1273   */\n      tag_65\n        /* \"#utility.yul\":1265:1272   */\n      dup6\n        /* \"#utility.yul\":1256:1262   */\n      dup3\n        /* \"#utility.yul\":1245:1254   */\n      dup7\n        /* \"#utility.yul\":1241:1263   */\n      add\n        /* \"#utility.yul\":1222:1273   */\n      tag_52\n      jump\t// in\n    tag_65:\n        /* \"#utility.yul\":1212:1273   */\n      swap3\n      pop\n        /* \"#utility.yul\":1168:1283   */\n      pop\n        /* \"#utility.yul\":1322:1324   */\n      0x20\n        /* \"#utility.yul\":1348:1399   */\n      tag_66\n        /* \"#utility.yul\":1391:1398   */\n      dup6\n        /* \"#utility.yul\":1382:1388   */\n      dup3\n        /* \"#utility.yul\":1371:1380   */\n      dup7\n        /* \"#utility.yul\":1367:1389   */\n      add\n        /* \"#utility.yul\":1348:1399   */\n      tag_52\n      jump\t// in\n    tag_66:\n        /* \"#utility.yul\":1338:1399   */\n      swap2\n      pop\n        /* \"#utility.yul\":1293:1409   */\n      pop\n        /* \"#utility.yul\":950:1416   */\n      swap3\n      pop\n      swap3\n      swap1\n      pop\n      jump\t// out\n        /* \"#utility.yul\":1422:1540   */\n    tag_67:\n        /* \"#utility.yul\":1509:1533   */\n      tag_69\n        /* \"#utility.yul\":1527:1532   */\n      dup2\n        /* \"#utility.yul\":1509:1533   */\n      tag_70\n      jump\t// in\n    tag_69:\n        /* \"#utility.yul\":1504:1507   */\n      dup3\n        /* \"#utility.yul\":1497:1534   */\n      mstore\n        /* \"#utility.yul\":1422:1540   */\n      pop\n      pop\n      jump\t// out\n        /* \"#utility.yul\":1546:1658   */\n    tag_71:\n        /* \"#utility.yul\":1629:1651   */\n      tag_73\n        /* \"#utility.yul\":1645:1650   */\n      dup2\n        /* \"#utility.yul\":1629:1651   */\n      tag_74\n      jump\t// in\n    tag_73:\n        /* \"#utility.yul\":1624:1627   */\n      dup3\n        /* \"#utility.yul\":1617:1652   */\n      mstore\n        /* \"#utility.yul\":1546:1658   */\n      pop\n      pop\n      jump\t// out\n        /* \"#utility.yul\":1664:1886   */\n    tag_10:\n        /* \"#utility.yul\":1757:1761   */\n      0x00\n        /* \"#utility.yul\":1795:1797   */\n      0x20\n        /* \"#utility.yul\":1784:1793   */\n      dup3\n        /* \"#utility.yul\":1780:1798   */\n      add\n        /* \"#utility.yul\":1772:1798   */\n      swap1\n      pop\n        /* \"#utility.yul\":1808:1879   */\n      tag_76\n        /* \"#utility.yul\":1876:1877   */\n      0x00\n        /* \"#utility.yul\":1865:1874   */\n      dup4\n        /* \"#utility.yul\":1861:1878   */\n      add\n        /* \"#utility.yul\":1852:1858   */\n      dup5\n        /* \"#utility.yul\":1808:1879   */\n      tag_67\n      jump\t// in\n    tag_76:\n        /* \"#utility.yul\":1664:1886   */\n      swap3\n      swap2\n      pop\n      pop\n      jump\t// out\n        /* \"#utility.yul\":1892:2106   */\n    tag_21:\n        /* \"#utility.yul\":1981:1985   */\n      0x00\n        /* \"#utility.yul\":2019:2021   */\n      0x20\n        /* \"#utility.yul\":2008:2017   */\n      dup3\n        /* \"#utility.yul\":2004:2022   */\n      add\n        /* \"#utility.yul\":1996:2022   */\n      swap1\n      pop\n        /* \"#utility.yul\":2032:2099   */\n      tag_78\n        /* \"#utility.yul\":2096:2097   */\n      0x00\n        /* \"#utility.yul\":2085:2094   */\n      dup4\n        /* \"#utility.yul\":2081:2098   */\n      add\n        /* \"#utility.yul\":2072:2078   */\n      dup5\n        /* \"#utility.yul\":2032:2099   */\n      tag_71\n      jump\t// in\n    tag_78:\n        /* \"#utility.yul\":1892:2106   */\n      swap3\n      swap2\n      pop\n      pop\n      jump\t// out\n        /* \"#utility.yul\":2193:2498   */\n    tag_37:\n        /* \"#utility.yul\":2233:2236   */\n      0x00\n        /* \"#utility.yul\":2252:2272   */\n      tag_82\n        /* \"#utility.yul\":2270:2271   */\n      dup3\n        /* \"#utility.yul\":2252:2272   */\n      tag_70\n      jump\t// in\n    tag_82:\n        /* \"#utility.yul\":2247:2272   */\n      swap2\n      pop\n        /* \"#utility.yul\":2286:2306   */\n      tag_83\n        /* \"#utility.yul\":2304:2305   */\n      dup4\n        /* \"#utility.yul\":2286:2306   */\n      tag_70\n      jump\t// in\n    tag_83:\n        /* \"#utility.yul\":2281:2306   */\n      swap3\n      pop\n        /* \"#utility.yul\":2440:2441   */\n      dup3\n        /* \"#utility.yul\":2372:2438   */\n      0xffffffffffffffffffffffffffffffffffffffffffffffffffffffffffffffff\n        /* \"#utility.yul\":2368:2442   */\n      sub\n        /* \"#utility.yul\":2365:2366   */\n      dup3\n        /* \"#utility.yul\":2362:2443   */\n      gt\n        /* \"#utility.yul\":2359:2466   */\n      iszero\n      tag_84\n      jumpi\n        /* \"#utility.yul\":2446:2464   */\n      tag_85\n      tag_86\n      jump\t// in\n    tag_85:\n        /* \"#utility.yul\":2359:2466   */\n    tag_84:\n        /* \"#utility.yul\":2490:2491   */\n      dup3\n        /* \"#utility.yul\":2487:2488   */\n      dup3\n        /* \"#utility.yul\":2483:2492   */\n      add\n        /* \"#utility.yul\":2476:2492   */\n      swap1\n      pop\n        /* \"#utility.yul\":2193:2498   */\n      swap3\n      swap2\n      pop\n      pop\n      jump\t// out\n        /* \"#utility.yul\":2504:2741   */\n    tag_34:\n        /* \"#utility.yul\":2542:2545   */\n      0x00\n        /* \"#utility.yul\":2561:2579   */\n      tag_88\n        /* \"#utility.yul\":2577:2578   */\n      dup3\n        /* \"#utility.yul\":2561:2579   */\n      tag_74\n      jump\t// in\n    tag_88:\n        /* \"#utility.yul\":2556:2579   */\n      swap2\n      pop\n        /* \"#utility.yul\":2593:2611   */\n      tag_89\n        /* \"#utility.yul\":2609:2610   */\n      dup4\n        /* \"#utility.yul\":2593:2611   */\n      tag_74\n      jump\t// in\n    tag_89:\n        /* \"#utility.yul\":2588:2611   */\n      swap3\n      pop\n        /* \"#utility.yul\":2683:2684   */\n      dup3\n        /* \"#utility.yul\":2677:2681   */\n      0xff\n        /* \"#utility.yul\":2673:2685   */\n      sub\n        /* \"#utility.yul\":2670:2671   */\n      dup3\n        /* \"#utility.yul\":2667:2686   */\n      gt\n        /* \"#utility.yul\":2664:2709   */\n      iszero\n      tag_90\n      jumpi\n        /* \"#utility.yul\":2689:2707   */\n      tag_91\n      tag_86\n      jump\t// in\n    tag_91:\n        /* \"#utility.yul\":2664:2709   */\n    tag_90:\n        /* \"#utility.yul\":2733:2734   */\n      dup3\n        /* \"#utility.yul\":2730:2731   */\n      dup3\n        /* \"#utility.yul\":2726:2735   */\n      add\n        /* \"#utility.yul\":2719:2735   */\n      swap1\n      pop\n        /* \"#utility.yul\":2504:2741   */\n      swap3\n      swap2\n      pop\n      pop\n      jump\t// out\n        /* \"#utility.yul\":2747:2851   */\n    tag_92:\n        /* \"#utility.yul\":2792:2799   */\n      0x00\n        /* \"#utility.yul\":2821:2845   */\n      tag_94\n        /* \"#utility.yul\":2839:2844   */\n      dup3\n        /* \"#utility.yul\":2821:2845   */\n      tag_95\n      jump\t// in\n    tag_94:\n        /* \"#utility.yul\":2810:2845   */\n      swap1\n      pop\n        /* \"#utility.yul\":2747:2851   */\n      swap2\n      swap1\n      pop\n      jump\t// out\n        /* \"#utility.yul\":2857:2983   */\n    tag_95:\n        /* \"#utility.yul\":2894:2901   */\n      0x00\n        /* \"#utility.yul\":2934:2976   */\n      0xffffffffffffffffffffffffffffffffffffffff\n        /* \"#utility.yul\":2927:2932   */\n      dup3\n        /* \"#utility.yul\":2923:2977   */\n      and\n        /* \"#utility.yul\":2912:2977   */\n      swap1\n      pop\n        /* \"#utility.yul\":2857:2983   */\n      swap2\n      swap1\n      pop\n      jump\t// out\n        /* \"#utility.yul\":2989:3066   */\n    tag_70:\n        /* \"#utility.yul\":3026:3033   */\n      0x00\n        /* \"#utility.yul\":3055:3060   */\n      dup2\n        /* \"#utility.yul\":3044:3060   */\n      swap1\n      pop\n        /* \"#utility.yul\":2989:3066   */\n      swap2\n      swap1\n      pop\n      jump\t// out\n        /* \"#utility.yul\":3072:3158   */\n    tag_74:\n        /* \"#utility.yul\":3107:3114   */\n      0x00\n        /* \"#utility.yul\":3147:3151   */\n      0xff\n        /* \"#utility.yul\":3140:3145   */\n      dup3\n        /* \"#utility.yul\":3136:3152   */\n      and\n        /* \"#utility.yul\":3125:3152   */\n      swap1\n      pop\n        /* \"#utility.yul\":3072:3158   */\n      swap2\n      swap1\n      pop\n      jump\t// out\n        /* \"#utility.yul\":3164:3344   */\n    tag_86:\n        /* \"#utility.yul\":3212:3289   */\n      0x4e487b7100000000000000000000000000000000000000000000000000000000\n        /* \"#utility.yul\":3209:3210   */\n      0x00\n        /* \"#utility.yul\":3202:3290   */\n      mstore\n        /* \"#utility.yul\":3309:3313   */\n      0x11\n        /* \"#utility.yul\":3306:3307   */\n      0x04\n        /* \"#utility.yul\":3299:3314   */\n      mstore\n        /* \"#utility.yul\":3333:3337   */\n      0x24\n        /* \"#utility.yul\":3330:3331   */\n      0x00\n        /* \"#utility.yul\":3323:3338   */\n      revert\n        /* \"#utility.yul\":3473:3590   */\n    tag_59:\n        /* \"#utility.yul\":3582:3583   */\n      0x00\n        /* \"#utility.yul\":3579:3580   */\n      dup1\n        /* \"#utility.yul\":3572:3584   */\n      revert\n        /* \"#utility.yul\":3596:3734   */\n    tag_47:\n        /* \"#utility.yul\":3677:3709   */\n      tag_104\n        /* \"#utility.yul\":3703:3708   */\n      dup2\n        /* \"#utility.yul\":3677:3709   */\n      tag_92\n      jump\t// in\n    tag_104:\n        /* \"#utility.yul\":3670:3675   */\n      dup2\n        /* \"#utility.yul\":3667:3710   */\n      eq\n        /* \"#utility.yul\":3657:3728   */\n      tag_105\n      jumpi\n        /* \"#utility.yul\":3724:3725   */\n      0x00\n        /* \"#utility.yul\":3721:3722   */\n      dup1\n        /* \"#utility.yul\":3714:3726   */\n      revert\n        /* \"#utility.yul\":3657:3728   */\n    tag_105:\n        /* \"#utility.yul\":3596:3734   */\n      pop\n      jump\t// out\n        /* \"#utility.yul\":3740:3862   */\n    tag_51:\n        /* \"#utility.yul\":3813:3837   */\n      tag_107\n        /* \"#utility.yul\":3831:3836   */\n      dup2\n        /* \"#utility.yul\":3813:3837   */\n      tag_70\n      jump\t// in\n    tag_107:\n        /* \"#utility.yul\":3806:3811   */\n      dup2\n        /* \"#utility.yul\":3803:3838   */\n      eq\n        /* \"#utility.yul\":3793:3856   */\n      tag_108\n      jumpi\n        /* \"#utility.yul\":3852:3853   */\n      0x00\n        /* \"#utility.yul\":3849:3850   */\n      dup1\n        /* \"#utility.yul\":3842:3854   */\n      revert\n        /* \"#utility.yul\":3793:3856   */\n    tag_108:\n        /* \"#utility.yul\":3740:3862   */\n      pop\n      jump\t// out\n        /* \"#utility.yul\":3868:3986   */\n    tag_55:\n        /* \"#utility.yul\":3939:3961   */\n      tag_110\n        /* \"#utility.yul\":3955:3960   */\n      dup2\n        /* \"#utility.yul\":3939:3961   */\n      tag_74\n      jump\t// in\n    tag_110:\n        /* \"#utility.yul\":3932:3937   */\n      dup2\n        /* \"#utility.yul\":3929:3962   */\n      eq\n        /* \"#utility.yul\":3919:3980   */\n      tag_111\n      jumpi\n        /* \"#utility.yul\":3976:3977   */\n      0x00\n        /* \"#utility.yul\":3973:3974   */\n      dup1\n        /* \"#utility.yul\":3966:3978   */\n      revert\n        /* \"#utility.yul\":3919:3980   */\n    tag_111:\n        /* \"#utility.yul\":3868:3986   */\n      pop\n      jump\t// out\n\n    auxdata: 0xa26469706673582212203049614b759df3b74241fab3c6ccca9c94c3e3271935c604992788a78aea2a1464736f6c63430008070033\n}\n",
				"bytecode": {
					"linkReferences": {},
					"object": "608060405234801561001057600080fd5b50610509806100206000396000f3fe60806040526004361061003f5760003560e01c806312065fe014610044578063a9059cbb1461006f578063bb4e3f4d1461008b578063f8a8fd6d146100c8575b600080fd5b34801561005057600080fd5b506100596100f3565b604051610066919061034e565b60405180910390f35b610089600480360381019061008491906102b0565b610112565b005b34801561009757600080fd5b506100b260048036038101906100ad91906102f0565b61017d565b6040516100bf9190610369565b60405180910390f35b3480156100d457600080fd5b506100dd610193565b6040516100ea919061034e565b60405180910390f35b60003373ffffffffffffffffffffffffffffffffffffffff1631905090565b6101323373ffffffffffffffffffffffffffffffffffffffff16316101af565b8173ffffffffffffffffffffffffffffffffffffffff166108fc829081150290604051600060405180830381858888f19350505050158015610178573d6000803e3d6000fd5b505050565b6000818361018b91906103da565b905092915050565b6000806201e24090506001816101a99190610384565b91505090565b610245816040516024016101c3919061034e565b6040516020818303038152906040527ff5b1bba9000000000000000000000000000000000000000000000000000000007bffffffffffffffffffffffffffffffffffffffffffffffffffffffff19166020820180517bffffffffffffffffffffffffffffffffffffffffffffffffffffffff8381831617835250505050610248565b50565b60008151905060006a636f6e736f6c652e6c6f679050602083016000808483855afa5050505050565b6000813590506102808161048e565b92915050565b600081359050610295816104a5565b92915050565b6000813590506102aa816104bc565b92915050565b600080604083850312156102c7576102c6610489565b5b60006102d585828601610271565b92505060206102e685828601610286565b9150509250929050565b6000806040838503121561030757610306610489565b5b60006103158582860161029b565b92505060206103268582860161029b565b9150509250929050565b61033981610443565b82525050565b6103488161044d565b82525050565b60006020820190506103636000830184610330565b92915050565b600060208201905061037e600083018461033f565b92915050565b600061038f82610443565b915061039a83610443565b9250827fffffffffffffffffffffffffffffffffffffffffffffffffffffffffffffffff038211156103cf576103ce61045a565b5b828201905092915050565b60006103e58261044d565b91506103f08361044d565b92508260ff038211156104065761040561045a565b5b828201905092915050565b600061041c82610423565b9050919050565b600073ffffffffffffffffffffffffffffffffffffffff82169050919050565b6000819050919050565b600060ff82169050919050565b7f4e487b7100000000000000000000000000000000000000000000000000000000600052601160045260246000fd5b600080fd5b61049781610411565b81146104a257600080fd5b50565b6104ae81610443565b81146104b957600080fd5b50565b6104c58161044d565b81146104d057600080fd5b5056fea26469706673582212203049614b759df3b74241fab3c6ccca9c94c3e3271935c604992788a78aea2a1464736f6c63430008070033",
					"opcodes": "PUSH1 0x80 PUSH1 0x40 MSTORE CALLVALUE DUP1 ISZERO PUSH2 0x10 JUMPI PUSH1 0x0 DUP1 REVERT JUMPDEST POP PUSH2 0x509 DUP1 PUSH2 0x20 PUSH1 0x0 CODECOPY PUSH1 0x0 RETURN INVALID PUSH1 0x80 PUSH1 0x40 MSTORE PUSH1 0x4 CALLDATASIZE LT PUSH2 0x3F JUMPI PUSH1 0x0 CALLDATALOAD PUSH1 0xE0 SHR DUP1 PUSH4 0x12065FE0 EQ PUSH2 0x44 JUMPI DUP1 PUSH4 0xA9059CBB EQ PUSH2 0x6F JUMPI DUP1 PUSH4 0xBB4E3F4D EQ PUSH2 0x8B JUMPI DUP1 PUSH4 0xF8A8FD6D EQ PUSH2 0xC8 JUMPI JUMPDEST PUSH1 0x0 DUP1 REVERT JUMPDEST CALLVALUE DUP1 ISZERO PUSH2 0x50 JUMPI PUSH1 0x0 DUP1 REVERT JUMPDEST POP PUSH2 0x59 PUSH2 0xF3 JUMP JUMPDEST PUSH1 0x40 MLOAD PUSH2 0x66 SWAP2 SWAP1 PUSH2 0x34E JUMP JUMPDEST PUSH1 0x40 MLOAD DUP1 SWAP2 SUB SWAP1 RETURN JUMPDEST PUSH2 0x89 PUSH1 0x4 DUP1 CALLDATASIZE SUB DUP2 ADD SWAP1 PUSH2 0x84 SWAP2 SWAP1 PUSH2 0x2B0 JUMP JUMPDEST PUSH2 0x112 JUMP JUMPDEST STOP JUMPDEST CALLVALUE DUP1 ISZERO PUSH2 0x97 JUMPI PUSH1 0x0 DUP1 REVERT JUMPDEST POP PUSH2 0xB2 PUSH1 0x4 DUP1 CALLDATASIZE SUB DUP2 ADD SWAP1 PUSH2 0xAD SWAP2 SWAP1 PUSH2 0x2F0 JUMP JUMPDEST PUSH2 0x17D JUMP JUMPDEST PUSH1 0x40 MLOAD PUSH2 0xBF SWAP2 SWAP1 PUSH2 0x369 JUMP JUMPDEST PUSH1 0x40 MLOAD DUP1 SWAP2 SUB SWAP1 RETURN JUMPDEST CALLVALUE DUP1 ISZERO PUSH2 0xD4 JUMPI PUSH1 0x0 DUP1 REVERT JUMPDEST POP PUSH2 0xDD PUSH2 0x193 JUMP JUMPDEST PUSH1 0x40 MLOAD PUSH2 0xEA SWAP2 SWAP1 PUSH2 0x34E JUMP JUMPDEST PUSH1 0x40 MLOAD DUP1 SWAP2 SUB SWAP1 RETURN JUMPDEST PUSH1 0x0 CALLER PUSH20 0xFFFFFFFFFFFFFFFFFFFFFFFFFFFFFFFFFFFFFFFF AND BALANCE SWAP1 POP SWAP1 JUMP JUMPDEST PUSH2 0x132 CALLER PUSH20 0xFFFFFFFFFFFFFFFFFFFFFFFFFFFFFFFFFFFFFFFF AND BALANCE PUSH2 0x1AF JUMP JUMPDEST DUP2 PUSH20 0xFFFFFFFFFFFFFFFFFFFFFFFFFFFFFFFFFFFFFFFF AND PUSH2 0x8FC DUP3 SWAP1 DUP2 ISZERO MUL SWAP1 PUSH1 0x40 MLOAD PUSH1 0x0 PUSH1 0x40 MLOAD DUP1 DUP4 SUB DUP2 DUP6 DUP9 DUP9 CALL SWAP4 POP POP POP POP ISZERO DUP1 ISZERO PUSH2 0x178 JUMPI RETURNDATASIZE PUSH1 0x0 DUP1 RETURNDATACOPY RETURNDATASIZE PUSH1 0x0 REVERT JUMPDEST POP POP POP JUMP JUMPDEST PUSH1 0x0 DUP2 DUP4 PUSH2 0x18B SWAP2 SWAP1 PUSH2 0x3DA JUMP JUMPDEST SWAP1 POP SWAP3 SWAP2 POP POP JUMP JUMPDEST PUSH1 0x0 DUP1 PUSH3 0x1E240 SWAP1 POP PUSH1 0x1 DUP2 PUSH2 0x1A9 SWAP2 SWAP1 PUSH2 0x384 JUMP JUMPDEST SWAP2 POP POP SWAP1 JUMP JUMPDEST PUSH2 0x245 DUP2 PUSH1 0x40 MLOAD PUSH1 0x24 ADD PUSH2 0x1C3 SWAP2 SWAP1 PUSH2 0x34E JUMP JUMPDEST PUSH1 0x40 MLOAD PUSH1 0x20 DUP2 DUP4 SUB SUB DUP2 MSTORE SWAP1 PUSH1 0x40 MSTORE PUSH32 0xF5B1BBA900000000000000000000000000000000000000000000000000000000 PUSH28 0xFFFFFFFFFFFFFFFFFFFFFFFFFFFFFFFFFFFFFFFFFFFFFFFFFFFFFFFF NOT AND PUSH1 0x20 DUP3 ADD DUP1 MLOAD PUSH28 0xFFFFFFFFFFFFFFFFFFFFFFFFFFFFFFFFFFFFFFFFFFFFFFFFFFFFFFFF DUP4 DUP2 DUP4 AND OR DUP4 MSTORE POP POP POP POP PUSH2 0x248 JUMP JUMPDEST POP JUMP JUMPDEST PUSH1 0x0 DUP2 MLOAD SWAP1 POP PUSH1 0x0 PUSH11 0x636F6E736F6C652E6C6F67 SWAP1 POP PUSH1 0x20 DUP4 ADD PUSH1 0x0 DUP1 DUP5 DUP4 DUP6 GAS STATICCALL POP POP POP POP POP JUMP JUMPDEST PUSH1 0x0 DUP2 CALLDATALOAD SWAP1 POP PUSH2 0x280 DUP2 PUSH2 0x48E JUMP JUMPDEST SWAP3 SWAP2 POP POP JUMP JUMPDEST PUSH1 0x0 DUP2 CALLDATALOAD SWAP1 POP PUSH2 0x295 DUP2 PUSH2 0x4A5 JUMP JUMPDEST SWAP3 SWAP2 POP POP JUMP JUMPDEST PUSH1 0x0 DUP2 CALLDATALOAD SWAP1 POP PUSH2 0x2AA DUP2 PUSH2 0x4BC JUMP JUMPDEST SWAP3 SWAP2 POP POP JUMP JUMPDEST PUSH1 0x0 DUP1 PUSH1 0x40 DUP4 DUP6 SUB SLT ISZERO PUSH2 0x2C7 JUMPI PUSH2 0x2C6 PUSH2 0x489 JUMP JUMPDEST JUMPDEST PUSH1 0x0 PUSH2 0x2D5 DUP6 DUP3 DUP7 ADD PUSH2 0x271 JUMP JUMPDEST SWAP3 POP POP PUSH1 0x20 PUSH2 0x2E6 DUP6 DUP3 DUP7 ADD PUSH2 0x286 JUMP JUMPDEST SWAP2 POP POP SWAP3 POP SWAP3 SWAP1 POP JUMP JUMPDEST PUSH1 0x0 DUP1 PUSH1 0x40 DUP4 DUP6 SUB SLT ISZERO PUSH2 0x307 JUMPI PUSH2 0x306 PUSH2 0x489 JUMP JUMPDEST JUMPDEST PUSH1 0x0 PUSH2 0x315 DUP6 DUP3 DUP7 ADD PUSH2 0x29B JUMP JUMPDEST SWAP3 POP POP PUSH1 0x20 PUSH2 0x326 DUP6 DUP3 DUP7 ADD PUSH2 0x29B JUMP JUMPDEST SWAP2 POP POP SWAP3 POP SWAP3 SWAP1 POP JUMP JUMPDEST PUSH2 0x339 DUP2 PUSH2 0x443 JUMP JUMPDEST DUP3 MSTORE POP POP JUMP JUMPDEST PUSH2 0x348 DUP2 PUSH2 0x44D JUMP JUMPDEST DUP3 MSTORE POP POP JUMP JUMPDEST PUSH1 0x0 PUSH1 0x20 DUP3 ADD SWAP1 POP PUSH2 0x363 PUSH1 0x0 DUP4 ADD DUP5 PUSH2 0x330 JUMP JUMPDEST SWAP3 SWAP2 POP POP JUMP JUMPDEST PUSH1 0x0 PUSH1 0x20 DUP3 ADD SWAP1 POP PUSH2 0x37E PUSH1 0x0 DUP4 ADD DUP5 PUSH2 0x33F JUMP JUMPDEST SWAP3 SWAP2 POP POP JUMP JUMPDEST PUSH1 0x0 PUSH2 0x38F DUP3 PUSH2 0x443 JUMP JUMPDEST SWAP2 POP PUSH2 0x39A DUP4 PUSH2 0x443 JUMP JUMPDEST SWAP3 POP DUP3 PUSH32 0xFFFFFFFFFFFFFFFFFFFFFFFFFFFFFFFFFFFFFFFFFFFFFFFFFFFFFFFFFFFFFFFF SUB DUP3 GT ISZERO PUSH2 0x3CF JUMPI PUSH2 0x3CE PUSH2 0x45A JUMP JUMPDEST JUMPDEST DUP3 DUP3 ADD SWAP1 POP SWAP3 SWAP2 POP POP JUMP JUMPDEST PUSH1 0x0 PUSH2 0x3E5 DUP3 PUSH2 0x44D JUMP JUMPDEST SWAP2 POP PUSH2 0x3F0 DUP4 PUSH2 0x44D JUMP JUMPDEST SWAP3 POP DUP3 PUSH1 0xFF SUB DUP3 GT ISZERO PUSH2 0x406 JUMPI PUSH2 0x405 PUSH2 0x45A JUMP JUMPDEST JUMPDEST DUP3 DUP3 ADD SWAP1 POP SWAP3 SWAP2 POP POP JUMP JUMPDEST PUSH1 0x0 PUSH2 0x41C DUP3 PUSH2 0x423 JUMP JUMPDEST SWAP1 POP SWAP2 SWAP1 POP JUMP JUMPDEST PUSH1 0x0 PUSH20 0xFFFFFFFFFFFFFFFFFFFFFFFFFFFFFFFFFFFFFFFF DUP3 AND SWAP1 POP SWAP2 SWAP1 POP JUMP JUMPDEST PUSH1 0x0 DUP2 SWAP1 POP SWAP2 SWAP1 POP JUMP JUMPDEST PUSH1 0x0 PUSH1 0xFF DUP3 AND SWAP1 POP SWAP2 SWAP1 POP JUMP JUMPDEST PUSH32 0x4E487B7100000000000000000000000000000000000000000000000000000000 PUSH1 0x0 MSTORE PUSH1 0x11 PUSH1 0x4 MSTORE PUSH1 0x24 PUSH1 0x0 REVERT JUMPDEST PUSH1 0x0 DUP1 REVERT JUMPDEST PUSH2 0x497 DUP2 PUSH2 0x411 JUMP JUMPDEST DUP2 EQ PUSH2 0x4A2 JUMPI PUSH1 0x0 DUP1 REVERT JUMPDEST POP JUMP JUMPDEST PUSH2 0x4AE DUP2 PUSH2 0x443 JUMP JUMPDEST DUP2 EQ PUSH2 0x4B9 JUMPI PUSH1 0x0 DUP1 REVERT JUMPDEST POP JUMP JUMPDEST PUSH2 0x4C5 DUP2 PUSH2 0x44D JUMP JUMPDEST DUP2 EQ PUSH2 0x4D0 JUMPI PUSH1 0x0 DUP1 REVERT JUMPDEST POP JUMP INVALID LOG2 PUSH5 0x6970667358 0x22 SLT KECCAK256 ADDRESS 0x49 PUSH2 0x4B75 SWAP14 RETURN 0xB7 TIMESTAMP COINBASE STATICCALL 0xB3 0xC6 0xCC 0xCA SWAP13 SWAP5 0xC3 0xE3 0x27 NOT CALLDATALOAD 0xC6 DIV SWAP10 0x27 DUP9 0xA7 DUP11 0xEA 0x2A EQ PUSH5 0x736F6C6343 STOP ADDMOD SMOD STOP CALLER "
				},
				"gasEstimates": {
					"creation": {
						"codeDepositCost": "257800",
						"executionCost": "300",
						"totalCost": "258100"
					},
					"external": {
						"add(uint8,uint8)": "infinite",
						"getBalance()": "2920",
						"test()": "infinite",
						"transfer(address,uint256)": "infinite"
					}
				},
				"methodIdentifiers": {
					"add(uint8,uint8)": "bb4e3f4d",
					"getBalance()": "12065fe0",
					"test()": "f8a8fd6d",
					"transfer(address,uint256)": "a9059cbb"
				}
			},
			"storageLayout": {
				"storage": [],
				"types": null
			},
			"userdoc": {
				"kind": "user",
				"methods": {},
				"version": 1
			}
		}
	}
}