{
	"contracts/Test.sol": {
		"Test": {
			"abi": [
				{
					"inputs": [
						{
							"internalType": "uint8",
							"name": "a",
							"type": "uint8"
						},
						{
							"internalType": "uint8",
							"name": "b",
							"type": "uint8"
						}
					],
					"name": "add",
					"outputs": [
						{
							"internalType": "uint8",
							"name": "",
							"type": "uint8"
						}
					],
					"stateMutability": "pure",
					"type": "function"
				}
			],
			"devdoc": {
				"kind": "dev",
				"methods": {},
				"version": 1
			},
			"evm": {
				"assembly": "    /* \"contracts/Test.sol\":65:178  contract Test {\r... */\n  mstore(0x40, 0x80)\n  callvalue\n  dup1\n  iszero\n  tag_1\n  jumpi\n  0x00\n  dup1\n  revert\ntag_1:\n  pop\n  dataSize(sub_0)\n  dup1\n  dataOffset(sub_0)\n  0x00\n  codecopy\n  0x00\n  return\nstop\n\nsub_0: assembly {\n        /* \"contracts/Test.sol\":65:178  contract Test {\r... */\n      mstore(0x40, 0x80)\n      callvalue\n      dup1\n      iszero\n      tag_1\n      jumpi\n      0x00\n      dup1\n      revert\n    tag_1:\n      pop\n      jumpi(tag_2, lt(calldatasize, 0x04))\n      shr(0xe0, calldataload(0x00))\n      dup1\n      0xbb4e3f4d\n      eq\n      tag_3\n      jumpi\n    tag_2:\n      0x00\n      dup1\n      revert\n        /* \"contracts/Test.sol\":86:175  function add(uint8 a, uint8 b) public pure returns (uint8){\r... */\n    tag_3:\n      tag_4\n      0x04\n      dup1\n      calldatasize\n      sub\n      dup2\n      add\n      swap1\n      tag_5\n      swap2\n      swap1\n      tag_6\n      jump\t// in\n    tag_5:\n      tag_7\n      jump\t// in\n    tag_4:\n      mload(0x40)\n      tag_8\n      swap2\n      swap1\n      tag_9\n      jump\t// in\n    tag_8:\n      mload(0x40)\n      dup1\n      swap2\n      sub\n      swap1\n      return\n    tag_7:\n        /* \"contracts/Test.sol\":138:143  uint8 */\n      0x00\n        /* \"contracts/Test.sol\":166:167  b */\n      dup2\n        /* \"contracts/Test.sol\":162:163  a */\n      dup4\n        /* \"contracts/Test.sol\":162:167  a + b */\n      tag_11\n      swap2\n      swap1\n      tag_12\n      jump\t// in\n    tag_11:\n        /* \"contracts/Test.sol\":155:167  return a + b */\n      swap1\n      pop\n        /* \"contracts/Test.sol\":86:175  function add(uint8 a, uint8 b) public pure returns (uint8){\r... */\n      swap3\n      swap2\n      pop\n      pop\n      jump\t// out\n        /* \"#utility.yul\":7:142   */\n    tag_14:\n        /* \"#utility.yul\":51:56   */\n      0x00\n        /* \"#utility.yul\":89:95   */\n      dup2\n        /* \"#utility.yul\":76:96   */\n      calldataload\n        /* \"#utility.yul\":67:96   */\n      swap1\n      pop\n        /* \"#utility.yul\":105:136   */\n      tag_16\n        /* \"#utility.yul\":130:135   */\n      dup2\n        /* \"#utility.yul\":105:136   */\n      tag_17\n      jump\t// in\n    tag_16:\n        /* \"#utility.yul\":7:142   */\n      swap3\n      swap2\n      pop\n      pop\n      jump\t// out\n        /* \"#utility.yul\":148:614   */\n    tag_6:\n        /* \"#utility.yul\":212:218   */\n      0x00\n        /* \"#utility.yul\":220:226   */\n      dup1\n        /* \"#utility.yul\":269:271   */\n      0x40\n        /* \"#utility.yul\":257:266   */\n      dup4\n        /* \"#utility.yul\":248:255   */\n      dup6\n        /* \"#utility.yul\":244:267   */\n      sub\n        /* \"#utility.yul\":240:272   */\n      slt\n        /* \"#utility.yul\":237:356   */\n      iszero\n      tag_19\n      jumpi\n        /* \"#utility.yul\":275:354   */\n      tag_20\n      tag_21\n      jump\t// in\n    tag_20:\n        /* \"#utility.yul\":237:356   */\n    tag_19:\n        /* \"#utility.yul\":395:396   */\n      0x00\n        /* \"#utility.yul\":420:471   */\n      tag_22\n        /* \"#utility.yul\":463:470   */\n      dup6\n        /* \"#utility.yul\":454:460   */\n      dup3\n        /* \"#utility.yul\":443:452   */\n      dup7\n        /* \"#utility.yul\":439:461   */\n      add\n        /* \"#utility.yul\":420:471   */\n      tag_14\n      jump\t// in\n    tag_22:\n        /* \"#utility.yul\":410:471   */\n      swap3\n      pop\n        /* \"#utility.yul\":366:481   */\n      pop\n        /* \"#utility.yul\":520:522   */\n      0x20\n        /* \"#utility.yul\":546:597   */\n      tag_23\n        /* \"#utility.yul\":589:596   */\n      dup6\n        /* \"#utility.yul\":580:586   */\n      dup3\n        /* \"#utility.yul\":569:578   */\n      dup7\n        /* \"#utility.yul\":565:587   */\n      add\n        /* \"#utility.yul\":546:597   */\n      tag_14\n      jump\t// in\n    tag_23:\n        /* \"#utility.yul\":536:597   */\n      swap2\n      pop\n        /* \"#utility.yul\":491:607   */\n      pop\n        /* \"#utility.yul\":148:614   */\n      swap3\n      pop\n      swap3\n      swap1\n      pop\n      jump\t// out\n        /* \"#utility.yul\":620:732   */\n    tag_24:\n        /* \"#utility.yul\":703:725   */\n      tag_26\n        /* \"#utility.yul\":719:724   */\n      dup2\n        /* \"#utility.yul\":703:725   */\n      tag_27\n      jump\t// in\n    tag_26:\n        /* \"#utility.yul\":698:701   */\n      dup3\n        /* \"#utility.yul\":691:726   */\n      mstore\n        /* \"#utility.yul\":620:732   */\n      pop\n      pop\n      jump\t// out\n        /* \"#utility.yul\":738:952   */\n    tag_9:\n        /* \"#utility.yul\":827:831   */\n      0x00\n        /* \"#utility.yul\":865:867   */\n      0x20\n        /* \"#utility.yul\":854:863   */\n      dup3\n        /* \"#utility.yul\":850:868   */\n      add\n        /* \"#utility.yul\":842:868   */\n      swap1\n      pop\n        /* \"#utility.yul\":878:945   */\n      tag_29\n        /* \"#utility.yul\":942:943   */\n      0x00\n        /* \"#utility.yul\":931:940   */\n      dup4\n        /* \"#utility.yul\":927:944   */\n      add\n        /* \"#utility.yul\":918:924   */\n      dup5\n        /* \"#utility.yul\":878:945   */\n      tag_24\n      jump\t// in\n    tag_29:\n        /* \"#utility.yul\":738:952   */\n      swap3\n      swap2\n      pop\n      pop\n      jump\t// out\n        /* \"#utility.yul\":1039:1276   */\n    tag_12:\n        /* \"#utility.yul\":1077:1080   */\n      0x00\n        /* \"#utility.yul\":1096:1114   */\n      tag_33\n        /* \"#utility.yul\":1112:1113   */\n      dup3\n        /* \"#utility.yul\":1096:1114   */\n      tag_27\n      jump\t// in\n    tag_33:\n        /* \"#utility.yul\":1091:1114   */\n      swap2\n      pop\n        /* \"#utility.yul\":1128:1146   */\n      tag_34\n        /* \"#utility.yul\":1144:1145   */\n      dup4\n        /* \"#utility.yul\":1128:1146   */\n      tag_27\n      jump\t// in\n    tag_34:\n        /* \"#utility.yul\":1123:1146   */\n      swap3\n      pop\n        /* \"#utility.yul\":1218:1219   */\n      dup3\n        /* \"#utility.yul\":1212:1216   */\n      0xff\n        /* \"#utility.yul\":1208:1220   */\n      sub\n        /* \"#utility.yul\":1205:1206   */\n      dup3\n        /* \"#utility.yul\":1202:1221   */\n      gt\n        /* \"#utility.yul\":1199:1244   */\n      iszero\n      tag_35\n      jumpi\n        /* \"#utility.yul\":1224:1242   */\n      tag_36\n      tag_37\n      jump\t// in\n    tag_36:\n        /* \"#utility.yul\":1199:1244   */\n    tag_35:\n        /* \"#utility.yul\":1268:1269   */\n      dup3\n        /* \"#utility.yul\":1265:1266   */\n      dup3\n        /* \"#utility.yul\":1261:1270   */\n      add\n        /* \"#utility.yul\":1254:1270   */\n      swap1\n      pop\n        /* \"#utility.yul\":1039:1276   */\n      swap3\n      swap2\n      pop\n      pop\n      jump\t// out\n        /* \"#utility.yul\":1282:1368   */\n    tag_27:\n        /* \"#utility.yul\":1317:1324   */\n      0x00\n        /* \"#utility.yul\":1357:1361   */\n      0xff\n        /* \"#utility.yul\":1350:1355   */\n      dup3\n        /* \"#utility.yul\":1346:1362   */\n      and\n        /* \"#utility.yul\":1335:1362   */\n      swap1\n      pop\n        /* \"#utility.yul\":1282:1368   */\n      swap2\n      swap1\n      pop\n      jump\t// out\n        /* \"#utility.yul\":1374:1554   */\n    tag_37:\n        /* \"#utility.yul\":1422:1499   */\n      0x4e487b7100000000000000000000000000000000000000000000000000000000\n        /* \"#utility.yul\":1419:1420   */\n      0x00\n        /* \"#utility.yul\":1412:1500   */\n      mstore\n        /* \"#utility.yul\":1519:1523   */\n      0x11\n        /* \"#utility.yul\":1516:1517   */\n      0x04\n        /* \"#utility.yul\":1509:1524   */\n      mstore\n        /* \"#utility.yul\":1543:1547   */\n      0x24\n        /* \"#utility.yul\":1540:1541   */\n      0x00\n        /* \"#utility.yul\":1533:1548   */\n      revert\n        /* \"#utility.yul\":1683:1800   */\n    tag_21:\n        /* \"#utility.yul\":1792:1793   */\n      0x00\n        /* \"#utility.yul\":1789:1790   */\n      dup1\n        /* \"#utility.yul\":1782:1794   */\n      revert\n        /* \"#utility.yul\":1806:1924   */\n    tag_17:\n        /* \"#utility.yul\":1877:1899   */\n      tag_44\n        /* \"#utility.yul\":1893:1898   */\n      dup2\n        /* \"#utility.yul\":1877:1899   */\n      tag_27\n      jump\t// in\n    tag_44:\n        /* \"#utility.yul\":1870:1875   */\n      dup2\n        /* \"#utility.yul\":1867:1900   */\n      eq\n        /* \"#utility.yul\":1857:1918   */\n      tag_45\n      jumpi\n        /* \"#utility.yul\":1914:1915   */\n      0x00\n        /* \"#utility.yul\":1911:1912   */\n      dup1\n        /* \"#utility.yul\":1904:1916   */\n      revert\n        /* \"#utility.yul\":1857:1918   */\n    tag_45:\n        /* \"#utility.yul\":1806:1924   */\n      pop\n      jump\t// out\n\n    auxdata: 0xa2646970667358221220b727df490fe9d87f4d3e6c6d8b2a85359e4001b1f5e332a83dfc381ea2f4994364736f6c63430008070033\n}\n",
				"bytecode": {
					"linkReferences": {},
					"object": "608060405234801561001057600080fd5b506101ba806100206000396000f3fe608060405234801561001057600080fd5b506004361061002b5760003560e01c8063bb4e3f4d14610030575b600080fd5b61004a6004803603810190610045919061008b565b610060565b60405161005791906100da565b60405180910390f35b6000818361006e91906100f5565b905092915050565b6000813590506100858161016d565b92915050565b600080604083850312156100a2576100a1610168565b5b60006100b085828601610076565b92505060206100c185828601610076565b9150509250929050565b6100d48161012c565b82525050565b60006020820190506100ef60008301846100cb565b92915050565b60006101008261012c565b915061010b8361012c565b92508260ff0382111561012157610120610139565b5b828201905092915050565b600060ff82169050919050565b7f4e487b7100000000000000000000000000000000000000000000000000000000600052601160045260246000fd5b600080fd5b6101768161012c565b811461018157600080fd5b5056fea2646970667358221220b727df490fe9d87f4d3e6c6d8b2a85359e4001b1f5e332a83dfc381ea2f4994364736f6c63430008070033",
					"opcodes": "PUSH1 0x80 PUSH1 0x40 MSTORE CALLVALUE DUP1 ISZERO PUSH2 0x10 JUMPI PUSH1 0x0 DUP1 REVERT JUMPDEST POP PUSH2 0x1BA DUP1 PUSH2 0x20 PUSH1 0x0 CODECOPY PUSH1 0x0 RETURN INVALID PUSH1 0x80 PUSH1 0x40 MSTORE CALLVALUE DUP1 ISZERO PUSH2 0x10 JUMPI PUSH1 0x0 DUP1 REVERT JUMPDEST POP PUSH1 0x4 CALLDATASIZE LT PUSH2 0x2B JUMPI PUSH1 0x0 CALLDATALOAD PUSH1 0xE0 SHR DUP1 PUSH4 0xBB4E3F4D EQ PUSH2 0x30 JUMPI JUMPDEST PUSH1 0x0 DUP1 REVERT JUMPDEST PUSH2 0x4A PUSH1 0x4 DUP1 CALLDATASIZE SUB DUP2 ADD SWAP1 PUSH2 0x45 SWAP2 SWAP1 PUSH2 0x8B JUMP JUMPDEST PUSH2 0x60 JUMP JUMPDEST PUSH1 0x40 MLOAD PUSH2 0x57 SWAP2 SWAP1 PUSH2 0xDA JUMP JUMPDEST PUSH1 0x40 MLOAD DUP1 SWAP2 SUB SWAP1 RETURN JUMPDEST PUSH1 0x0 DUP2 DUP4 PUSH2 0x6E SWAP2 SWAP1 PUSH2 0xF5 JUMP JUMPDEST SWAP1 POP SWAP3 SWAP2 POP POP JUMP JUMPDEST PUSH1 0x0 DUP2 CALLDATALOAD SWAP1 POP PUSH2 0x85 DUP2 PUSH2 0x16D JUMP JUMPDEST SWAP3 SWAP2 POP POP JUMP JUMPDEST PUSH1 0x0 DUP1 PUSH1 0x40 DUP4 DUP6 SUB SLT ISZERO PUSH2 0xA2 JUMPI PUSH2 0xA1 PUSH2 0x168 JUMP JUMPDEST JUMPDEST PUSH1 0x0 PUSH2 0xB0 DUP6 DUP3 DUP7 ADD PUSH2 0x76 JUMP JUMPDEST SWAP3 POP POP PUSH1 0x20 PUSH2 0xC1 DUP6 DUP3 DUP7 ADD PUSH2 0x76 JUMP JUMPDEST SWAP2 POP POP SWAP3 POP SWAP3 SWAP1 POP JUMP JUMPDEST PUSH2 0xD4 DUP2 PUSH2 0x12C JUMP JUMPDEST DUP3 MSTORE POP POP JUMP JUMPDEST PUSH1 0x0 PUSH1 0x20 DUP3 ADD SWAP1 POP PUSH2 0xEF PUSH1 0x0 DUP4 ADD DUP5 PUSH2 0xCB JUMP JUMPDEST SWAP3 SWAP2 POP POP JUMP JUMPDEST PUSH1 0x0 PUSH2 0x100 DUP3 PUSH2 0x12C JUMP JUMPDEST SWAP2 POP PUSH2 0x10B DUP4 PUSH2 0x12C JUMP JUMPDEST SWAP3 POP DUP3 PUSH1 0xFF SUB DUP3 GT ISZERO PUSH2 0x121 JUMPI PUSH2 0x120 PUSH2 0x139 JUMP JUMPDEST JUMPDEST DUP3 DUP3 ADD SWAP1 POP SWAP3 SWAP2 POP POP JUMP JUMPDEST PUSH1 0x0 PUSH1 0xFF DUP3 AND SWAP1 POP SWAP2 SWAP1 POP JUMP JUMPDEST PUSH32 0x4E487B7100000000000000000000000000000000000000000000000000000000 PUSH1 0x0 MSTORE PUSH1 0x11 PUSH1 0x4 MSTORE PUSH1 0x24 PUSH1 0x0 REVERT JUMPDEST PUSH1 0x0 DUP1 REVERT JUMPDEST PUSH2 0x176 DUP2 PUSH2 0x12C JUMP JUMPDEST DUP2 EQ PUSH2 0x181 JUMPI PUSH1 0x0 DUP1 REVERT JUMPDEST POP JUMP INVALID LOG2 PUSH5 0x6970667358 0x22 SLT KECCAK256 0xB7 0x27 0xDF 0x49 0xF 0xE9 0xD8 PUSH32 0x4D3E6C6D8B2A85359E4001B1F5E332A83DFC381EA2F4994364736F6C63430008 SMOD STOP CALLER "
				},
				"gasEstimates": {
					"creation": {
						"codeDepositCost": "88400",
						"executionCost": "135",
						"totalCost": "88535"
					},
					"external": {
						"add(uint8,uint8)": "infinite"
					}
				},
				"methodIdentifiers": {
					"add(uint8,uint8)": "bb4e3f4d"
				}
			},
			"storageLayout": {
				"storage": [],
				"types": null
			},
			"userdoc": {
				"kind": "user",
				"methods": {},
				"version": 1
			}
		}
	}
}