{
	"contracts/Test.sol": {
		"Test": {
			"abi": [
				{
					"inputs": [
						{
							"internalType": "uint8",
							"name": "a",
							"type": "uint8"
						},
						{
							"internalType": "uint8",
							"name": "b",
							"type": "uint8"
						}
					],
					"name": "add",
					"outputs": [
						{
							"internalType": "uint8",
							"name": "",
							"type": "uint8"
						}
					],
					"stateMutability": "pure",
					"type": "function"
				}
			],
			"devdoc": {
				"kind": "dev",
				"methods": {},
				"version": 1
			},
			"evm": {
				"assembly": "    /* \"contracts/Test.sol\":65:261  contract Test {\r... */\n  mstore(0x40, 0x80)\n  callvalue\n  dup1\n  iszero\n  tag_1\n  jumpi\n  0x00\n  dup1\n  revert\ntag_1:\n  pop\n  dataSize(sub_0)\n  dup1\n  dataOffset(sub_0)\n  0x00\n  codecopy\n  0x00\n  return\nstop\n\nsub_0: assembly {\n        /* \"contracts/Test.sol\":65:261  contract Test {\r... */\n      mstore(0x40, 0x80)\n      callvalue\n      dup1\n      iszero\n      tag_1\n      jumpi\n      0x00\n      dup1\n      revert\n    tag_1:\n      pop\n      jumpi(tag_2, lt(calldatasize, 0x04))\n      shr(0xe0, calldataload(0x00))\n      dup1\n      0xbb4e3f4d\n      eq\n      tag_3\n      jumpi\n    tag_2:\n      0x00\n      dup1\n      revert\n        /* \"contracts/Test.sol\":86:258  function add(uint8 a, uint8 b) public pure returns (uint8){\r... */\n    tag_3:\n      tag_4\n      0x04\n      dup1\n      calldatasize\n      sub\n      dup2\n      add\n      swap1\n      tag_5\n      swap2\n      swap1\n      tag_6\n      jump\t// in\n    tag_5:\n      tag_7\n      jump\t// in\n    tag_4:\n      mload(0x40)\n      tag_8\n      swap2\n      swap1\n      tag_9\n      jump\t// in\n    tag_8:\n      mload(0x40)\n      dup1\n      swap2\n      sub\n      swap1\n      return\n    tag_7:\n        /* \"contracts/Test.sol\":138:143  uint8 */\n      0x00\n        /* \"contracts/Test.sol\":86:258  function add(uint8 a, uint8 b) public pure returns (uint8){\r... */\n      swap3\n      swap2\n      pop\n      pop\n      jump\t// out\n        /* \"#utility.yul\":7:142   */\n    tag_12:\n        /* \"#utility.yul\":51:56   */\n      0x00\n        /* \"#utility.yul\":89:95   */\n      dup2\n        /* \"#utility.yul\":76:96   */\n      calldataload\n        /* \"#utility.yul\":67:96   */\n      swap1\n      pop\n        /* \"#utility.yul\":105:136   */\n      tag_14\n        /* \"#utility.yul\":130:135   */\n      dup2\n        /* \"#utility.yul\":105:136   */\n      tag_15\n      jump\t// in\n    tag_14:\n        /* \"#utility.yul\":7:142   */\n      swap3\n      swap2\n      pop\n      pop\n      jump\t// out\n        /* \"#utility.yul\":148:614   */\n    tag_6:\n        /* \"#utility.yul\":212:218   */\n      0x00\n        /* \"#utility.yul\":220:226   */\n      dup1\n        /* \"#utility.yul\":269:271   */\n      0x40\n        /* \"#utility.yul\":257:266   */\n      dup4\n        /* \"#utility.yul\":248:255   */\n      dup6\n        /* \"#utility.yul\":244:267   */\n      sub\n        /* \"#utility.yul\":240:272   */\n      slt\n        /* \"#utility.yul\":237:356   */\n      iszero\n      tag_17\n      jumpi\n        /* \"#utility.yul\":275:354   */\n      tag_18\n      tag_19\n      jump\t// in\n    tag_18:\n        /* \"#utility.yul\":237:356   */\n    tag_17:\n        /* \"#utility.yul\":395:396   */\n      0x00\n        /* \"#utility.yul\":420:471   */\n      tag_20\n        /* \"#utility.yul\":463:470   */\n      dup6\n        /* \"#utility.yul\":454:460   */\n      dup3\n        /* \"#utility.yul\":443:452   */\n      dup7\n        /* \"#utility.yul\":439:461   */\n      add\n        /* \"#utility.yul\":420:471   */\n      tag_12\n      jump\t// in\n    tag_20:\n        /* \"#utility.yul\":410:471   */\n      swap3\n      pop\n        /* \"#utility.yul\":366:481   */\n      pop\n        /* \"#utility.yul\":520:522   */\n      0x20\n        /* \"#utility.yul\":546:597   */\n      tag_21\n        /* \"#utility.yul\":589:596   */\n      dup6\n        /* \"#utility.yul\":580:586   */\n      dup3\n        /* \"#utility.yul\":569:578   */\n      dup7\n        /* \"#utility.yul\":565:587   */\n      add\n        /* \"#utility.yul\":546:597   */\n      tag_12\n      jump\t// in\n    tag_21:\n        /* \"#utility.yul\":536:597   */\n      swap2\n      pop\n        /* \"#utility.yul\":491:607   */\n      pop\n        /* \"#utility.yul\":148:614   */\n      swap3\n      pop\n      swap3\n      swap1\n      pop\n      jump\t// out\n        /* \"#utility.yul\":620:732   */\n    tag_22:\n        /* \"#utility.yul\":703:725   */\n      tag_24\n        /* \"#utility.yul\":719:724   */\n      dup2\n        /* \"#utility.yul\":703:725   */\n      tag_25\n      jump\t// in\n    tag_24:\n        /* \"#utility.yul\":698:701   */\n      dup3\n        /* \"#utility.yul\":691:726   */\n      mstore\n        /* \"#utility.yul\":620:732   */\n      pop\n      pop\n      jump\t// out\n        /* \"#utility.yul\":738:952   */\n    tag_9:\n        /* \"#utility.yul\":827:831   */\n      0x00\n        /* \"#utility.yul\":865:867   */\n      0x20\n        /* \"#utility.yul\":854:863   */\n      dup3\n        /* \"#utility.yul\":850:868   */\n      add\n        /* \"#utility.yul\":842:868   */\n      swap1\n      pop\n        /* \"#utility.yul\":878:945   */\n      tag_27\n        /* \"#utility.yul\":942:943   */\n      0x00\n        /* \"#utility.yul\":931:940   */\n      dup4\n        /* \"#utility.yul\":927:944   */\n      add\n        /* \"#utility.yul\":918:924   */\n      dup5\n        /* \"#utility.yul\":878:945   */\n      tag_22\n      jump\t// in\n    tag_27:\n        /* \"#utility.yul\":738:952   */\n      swap3\n      swap2\n      pop\n      pop\n      jump\t// out\n        /* \"#utility.yul\":1039:1125   */\n    tag_25:\n        /* \"#utility.yul\":1074:1081   */\n      0x00\n        /* \"#utility.yul\":1114:1118   */\n      0xff\n        /* \"#utility.yul\":1107:1112   */\n      dup3\n        /* \"#utility.yul\":1103:1119   */\n      and\n        /* \"#utility.yul\":1092:1119   */\n      swap1\n      pop\n        /* \"#utility.yul\":1039:1125   */\n      swap2\n      swap1\n      pop\n      jump\t// out\n        /* \"#utility.yul\":1254:1371   */\n    tag_19:\n        /* \"#utility.yul\":1363:1364   */\n      0x00\n        /* \"#utility.yul\":1360:1361   */\n      dup1\n        /* \"#utility.yul\":1353:1365   */\n      revert\n        /* \"#utility.yul\":1377:1495   */\n    tag_15:\n        /* \"#utility.yul\":1448:1470   */\n      tag_35\n        /* \"#utility.yul\":1464:1469   */\n      dup2\n        /* \"#utility.yul\":1448:1470   */\n      tag_25\n      jump\t// in\n    tag_35:\n        /* \"#utility.yul\":1441:1446   */\n      dup2\n        /* \"#utility.yul\":1438:1471   */\n      eq\n        /* \"#utility.yul\":1428:1489   */\n      tag_36\n      jumpi\n        /* \"#utility.yul\":1485:1486   */\n      0x00\n        /* \"#utility.yul\":1482:1483   */\n      dup1\n        /* \"#utility.yul\":1475:1487   */\n      revert\n        /* \"#utility.yul\":1428:1489   */\n    tag_36:\n        /* \"#utility.yul\":1377:1495   */\n      pop\n      jump\t// out\n\n    auxdata: 0xa2646970667358221220f913dc763a2b3037575f9513387038a22590c37f2062377b669ab7d3aa28575864736f6c63430008070033\n}\n",
				"bytecode": {
					"linkReferences": {},
					"object": "608060405234801561001057600080fd5b5061012d806100206000396000f3fe6080604052348015600f57600080fd5b506004361060285760003560e01c8063bb4e3f4d14602d575b600080fd5b60436004803603810190603f91906072565b6057565b604051604e919060b8565b60405180910390f35b600092915050565b600081359050606c8160e3565b92915050565b60008060408385031215608657608560de565b5b6000609285828601605f565b925050602060a185828601605f565b9150509250929050565b60b28160d1565b82525050565b600060208201905060cb600083018460ab565b92915050565b600060ff82169050919050565b600080fd5b60ea8160d1565b811460f457600080fd5b5056fea2646970667358221220f913dc763a2b3037575f9513387038a22590c37f2062377b669ab7d3aa28575864736f6c63430008070033",
					"opcodes": "PUSH1 0x80 PUSH1 0x40 MSTORE CALLVALUE DUP1 ISZERO PUSH2 0x10 JUMPI PUSH1 0x0 DUP1 REVERT JUMPDEST POP PUSH2 0x12D DUP1 PUSH2 0x20 PUSH1 0x0 CODECOPY PUSH1 0x0 RETURN INVALID PUSH1 0x80 PUSH1 0x40 MSTORE CALLVALUE DUP1 ISZERO PUSH1 0xF JUMPI PUSH1 0x0 DUP1 REVERT JUMPDEST POP PUSH1 0x4 CALLDATASIZE LT PUSH1 0x28 JUMPI PUSH1 0x0 CALLDATALOAD PUSH1 0xE0 SHR DUP1 PUSH4 0xBB4E3F4D EQ PUSH1 0x2D JUMPI JUMPDEST PUSH1 0x0 DUP1 REVERT JUMPDEST PUSH1 0x43 PUSH1 0x4 DUP1 CALLDATASIZE SUB DUP2 ADD SWAP1 PUSH1 0x3F SWAP2 SWAP1 PUSH1 0x72 JUMP JUMPDEST PUSH1 0x57 JUMP JUMPDEST PUSH1 0x40 MLOAD PUSH1 0x4E SWAP2 SWAP1 PUSH1 0xB8 JUMP JUMPDEST PUSH1 0x40 MLOAD DUP1 SWAP2 SUB SWAP1 RETURN JUMPDEST PUSH1 0x0 SWAP3 SWAP2 POP POP JUMP JUMPDEST PUSH1 0x0 DUP2 CALLDATALOAD SWAP1 POP PUSH1 0x6C DUP2 PUSH1 0xE3 JUMP JUMPDEST SWAP3 SWAP2 POP POP JUMP JUMPDEST PUSH1 0x0 DUP1 PUSH1 0x40 DUP4 DUP6 SUB SLT ISZERO PUSH1 0x86 JUMPI PUSH1 0x85 PUSH1 0xDE JUMP JUMPDEST JUMPDEST PUSH1 0x0 PUSH1 0x92 DUP6 DUP3 DUP7 ADD PUSH1 0x5F JUMP JUMPDEST SWAP3 POP POP PUSH1 0x20 PUSH1 0xA1 DUP6 DUP3 DUP7 ADD PUSH1 0x5F JUMP JUMPDEST SWAP2 POP POP SWAP3 POP SWAP3 SWAP1 POP JUMP JUMPDEST PUSH1 0xB2 DUP2 PUSH1 0xD1 JUMP JUMPDEST DUP3 MSTORE POP POP JUMP JUMPDEST PUSH1 0x0 PUSH1 0x20 DUP3 ADD SWAP1 POP PUSH1 0xCB PUSH1 0x0 DUP4 ADD DUP5 PUSH1 0xAB JUMP JUMPDEST SWAP3 SWAP2 POP POP JUMP JUMPDEST PUSH1 0x0 PUSH1 0xFF DUP3 AND SWAP1 POP SWAP2 SWAP1 POP JUMP JUMPDEST PUSH1 0x0 DUP1 REVERT JUMPDEST PUSH1 0xEA DUP2 PUSH1 0xD1 JUMP JUMPDEST DUP2 EQ PUSH1 0xF4 JUMPI PUSH1 0x0 DUP1 REVERT JUMPDEST POP JUMP INVALID LOG2 PUSH5 0x6970667358 0x22 SLT KECCAK256 0xF9 SGT 0xDC PUSH23 0x3A2B3037575F9513387038A22590C37F2062377B669AB7 0xD3 0xAA 0x28 JUMPI PC PUSH5 0x736F6C6343 STOP ADDMOD SMOD STOP CALLER "
				},
				"gasEstimates": {
					"creation": {
						"codeDepositCost": "60200",
						"executionCost": "111",
						"totalCost": "60311"
					},
					"external": {
						"add(uint8,uint8)": "infinite"
					}
				},
				"methodIdentifiers": {
					"add(uint8,uint8)": "bb4e3f4d"
				}
			},
			"storageLayout": {
				"storage": [],
				"types": null
			},
			"userdoc": {
				"kind": "user",
				"methods": {},
				"version": 1
			}
		}
	}
}